:020000040800F2
:10000000A0070020890100081931000811310008FB
:100010001531000801140008113400080000000028
:10002000000000000000000000000000C1310008D6
:10003000A9160008000000001D310008393300082F
:10004000A3010008A3010008A3010008A301000800
:10005000A3010008A3010008A3010008A3010008F0
:10006000A3010008A3010008A3010008A3010008E0
:10007000A3010008A3010008A3010008A3010008D0
:10008000A3010008A3010008A3010008A3010008C0
:10009000A3010008A3010008A3010008A3010008B0
:1000A000A3010008A3010008A3010008A3010008A0
:1000B000A3010008A3010008A3010008A301000890
:1000C000A3010008A3010008A3010008A301000880
:1000D000A301000805340008A3010008A3010008DB
:1000E000A3010008A3010008A301000800F002F822
:1000F00000F03AF80AA090E8000C82448344AAF188
:100100000107DA4501D100F02FF8AFF2090EBAE885
:100110000F0013F0010F18BFFB1A43F0010318473B
:100120007835000098350000103A24BF78C878C1AF
:10013000FAD8520724BF30C830C144BF04680C60ED
:10014000704700000023002400250026103A28BF35
:1001500078C1FBD8520728BF30C148BF0B60704739
:100160001FB51FBD10B510BD00F031F81146FFF7E7
:10017000F7FF03F04FF900F04FF803B4FFF7F2FF79
:1001800003BC00F057F800000948804709480047C1
:10019000FEE7FEE7FEE7FEE7FEE7FEE7FEE7FEE737
:1001A000FEE7FEE704480549054A064B7047000094
:1001B0003D330008ED000008A0010020A00700204A
:1001C000A0030020A00300207047704770477546C9
:1001D00000F02CF8AE4605006946534620F00700B3
:1001E000854618B020B5FFF7DDFFBDE820404FF091
:1001F00000064FF000074FF000084FF0000BAC4630
:10020000ACE8C009ACE8C009ACE8C009ACE8C0097A
:1002100021F007018D46704710B50446AFF300800A
:100220002046BDE81040FFF7A8BF00000048704717
:100230003800002001491820ABBEFEE7260002006E
:1002400070470000F0B581B040F20007C2F200072D
:1002500015460C4679793A6A97F90A300E1899B220
:100260001046002201F06EFE70B200F0B5FF0020D3
:1002700000F0B2FF00F0A8FE3A6A97F90A100646AD
:1002800089B21046012201F05DFE97F90A3005EAB5
:10029000040126EA0402386A541899B2002201F0D7
:1002A00051FE002000F098FF002000F095FF60B2A2
:1002B00000F092FF97F90A10386A89B2012201B062
:1002C000BDE8F04001F03EBE2DE9F04F85B040F2B0
:1002D0000008C2F20008064698F81100009140F2AA
:1002E000244540210022C4F200054FF00009FFF729
:1002F000A9FF4FF6004A40F2980440F20C10CFF6E6
:10030000FF7AC2F20004C2F2000045F80A90C4F875
:10031000089084F8019002F0AFFA98F90E10D8F81E
:10032000240089B2002201F00DFE98F80C1098F814
:100330000D20D8F82400114349B289B2012201F0FE
:1003400001FE00F0A7FF002E3046019600F08285E6
:10035000207840F2541BC2F2000B002206E000BFDE
:10036000029A019901328A4200F0758555F80A1007
:100370000292FE290DD9F3E798F90A10D8F8200067
:1003800089B2012201F0DEFD55F80A102078FE291D
:10039000E6D80028E4D198F90610D8F8200089B2F0
:1003A00001F0CAFD0028EFD198F90A10D8F8200012
:1003B00089B2002201F0C6FD98F90910D8F8200092
:1003C00089B2012201F0BEFD98F90710D8F820008B
:1003D00089B201F0B1FD5846C5F8009002F04CFA20
:1003E0002868012808D82868012805D82868012825
:1003F00002D828680228F3D3584602F075FA98F913
:100400000910D8F8200089B2002201F09BFD58465F
:10041000C5F8009002F030FA2868012808D828684A
:10042000012805D82868012802D828680228F3D3B3
:10043000584602F059FA98F90910D8F8200089B204
:10044000012201F07FFD98F90710D8F8200089B249
:1004500001F072FD5846C5F8009002F00DFA00BF99
:100460002868012808D82868012805D828680128A4
:1004700002D828680228F3D3584602F035FA98F9D2
:100480000910D8F8200089B2002201F05BFD58461F
:10049000C5F8009002F0F0F92868012808D828680B
:1004A000012805D82868012802D828680228F3D333
:1004B000584602F019FA98F90910D8F8200089B2C4
:1004C000012201F03FFD98F90710D8F8200089B209
:1004D00001F032FD5846C5F8009002F0CDF900BF9A
:1004E0002868012808D82868012805D82868012824
:1004F00002D828680228F3D3584602F0F5F998F993
:100500000910D8F8200089B2002201F01BFD5846DE
:10051000C5F8009002F0B0F92868012808D82868CA
:10052000012805D82868012802D828680228F3D3B2
:10053000584602F0D9F998F90910D8F8200089B284
:10054000012201F0FFFC98F90710D8F8200089B2C9
:1005500001F0F2FC5846C5F8009002F08DF900BF9A
:100560002868012808D82868012805D828680128A3
:1005700002D828680228F3D3584602F0B5F998F952
:100580000910D8F8200089B2002201F0DBFC58469F
:10059000C5F8009002F070F92868012808D828688A
:1005A000012805D82868012802D828680228F3D332
:1005B000584602F099F998F90910D8F8200089B244
:1005C000012201F0BFFC98F90710D8F8200089B289
:1005D00001F0B2FC5846C5F8009002F04DF900BF9A
:1005E0002868012808D82868012805D82868012823
:1005F00002D828680228F3D3584602F075F998F912
:100600000910D8F8200089B2002201F09BFC58465E
:10061000C5F8009002F030F92868012808D8286849
:10062000012805D82868012802D828680228F3D3B1
:10063000584602F059F998F90910D8F8200089B203
:10064000012201F07FFC98F90710D8F8200089B248
:1006500001F072FC5846C5F8009002F00DF900BF99
:100660002868012808D82868012805D828680128A2
:1006700002D828680228F3D3584602F035F998F9D1
:100680000910D8F8200089B2002201F05BFC58461E
:10069000C5F8009002F0F0F82868012808D828680A
:1006A000012805D82868012802D828680228F3D331
:1006B000584602F019F998F90910D8F8200089B2C3
:1006C000012201F03FFC98F90710D8F8200089B208
:1006D00001F032FC5846C5F8009002F0CDF800BF9A
:1006E0002868012808D82868012805D82868012822
:1006F00002D828680228F3D3584602F0F5F898F992
:100700000910D8F8200089B2002201F01BFC5846DD
:10071000C5F8009002F0B0F82868012808D82868C9
:10072000012805D82868012802D828680228F3D3B0
:10073000584602F0D9F898F90910D8F8200089B283
:10074000012201F0FFFB98F90710D8F8200089B2C8
:1007500001F0F2FB5846C5F8009002F08DF800BF9A
:100760002868012808D82868012805D828680128A1
:1007700002D828680228F3D3584602F0B5F898F951
:100780000910D8F8200089B2002201F0DBFB58469E
:10079000C5F8009002F070F82868012808D8286889
:1007A000012805D82868012802D828680228F3D330
:1007B000584602F099F80026002708E004FA07F0EE
:1007C0000643584602F090F80137082F3ED098F9BA
:1007D0000910D8F8200089B2012201F0B3FB98F982
:1007E0000710D8F8200089B201F0A6FB044658464D
:1007F000C5F8009002F040F82868012808D8286859
:10080000012805D82868012802D828680228F3D3CF
:10081000584602F069F898F90910D8F8200089B212
:10082000002201F08FFB5846C5F8009002F024F832
:1008300028680128C2D828680128BFD8286801285C
:10084000BCD828680228F3D3B8E700BF8DF8106041
:100850000026002709E000BF04FA07F006435846C7
:1008600002F042F80137082F3ED098F90910D8F865
:10087000200089B2012201F065FB98F90710D8F831
:10088000200089B201F058FB04465846C5F8009094
:1008900001F0F2FF2868012808D82868012805D847
:1008A0002868012802D828680228F3D3584602F0A5
:1008B0001BF898F90910D8F8200089B2002201F03D
:1008C00041FB5846C5F8009001F0D6FF2868012882
:1008D000C2D828680128BFD828680128BCD8286851
:1008E0000228F3D3B8E700BF8DF811600026002777
:1008F00009E000BF04FA07F00643584601F0F4FF90
:100900000137082F3ED098F90910D8F8200089B295
:10091000012201F017FB98F90710D8F8200089B2DE
:1009200001F00AFB04465846C5F8009001F0A4FF08
:100930002868012808D82868012805D828680128CF
:1009400002D828680228F3D3584601F0CDFF98F961
:100950000910D8F8200089B2002201F0F3FA5846B5
:10096000C5F8009001F088FF28680128C2D82868DF
:100970000128BFD828680128BCD828680228F3D3EA
:10098000B8E700BF57468DF812604FF0000A002606
:100990000AE000BF04FA06F04AEA000A584601F0ED
:1009A000A3FF0136082E3FD098F90910D8F820008F
:1009B00089B2012201F0C6FA98F90710D8F8200090
:1009C00089B201F0B9FA04465846C5F8009001F022
:1009D00053FF00BF2868012808D82868012805D8D7
:1009E0002868012802D828680228F3D3584601F065
:1009F0007BFF98F90910D8F8200089B2002201F095
:100A0000A1FA5846C5F8009001F036FF2868012881
:100A1000C0D828680128BDD828680128BAD8286815
:100A20000228F3D3B6E700BF98F90910D8F82000E0
:100A300089B201228DF813A001F084FA98F9071009
:100A4000D8F8200089B201F077FA5846C5F800902E
:100A500001F012FF2868012808D82868012805D865
:100A60002868012802D828680228F3D3584601F0E4
:100A70003BFF98F90910D8F8200089B2002201F054
:100A800061FA5846C5F8009001F0F6FE40F298046D
:100A9000BA46C2F2000400BF2868012808D82868B6
:100AA000012805D82868012802D828680228F3D32D
:100AB000584601F019FF98F90910D8F8200089B2BA
:100AC000012201F03FFA98F90710D8F8200089B206
:100AD00001F032FA5846C5F8009001F0CDFE00BF93
:100AE0002868012808D82868012805D8286801281E
:100AF00002D828680228F3D3584601F0F5FE98F989
:100B00000910D8F8200089B2002201F01BFA5846DB
:100B1000C5F8009001F0B0FE2868012808D82868C0
:100B2000012805D82868012802D828680228F3D3AC
:100B3000584601F0D9FE98F90910D8F8200089B27A
:100B4000012201F0FFF998F90710D8F8200089B2C6
:100B500001F0F2F95846C5F8009001F08DFE00BF93
:100B60002868012808D82868012805D8286801289D
:100B700002D828680228F3D3584601F0B5FE98F948
:100B80000910D8F8200089B2002201F0DBF958469C
:100B9000C5F8009001F070FE2868012808D8286880
:100BA000012805D82868012802D828680228F3D32C
:100BB000584601F099FE98F90910D8F8200089B23A
:100BC000012201F0BFF998F90710D8F8200089B286
:100BD00001F0B2F95846C5F8009001F04DFE00BF93
:100BE0002868012808D82868012805D8286801281D
:100BF00002D828680228F3D3584601F075FE98F908
:100C00000910D8F8200089B2002201F09BF958465B
:100C1000C5F8009001F030FE2868012808D828683F
:100C2000012805D82868012802D828680228F3D3AB
:100C3000584601F059FE98F90910D8F8200089B2F9
:100C4000012201F07FF998F90710D8F8200089B245
:100C500001F072F95846C5F8009001F00DFE00BF92
:100C60002868012808D82868012805D8286801289C
:100C700002D828680228F3D3584601F035FE98F9C7
:100C80000910D8F8200089B2002201F05BF958461B
:100C9000C5F8009001F0F0FD2868012808D8286800
:100CA000012805D82868012802D828680228F3D32B
:100CB000584601F019FE98F90910D8F8200089B2B9
:100CC000012201F03FF998F90710D8F8200089B205
:100CD00001F032F95846C5F8009001F0CDFD00BF93
:100CE0002868012808D82868012805D8286801281C
:100CF00002D828680228F3D3584601F0F5FD98F988
:100D00000910D8F8200089B2002201F01BF95846DA
:100D1000C5F8009001F0B0FD2868012808D82868BF
:100D2000012805D82868012802D828680228F3D3AA
:100D3000584601F0D9FD98F90910D8F8200089B279
:100D4000012201F0FFF898F90710D8F8200089B2C5
:100D500001F0F2F85846C5F8009001F08DFD00BF93
:100D60002868012808D82868012805D8286801289B
:100D700002D828680228F3D3584601F0B5FD98F947
:100D80000910D8F8200089B2002201F0DBF858469B
:100D9000C5F8009001F070FD2868012808D828687F
:100DA000012805D82868012802D828680228F3D32A
:100DB000584601F099FD98F90910D8F8200089B239
:100DC000012201F0BFF898F90710D8F8200089B285
:100DD00001F0B2F85846C5F8009001F04DFD00BF93
:100DE0002868012808D82868012805D8286801281B
:100DF00002D828680228F3D3584601F075FD98F907
:100E00000910D8F8200089B2002201F09BF858465A
:100E1000C5F8009001F030FD2868012808D828683E
:100E2000012805D82868012802D828680228F3D3A9
:100E3000584601F059FD98F81D0000283FF49CAA7F
:100E400004F12C0004A9042288F81D9002F036F960
:100E5000FFF792BA207855F80A10009FB9424CD299
:100E600000284AD140F29800C2F200004FF0000979
:100E700000F12C0403AE00BF98F90610D8F820004A
:100E800089B201F059F868BB98F90A10D8F8200027
:100E900089B2002201F056F800F096F800F094F8BC
:100EA0008DF80C0000F090F88DF80D0000F08CF833
:100EB0008DF80E0000F088F88DF80F0000F084F82F
:100EC00098F81D0030B120463146042288F81D9064
:100ED00002F0F4F898F90A10D8F8200089B201223B
:100EE00001F030F855F80A00B84206D240F29800F6
:100EF000C2F2000000780028BED040F20C10C2F20E
:100F0000000001F0F1FC98F90B10D8F8200089B22C
:100F1000002201F017F898F80C1098F80D2098F8B6
:100F20000E3011431943D8F8240049B289B2002287
:100F300001F008F805B0BDE8F08F000010B582B0F0
:100F400040F20004C2F20004607C40214022FFF71E
:100F500079F900F09FF900BF94F90610206A89B270
:100F600000F0EAFF0028F7D194F90A10206A89B24C
:100F7000002200F0E7FF00F027F800F025F88DF8D8
:100F8000040000F021F88DF8050000F01DF88DF840
:100F9000060000F019F88DF8070000F015F840F28F
:100FA0009800C2F200002C3001A904224FF6FF7312
:100FB00001F0B2FF94F90A10206A89B2012200F010
:100FC000C1FF02B010BD00002DE9F04740F22447F8
:100FD00040F2000A40F254194FF00008C4F2000732
:100FE000C2F2000AC2F200090024002607E000BF96
:100FF00048462C4301F078FC0136082E40D09AF97F
:101000000910DAF8200089B2012200F09BFF9AF95A
:101010000710DAF8200089B200F08EFF0546484636
:10102000C7F8008001F028FC3868012808D8386823
:10103000012805D83868012802D838680228F3D377
:101040004846B54001F050FC9AF90910DAF8200042
:1010500089B2002200F076FF4846C7F8008001F010
:101060000BFC00BF38680128C2D838680128BFD8F7
:1010700038680128BCD838680228F3D3B8E700BF25
:10108000E0B2BDE8F0870000B0B540F20004C2F263
:1010900000046179227D94F90A30206A8D1899B292
:1010A000002200F04FFF68B200F096F8002000F038
:1010B00093F8FFF789FF94F90A10206A89B2012298
:1010C00000F040FF6179627C94F90A30206A8D1843
:1010D00099B2002200F036FF68B200F07DF80020DF
:1010E00000F07AF8FFF770FF94F90A10206A89B2CD
:1010F000012200F027FF94F90A10206A89B2002229
:1011000000F020FF002000F067F8002000F064F8F5
:101110004FF0FF3000F060F894F90A10206A89B2AD
:10112000012200F00FFF94F90A10206A89B2002210
:1011300000F008FF002000F04FF8002000F04CF80D
:10114000002000F049F894F90A10206A89B20122BF
:1011500000F0F8FE94F90A10206A89B2002200F02B
:10116000F1FE94F9040000F037F894F90A10206AAF
:1011700089B2012200F0E6FE94F90A10206A89B2D1
:10118000002200F0DFFE002000F026F8002000F032
:1011900023F8002000F020F894F90A10206A89B2A0
:1011A000012200F0CFFE94F90A10206A89B20022D1
:1011B00000F0C8FE002000F00FF8002000F00CF84E
:1011C000002000F009F894F90A10206A89B201227F
:1011D000BDE8B04000F0B6BE2DE9F04381B040F26A
:1011E000244640F2000740F254158146C4F200063E
:1011F0004FF00008C2F20007C2F2000500240CE024
:10120000284601F071FB97F90910386A89B200226B
:1012100000F098FE0134082C38D097F9083029FAEC
:1012200004F1386A01F0010299B200F08BFE284601
:10123000C6F8008001F020FB3068012808D830682B
:10124000012805D83068012802D830680228F3D375
:10125000284601F049FB97F90910386A89B2012242
:1012600000F070FE2846C6F8008001F005FB00BFC4
:1012700030680128C4D830680128C1D830680128F6
:10128000BED830680228F3D3BAE700BF01B0BDE88A
:10129000F0830000F0B581B040F20005C2F2000515
:1012A00095F90B10286A40F2244689B20122C4F253
:1012B000000600F047FE0020306040F25410C2F2F9
:1012C000000001F0D9FA00BF3068042808D830685F
:1012D000042805D83068042802D830680528F3D3DC
:1012E00040F25414C2F20004204601F0FDFA95F9D0
:1012F0000B10286A89B20022002700F023FE204646
:10130000376001F0B9FA00BF3068042808D83068A7
:10131000042805D83068042802D830680528F3D39B
:1013200040F25410C2F2000001F0DEFA95F90B1001
:10133000286A89B2012201B0BDE8F04000F002BE87
:10134000B0B540F20004C2F200046179227D94F944
:101350000A30206A8D1899B2002200F0F3FD68B2BD
:10136000FFF73AFF0020FFF737FFFFF72DFE94F954
:101370000A10206A89B2012200F0E4FD94F90A10F3
:10138000206A89B2002200F0DDFD0020FFF724FF73
:101390000020FFF721FF0A20FFF71EFF94F90A1033
:1013A000206A89B2012200F0CDFD94F90A10206A6A
:1013B00089B2002200F0C6FD94F90300FFF70CFF8C
:1013C00094F90A10206A89B2012200F0BBFD94F959
:1013D0000A10206A89B2002200F0B4FD0020FFF755
:1013E000FBFE0020FFF7F8FE0020FFF7F5FE94F962
:1013F0000A10206A89B20122BDE8B04000F0A2BD07
:10140000FEE7000070B5044600780D2800F24A811E
:10141000DFE810F00E001A00500056005A00760067
:101420008C008E00AE0034015E0068004801700040
:1014300040F29801C2F2000101F12C0004310422B3
:10144000BDE8704001F03ABE40F20005C2F200056E
:1014500095F90A10286A40F2244489B20022C4F2A5
:101460000004002600F06EFD95F90000FFF7B4FEC1
:1014700095F90A10286A89B2012200F063FD40F252
:101480005410C2F20000266001F0F6F92068082826
:1014900008D82068082805D82068082802D82068BD
:1014A0000928F3D340F25410C2F20000BDE87040A6
:1014B00001F01ABAA078E178BDE87040FEF704BFE9
:1014C000BDE87040FFF73ABDBDE87040FFF7DCBDF6
:1014D000E1781D2988BF70BDA07849B2BDE8704091
:1014E00001F070BE40F29800C2F2000001210170CC
:1014F000D8E000BF6088BDE8704001F011BE00BFB9
:1015000040F20005C2F2000595F90A10286A89B276
:10151000002200F017FD95F90300FFF75DFE95F935
:101520000A10286A89B2012200F00CFDFFF708FFBB
:1015300040F20005C2F2000595F90A10286AE47825
:1015400089B2002200F0FEFC0020FFF745FE0020DB
:10155000FFF742FEE0074FF0070008BF0320FFF748
:101560003BFE95F90A10286A89B2012200F0EAFCD4
:10157000002000F09BF840F29804C2F2000404F846
:101580000C0F012000F092F86070022000F08EF83D
:10159000A070032000F08AF8E070042000F086F8C4
:1015A0002071052000F082F86071062000F07EF8BE
:1015B000A071072000F07AF8E071082000F076F8BA
:1015C0002072092000F072F860720A2000F06EF8B4
:1015D000A0720B2000F06AF8E0720C2000F066F8B0
:1015E00020730D2000F062F860730E2000F05EF8AA
:1015F000A0730F2000F05AF8E073102000F056F8A6
:101600002074112000F052F86074122000F04EF89F
:10161000A074132000F04AF8E074142000F046F89B
:101620002075152000F042F86075162000F03EF895
:10163000A075172000F03AF8E075182000F036F891
:101640002076192000F032F860761A2000F02EF88B
:10165000A0761B2000F02AF8E0761C2000F026F887
:1016600020771D2000F022F8034604F120002146D7
:101670001E226377BDE8704001F020BDE0781D2890
:1016800010D800F013F840F298060346C2F20006A4
:1016900006F10C0106F12C0001227373BDE87040C5
:1016A00001F00CBD70BD000070470000B0B51D28F2
:1016B00028D8DFE810F02B004F0057005F006F00C4
:1016C0007F00A300C700EB000F0117011F014301BA
:1016D00067011F008901AD01B501BD01C501E90127
:1016E000F101150239024102970249026D021F0001
:1016F000750200BF40F20004C2F200046179E27E8C
:1017000054E200BF002460B2B0BD00BF40F200044C
:10171000C2F200046179627C94F90A30206A8D1863
:1017200099B2002200F00EFC68B2FFF755FD0020D0
:10173000FFF752FDFFF748FC226A94F90A100446AD
:1017400089B21046012200F0FDFBC4F3011460B21F
:10175000B0BD00BF40F20004C2F200046179627CB7
:1017600074E100BF40F20004C2F200046179627CBF
:101770003EE200BF40F2081040F20004C2F2000056
:10178000C2F2000401786279206A94F90A3055188F
:1017900002E100BF40F2081040F20004C2F2000073
:1017A000C2F2000401786279206A94F90A3055186F
:1017B000D4E100BF40F20004C2F200046179E27B90
:1017C00094F90A30206A8D1899B2002200F0BAFB11
:1017D00068B2FFF701FD0020FFF7FEFCFFF7F4FB06
:1017E000226A94F90A10044689B21046012200F0D8
:1017F000A9FBC4F3400460B2B0BD00BF40F20004D6
:10180000C2F200046179627C94F90A30206A8D1872
:1018100099B2002200F096FB68B2FFF7DDFC0020D1
:10182000FFF7DAFCFFF7D0FB226A94F90A100446AE
:1018300089B21046012200F085FB04F0010460B279
:10184000B0BD00BF40F20004C2F200046179227C06
:1018500094F90A30206A8D1899B2002200F072FBC8
:1018600068B2FFF7B9FC0020FFF7B6FCFFF7ACFB4E
:10187000226A94F90A10044689B21046012200F047
:1018800061FB04F0030460B2B0BD00BF40F200048D
:10189000C2F200046179227C94F90A30206A8D1822
:1018A00099B2002200F04EFB68B2FFF795FC0020D1
:1018B000FFF792FCFFF788FB226A94F90A100446AE
:1018C00089B21046012200F03DFBC4F3800460B2EF
:1018D000B0BD00BF40F20004C2F200046179227C76
:1018E0000EE000BF40F20004C2F200046179A27C65
:1018F000D8E000BF40F20004C2F200046179A27C8B
:1019000094F90A30206A8D1899B2002200F01AFB6F
:1019100068B2FFF761FC0020FFF75EFCFFF754FBA5
:10192000226A94F90A10044689B21046012200F096
:1019300009FBC4F3C00460B2B0BD00BF40F20004B4
:10194000C2F200046179A27C94F90A30206A8D18F1
:1019500099B2002200F0F6FA68B2FFF73DFC0020D1
:10196000FFF73AFCFFF730FB226A94F90A100446AD
:1019700089B21046012200F0E5FAC4F3001460B207
:10198000B0BD00BF40F20004C2F200046179A27C45
:10199000206A94F90A308D1899B2002200F0D2FA28
:1019A00068B2FFF719FC0020FFF716FCFFF70CFBED
:1019B000226A94F90A10044689B21046012200F006
:1019C000C1FA640960B2B0BD40F20004C2F2000482
:1019D0006179E27C94F90A30206A8D1899B200226C
:1019E00000F0B0FA68B2FFF7F7FB0020FFF7F4FB56
:1019F000FFF7EAFA226A94F90A10044689B21046FF
:101A0000012200F09FFAC4F3021460B2B0BD00BF1F
:101A100040F20004C2F200046179E27CE8E000BF19
:101A200040F20004C2F200046179627D0EE000BF62
:101A300040F20004C2F200046179627DD8E000BF88
:101A400040F20004C2F200046179A27D94F90A30E8
:101A5000206A8D1899B2002200F074FA68B2FFF77C
:101A6000BBFB0020FFF7B8FBFFF7AEFA226A94F940
:101A70000A10044689B21046012200F063FA04F00D
:101A80000F0460B2B0BD00BF40F20004C2F2000417
:101A90006179A27DACE000BF40F20004C2F2000414
:101AA0006179E27D94F90A30206A8D1899B200229A
:101AB00000F048FA68B2FFF78FFB0020FFF78CFBBD
:101AC000FFF782FA226A94F90A10044689B2104696
:101AD000012200F037FA04F0070460B2B0BD00BF85
:101AE00040F20004C2F200046179E27D94F90A3008
:101AF000206A8D1899B2002200F024FA68B2FFF72C
:101B00006BFB0020FFF768FBFFF75EFA226A94F98F
:101B10000A10044689B21046012200F013FAC4F3F9
:101B2000C20460B2B0BD00BF40F20004C2F20004C3
:101B30006179227E5CE000BF40F20004C2F2000442
:101B40006179227E06E000BF40F20004C2F2000488
:101B50006179627E206A94F90A308D1899B2002268
:101B600000F0F0F968B2FFF737FB0020FFF734FB15
:101B7000FFF72AFA226A94F90A10044689B210463D
:101B8000012200F0DFF904F01F0460B2B0BD00BF15
:101B900040F20004C2F200046179A27E06E000BFB8
:101BA00040F20004C2F200046179227F94F90A3005
:101BB000206A8D1899B2002200F0C4F968B2FFF7CC
:101BC0000BFB0020FFF708FBFFF7FEF9226A94F9F0
:101BD0000A10044689B21046012200F0B3F960B23F
:101BE000B0BD00BF40F20004C2F200046179627E21
:101BF00094F90A30206A8D1899B2002200F0A2F9F7
:101C000068B2FFF7E9FA0020FFF7E6FAFFF7DCF920
:101C1000226A94F90A10044689B21046012200F0A3
:101C200091F9E40960B2B0BD014690F821000228A4
:101C300016D10868D1E90FC3026822F00E020260D3
:101C4000026822F001020260012000FA03F2CCF8DF
:101C5000042081F821000020002281F82020704714
:101C6000042088630120002281F8202070470000B2
:101C700080B590F82110022924D10268116821F062
:101C80000E0111602F211368C4F202018A4240F252
:101C90000401C4F2020123F00103136016DD3023B6
:101CA000C4F202039A421DD04423C4F202039A42B2
:101CB0001CD05823C4F202039A421DD14FF4803342
:101CC00022E000BF04218163012080BD0823C4F20B
:101CD00002039A420ED01C23C4F202039A420BD193
:101CE000102311E04FF480730EE000BF4FF48053D7
:101CF0000AE000BF012307E001F1680C4FF0807398
:101D0000624508BF4FF480130B60416B4FF4807243
:101D1000028401B18847002080BD00002DE9F04F0A
:101D200082B00E68002E00F0038140F20C4C41F2AC
:101D300000424FF6FF7EC4F2010CC4F201020427F8
:101D400000240123C1F2100E4FF0000A4FF00009E9
:101D5000904208BF0327009745E000BF012704F029
:101D60000C030F229A402BEA020207FA03F34FEA10
:101D70009A051A4346F82520D1F804B040F20045F0
:101D8000C4F201055FEACB322A6854BF22EA080296
:101D900042EA08022A606A685FEA8B3354BF22EA8B
:101DA000080242EA08026A605FEACB23AA6854BFCD
:101DB00022EA080242EA08025FEA8B23AA60DCF802
:101DC00000204FF0010354BF22EA080242EA080251
:101DD000CCF800200E680AF1010A36FA0AF204F182
:101DE000040400F0A58003FA0AF816EA080FF1D0FF
:101DF0004E68764512DC122E56D8DFE806F0350B19
:101E00004549555555555555555555555555554DA6
:101E1000510000BFD1F80C9046E000BF4FF6FF72B2
:101E2000C1F2210296420FDC0022C1F21102964259
:101E30001AD00022C1F21202964215D00022C1F23D
:101E40002102964210D02FE00022C1F222029642D7
:101E50000AD00022C1F23102964205D00022C1F21E
:101E60003202964220D100BF8A684AB1012A14BFCB
:101E7000C0F81480C0F810804FF0080914E000BFCB
:101E80004FF0040910E000BFCA6802F108090BE036
:101E90004FF0000908E000BFCA6802F1040903E03E
:101EA000CA6802F10C0900BF22460646BAF1080FC3
:101EB00024BF203A043637680F25954027EA0505E8
:101EC00009FA02F22A433260CA79D2067FF582AF5C
:101ED00041F21803C4F202031A6842F001021A60C8
:101EE0001A6802F001020192019A40F20042C4F223
:101EF0000102A2F57E762AF0030256F802B040F6FF
:101F00000002C4F20102904210D040F60042C4F236
:101F1000010290423FF422AF41F20002C4F20102FA
:101F2000009F904208BF022719E700BF002716E76D
:101F300002B0BDE8F08F00008068084018BF0120A3
:101F400070470000002A08BF0904016170470000C3
:101F500040F29C10C2F200000068704740F2280076
:101F600040F29C11C2F20000C2F2000100780A683F
:101F7000104408607047000080B542F20000C4F2CF
:101F80000200016841F010010160032000F08EF8AA
:101F90000F2000F005F800F027F8002080BD0000B9
:101FA00070B540F22806C2F2000640F230013278E5
:101FB000C2F200014FF47A730968B3FBF2F20446EF
:101FC000B1FBF2F1084600F063FB0F2C4FF0010566
:101FD00008D838B94FF0FF3021460022002500F024
:101FE00039F87460284670BD82B041F21800C4F21E
:101FF00002000168022241F001010160016801F064
:10200000010101910199416841F0805141604068AE
:1020100000F08050009000980420C4F20100016894
:1020200062F31A61016002B070470000002848BFE7
:102030007047C1B200F01F00012202FA00F04EF218
:102040000012CEF2000242EAD10121F00301086041
:102050007047000010B54EF60C5CCEF2000CDCF8B8
:102060000030C3F3022E8EF00704042C28BF042492
:10207000BEF103034FF0FF3E0EFA04F438BF002315
:10208000A14399400EFA03F39A43114300F00F0263
:1020900000F160430901043A03F5644362440028F7
:1020A00048BF02F10C03197010BD00004EF60C5130
:1020B000CEF200010A684FF6FF031A4060F30A22CD
:1020C00042F0806040F0FD70086070472DE9F043F9
:1020D00081B0002800F0858042F20008C4F20208B6
:1020E0000446D8F800000D4600F0070088420CD2E4
:1020F000D8F8000020F007002843C8F80000D8F8FE
:10210000000000F00700A8426BD1206841F20409EA
:102110008107C4F2020917D5410705D5D9F8001087
:1021200041F4E061C9F80010010705D5D9F80010A5
:1021300041F46051C9F80010D9F80010A26821F0EC
:10214000F0011143C9F80010C00741D1D8F80000D0
:1021500000F00700A8420CD9D8F8000020F00700D2
:102160002843C8F80000D8F8000000F00700A84293
:1021700037D12068410707D5D9F80010E26821F46B
:10218000E0611143C9F80010000708D5D9F8000034
:10219000216920F4605040EAC100C9F80000D9F874
:1021A000002002F00C00082841F20020C0F27A0062
:1021B00050D143F28863C2F38341C0F60003595CF7
:1021C000D2033BD440F60010C0F23D00484341E04A
:1021D000606802280AD001282AD159F8041C890312
:1021E00008D4012001B0BDE8F08300BF59F8041CF9
:1021F0008901F6D5D9F8001021F003010843C9F888
:102200000000FFF7A5FE064641F28837D9F8000026
:10221000616800F00C00B0EB810F97D0FFF798FEDB
:10222000801BB842F2D9032001B0BDE8F08300BFA3
:1022300059F8041C8907D4D5DCE700BFD9F8002081
:1022400043F26E63C2F34042C0F600039A5C484317
:10225000B0FBF2F0D9F8001043F27062C1F3031141
:10226000C0F60002515C40F2300220FA01F140F267
:102270002C00C2F200000068C2F200021160FFF7F9
:102280008FFE002001B0BDE8F083000040F2300076
:1022900041F20401C2F20000C4F2020100680968C0
:1022A00043F28062C1F30221C0F60002515CC840D3
:1022B0007047000040F2300041F20401C2F2000019
:1022C000C4F202010068096843F28062C1F3C221CE
:1022D000C0F60002515CC840704700002DE9F04193
:1022E00082B0002868D00446007841F20006C0079A
:1022F000C4F2020625D0706800F00C0004281BD040
:10230000706800F00C00082802D17068C00313D474
:102310006068002800F06881B0F5A02F00F07C8193
:10232000B0F5803F00F07C81306820F48030306070
:10233000306820F4802076E13068800301D5606841
:10234000D0B32078800718D5706810F00C0F07D034
:10235000706800F00C0008286ED17068C0036BD460
:102360003068800702D52069012825D1306861696D
:1023700020F0F80040EAC1003060207800071FD448
:102380002078400732D4E56995B1706800F00C0000
:10239000082840F08F80012D0ED07068216A00F46B
:1023A00080328A4208D1616A00F47010884203D1F9
:1023B000002002B0BDE8F081012002B0BDE8F0814C
:1023C000A069002862D00020C4F242200121C0F898
:1023D0008014FFF7BDFD0546706A800700F18C8010
:1023E000FFF7B6FD401B0228F6D92AE1F06910F08C
:1023F000805808D1F06940F08050F061F06900F039
:1024000080500090009847F20007C4F20007386837
:10241000C00529D4386840F480703860FFF798FD13
:10242000054600BF3868C0051ED4FFF791FD401B6C
:102430006428F7D905E100BF2069002840F20000B8
:10244000C4F2422000F0828001210160FFF780FD8C
:10245000054600BF306880073FF588AFFFF778FD7D
:10246000401B0228F6D9ECE0E068002800F08080EC
:10247000052800F09780012800F09880306A20F04D
:1024800001003062306A20F0040092E00020C4F2C3
:1024900042200021C0F88014FFF75AFD054600BF16
:1024A000706A80077FF56CAFFFF752FD401B022872
:1024B000F6D9C6E00027C4F2422700203866FFF7AD
:1024C00047FD022D05460BD13068800140F1BE80EA
:1024D000FFF73EFD401B02284FF00300F4D968E7E8
:1024E000306880017FF564AFFFF732FD401B0228A2
:1024F0004FF00300F4D95CE740F23000C2F2000074
:10250000006844F6D351C1F26201A0FB0101480A00
:10251000019000BF00BF0198411E002801913FF4C7
:102520002FAF00BF0198411E002801913FF428AF52
:1025300000BF0198411E002801913FF421AF00BF68
:102540000198411E00280191E4D119E700210160A2
:10255000FFF7FEFC054600BF306880077FF50DAF32
:10256000FFF7F6FC401B02284FF00300F4D920E7E8
:10257000306A20F001003062306A20F004003062DE
:10258000FFF7E6FC054641F2883700BF306A800756
:1025900020D5FFF7DDFC401BB8424FF00300F5D912
:1025A00007E700BF306A40F004003062306A40F054
:1025B00001003062FFF7CCFC054641F2883700BFCE
:1025C000306A800706D4FFF7C3FC401BB842F7D936
:1025D00037E000BFB8F1000F7FF4D5AEF06920F00E
:1025E0008050F061CFE600BF306820F4803030606A
:1025F000306820F480203060FFF7AAFC054600BF59
:10260000306880037FF59DAEFFF7A2FC401B642875
:102610004FF00300F4D9CCE6306840F480203060FD
:10262000306840F480303060FFF792FC054600BF10
:10263000306880033FF585AEFFF78AFC401B6428B5
:10264000F6D9032002B0BDE8F08100BF206AB0F5E2
:10265000803F05D17168A26821F400311143716097
:102660007168626A21F4741111430843706001209B
:102670003866FFF76DFC0446306880013FF598AE80
:10268000FFF766FC001B02284FF00300F4D990E628
:10269000411E0020B0EB116F1CBF012070474EF2AD
:1026A0001002CEF2000251604EF62351CEF200012C
:1026B000F0230B70072190601160704710B590F8FF
:1026C0003C20012A4FF0020233D080F83D200268FE
:1026D000D2F804E0D2F808C00C682EF0700323434F
:1026E00040F2FF74C4F20004A24253600ADCB2F16B
:1026F000804F13D040F20043C4F200039A420DD041
:1027000011E000BF42F60043C4F201039A4205D033
:1027100040F60003C4F200039A4204D149682CF049
:102720008003194391600121002280F83D1080F858
:102730003C20104610BD0000002804BF0120704757
:1027400010B5044690F83D0028B9002084F83C00FC
:10275000204600F067F8022084F83D00206840F22F
:10276000FF730268C4F2000342F6004C9842C4F2C0
:10277000010C15DCB0F1804F1AD040F20041C4F2D8
:102780000001884214D0984218DCB0F1804F1DD06F
:1027900040F20041C4F20001884217D01AE000BFA5
:1027A000604505D040F60001C4F200018842EAD13C
:1027B000A16822F070020A439842E6DD604505D028
:1027C00040F60001C4F20001884203D1216922F4DD
:1027D00040720A43A36922F08001D4F804E0E26861
:1027E000194360450160C262C0F828E002D1616906
:1027F000CCF8301001214161002084F8461084F8A3
:102800003E1084F83F1084F8401084F8411084F89A
:10281000421084F8431084F8441084F8451084F87A
:102820003D1010BD82B0006840F20041C4F20001CA
:10283000884211D0B0F1804F1BD141F21C00C4F28C
:102840000200016841F001010160006800F0010030
:102850000190019802B0704741F21C00C4F20200DE
:10286000016841F002010160006800F00200009080
:10287000009802B07047000090F83D1001291CBF7D
:1028800001207047022180F83D10006840F2FF727D
:10289000C168C4F20002904241F00101C16009DC4C
:1028A000B0F1804F12D040F20041C4F200018842E2
:1028B0000CD012E042F60041C4F20101884205D07A
:1028C00040F60001C4F20001884206D1816801F09F
:1028D0000701062904BF00207047016841F001018B
:1028E00001600020704700000146006841F21113AA
:1028F000C26822F00102C260026A1A4204D00122B8
:10290000002081F83D207047026A40F244431A4299
:10291000F5D1026822F0010202600122002081F854
:102920003D20704780B590F83C20012A4FF002020C
:1029300000F0BF8080F83D20D0F800C04FF67772DD
:10294000DCF8083023EA0202CCF808200B683F2BA1
:102950001CDD5F2B20DD602B50D0B3F5005F6DD008
:10296000702B40F0A080D1E901E3C968DCF80820B1
:1029700043EA0E0322F47F4243EA01211143CCF8DB
:102980000810DCF8081041F077018AE01F2B29DCE1
:1029900063B3102B2AD086E0402B63D0502B40F03D
:1029A0008280D1F804E0C968DCF82030DCF820200F
:1029B00022F00102CCF82020DCF8182022F0F002EE
:1029C00042EA011123F00A0242EA0E02CCF8181082
:1029D000CCF82020DCF8081041F0570121F020014C
:1029E0005FE000BF202B01D0302B5CD1DCF8081059
:1029F00021F07001194341F0070152E0D1F804E0E1
:102A0000C968DCF8203023F01003CCF82030DCF863
:102A10001830DCF8202023F4704322F0A00243EAAF
:102A2000013142EA0E12CCF81810CCF82020DCF864
:102A3000081041F0670121F0100132E0D1E901E313
:102A4000C968DCF8082043EA0E0322F47F4243EA17
:102A500001211143CCF80810DCF8081041F4804142
:102A60001FE000BFD1F804E0C968DCF82030DCF8D2
:102A7000202022F00102CCF82020DCF8182022F0DF
:102A8000F00242EA011123F00A0242EA0E02CCF8F7
:102A90001810CCF82020DCF8081041F0470121F094
:102AA0003001CCF808100121002280F83D1080F898
:102AB0003C20104680BD00007047000070470000B9
:102AC000B0B582B0026805461068D368546900F05A
:102AD0002F01202903F0200106D129B1284602B098
:102AE000BDE8B04000F032BC5FEA007C1EBF04F0DD
:102AF000010E03F4907414EB0E0453D1296B0129D9
:102B000005D110F0100118BF13F0100136D10106E5
:102B100022D513F080011FD095F83D0021283FD128
:102B2000A868B0F5805F03D12869002800F0F8801C
:102B3000286A411C296200785060E88C0138010441
:102B4000E8842DD1D06820F08000D060D06840F0BB
:102B50004000D06002B0B0BD400621D513F0400067
:102B60001ED0D068202120F04000D060284685F893
:102B70003D1002B0BDE8B04000F0C2BA00200190A4
:102B8000106801905068019001985069400611D476
:102B9000A88DE98DEB8D002B18BF884240F0A680F0
:102BA00002B0B0BDC40718BF13F480732CD1430723
:102BB00030D436E0A86B01684B689CB2002CEFD093
:102BC000A98D8C42ECD2EB858369202B17D0D1687C
:102BD00021F48071D160516921F001015161516985
:102BE00021F040015161202185F83E100021296328
:102BF000D16821F01001D160FFF716F8A98DE88D9A
:102C0000081A81B2284685E02B6C43F001032B643F
:102C1000430706D5BEF1000F03D02B6C43F002032F
:102C20002B64830706D5BEF1000F03D02B6C43F055
:102C300004032B64BCF1000F09D541EA0E03B3FA7B
:102C400083F35B0903D12B6C43F008032B642B6CDB
:102C5000002BA5D010F0200018BF002903D0284673
:102C600000F074FB2A685069296C00F0400001F004
:102C7000080140182CD0D06820F49070D0605069C2
:102C800020F001005061286B012803D1D06820F0AA
:102C90001000D060202085F83E0000202863506995
:102CA00040061DD5506920F040005061A86BB8B1B6
:102CB00043F24131C0F600014163FEF7D9FF00281D
:102CC0003FF46EAFA86B416B02B0BDE8B04008475F
:102CD0002846FFF7F3FE0020286402B0B0BD00BF15
:102CE000284602B0BDE8B040FFF7E8BED368401AFE
:102CF00023F49073D360536981B223F001035361CD
:102D0000202385F83E3000232B63D368284623F028
:102D10001003D36002B0BDE8B040FFF7CDBE00BFE6
:102D2000286A30F8021B6FF35F215160286204E7C4
:102D3000002804BF0120704710B5044690F83D00FC
:102D400028B9002084F83C00204600F061F82420D7
:102D500084F83D002068D4E90212C36823F40053CC
:102D6000C360036923F440531A430261D4E9042386
:102D70001143C268194341F20C639A431143C16085
:102D80004169A26921F44071114343F60002C4F283
:102D900001029042416103D0FFF778FA02E000BFE0
:102DA000FFF788FA6268192148439100B0FBF1F0FF
:102DB00048F21F51C5F2EB11A0FB01235A094FF64F
:102DC0009C73C0F6FF7302FB0300322303EB001079
:102DD000A0FB0101F02303EA5113206803EB021268
:102DE000C1F3431111448160016921F490410161F3
:102DF000416921F02A014161C16841F40051C1607B
:102E000000202021206484F83D1084F83E1010BD7D
:102E100070B586B040F60004C4F20104006804F501
:102E2000405100268842049602D006B070BD00BF13
:102E300041F21800C4F20200016802AD41F4804181
:102E40000160016801F4804101910199016841F03C
:102E5000040101600068294600F004000190019817
:102E60004FF400700290022003900320059020464A
:102E7000FEF754FF4FF48060CDE902062046294654
:102E80000496FEF74BFF252000210022FFF7E2F811
:102E90002520FFF7CBF806B070BD0000034690F880
:102EA0003E0020280AD100294FF0010018BF002A57
:102EB00000D1704793F83C00012801D102207047EF
:102EC00000201863996222219A85DA85186483F8B4
:102ED0003E10196883F83C00CA6842F48072CA60E8
:102EE0004A6942F001024A61CA6842F02002CA609F
:102EF00070470000B0B540F29805C2F200052C1DE5
:102F00002046FEF77FFA05F12C0021460422BDE899
:102F1000B040FFF7C3BF00002DE9F041044690F830
:102F20003D0020280ED10D4600294FF0010000F091
:102F30008E801646002A08BFBDE8F08194F83C0058
:102F4000012803D10220BDE8F08100BF012084F8F0
:102F50003C00002020642120984684F83D00FEF7C4
:102F6000F7FFA684E684A1680646B1F5805F03D129
:102F70002069002800F0A0802F460025002084F85A
:102F80003C00E08CE0B118F101001BD0B8F1000F5B
:102F900060D120680BE000BF35F8021B00276FF3FB
:102FA0005F214160E18C0139E184E18C51B301681A
:102FB00009066DD5002FEFD017F8011BF1E700BF10
:102FC00020681FE0206802E00168090609D4016852
:102FD000090606D4016809065CBF01685FEA016161
:102FE000F2D51FB117F8011B05E000BF35F8021B31
:102FF00000276FF35F214160E18C0139E184E18CAE
:103000000029E4D1016849061DD4B8F1000F3FD072
:1030100018F101010ED10168490614D4016849066E
:103020005CBF01685FEA41610DD401684906F2D5D1
:1030300009E000BFFEF78CFF811B2068414527D8BF
:1030400000684006F6D5202084F83D000020BDE849
:10305000F08100BF206800BF0168090606D4FEF7B2
:1030600077FF811B20684145F6D911E017B117F8A9
:10307000011B04E035F8021B00276FF35F2141605C
:10308000E18C0139E184E18C0029E5D1BAE700BF88
:10309000C16821F4D071C160416921F00101416131
:1030A000202084F83D0084F83E00002084F83C0095
:1030B0000320BDE8F08100BF00275FE7034690F8DA
:1030C0003D0020280AD100294FF0010018BF002A36
:1030D00000D1704793F83C00012801D102207047CD
:1030E0001962002021219A84DA84186483F83D1043
:1030F000196883F83C00CA6842F08002CA607047D1
:1031000040F20000C2F20000012141777047000048
:10311000FEE70000FEE70000FEE700007047000049
:10312000F0B581B0242640F20C150446C4F2000626
:103130000020C2F2000530602846FFF79DFB40F2F8
:103140000007C2F2000797F90E10786A89B20022D0
:10315000FEF7F8FE397B7A7B786A114349B289B26F
:103160000122FEF7EFFE2846FFF786FB40F29805A6
:10317000C2F200052878A8B1306840F20C10C2F203
:103180000000FFF7B1FB397B7A7BBB7B114319430E
:10319000786A49B289B20022FEF7D4FE30686880AE
:1031A00001B0F0BD3068A042E7D23068A042E4D25E
:1031B0003068A042E1D23068A042F3D3DDE70000DE
:1031C00070470000B0B51D2888BFB0BD0C4640F266
:1031D0000005C2F20005DFE800F00F151AADAD20C2
:1031E000262B30363C41474D53585E64696F747AE4
:1031F0007F858B90969BA0A52101687CCAB2302167
:10320000FDF720F8687CE2B20F21FDF71BF8E10121
:10321000687CCAB28021FDF715F86100687CCAB2EB
:103220000221FDF70FF8687CE2B20121FDF70AF8F0
:10323000287CE2B20321FDF705F8A100287CCAB280
:103240000421FCF7FFFFE100287CCAB20821FCF74B
:10325000F9FFA87CE2B20721FCF7F4FFE100A87CAB
:10326000CAB20821FCF7EEFF2101A87CCAB21021E6
:10327000FCF7E8FF6101A87CCAB2E021FCF7E2FF9D
:10328000E87EE2B2FF21FCF7DDFF2101E87CCAB253
:103290007021FCF7D7FFE101E87CCAB28021FCF77E
:1032A000D1FF687DE2B20F21FCF7CCFF2101687DE0
:1032B000CAB2F021FCF7C6FFA87DE2B20F21FCF7ED
:1032C000C1FF2101A87DCAB2F021FCF7BBFFE87D58
:1032D000E2B20721FCF7B6FFE100E87DCAB238216F
:1032E000FCF7B0FFE101287ECAB28021FCF7AAFFFB
:1032F000287EE2B21F21FCF7A5FFE101687ECAB279
:103300008021FCF79FFF687EE2B21F21FCF79AFF45
:10331000A87EE2B2FF21FCF795FFE87EE2B2FF2132
:10332000FCF790FF287FE2B2FF21BDE8B040FCF738
:1033300089BF00BFB0BD0000FEF710BE704700009F
:10334000406A0021C185C184FFF7B8BB81B090F805
:103350003E10222921D183680246B3F5805F09D14E
:1033600052F8281F52F8183C002B3FD003685B68C6
:103370000AE000BF52F8281F13B90369002BF5D0EB
:1033800003685B6803F07F030B7011680131116003
:10339000C18D01390A04C18502D001B0704700BF58
:1033A0000168CA6822F02002CA60CA6822F48072EA
:1033B000CA604A6922F001024A61202280F83E2058
:1033C000026B012A1AD100220263CB6823F010039A
:1033D000CB600B68DB0605D500920A68009249684D
:1033E00000910099818D01B0FFF766BB02685268B9
:1033F0006FF35F2221F8022B8162C9E701B0FFF76A
:1034000079BD000040F2C400C2F20000FFF758BBD3
:10341000FEE7000090B0FEF7AFFD00240120CDE9EB
:103420000B44CDE909440A9010200B904FF4601032
:1034300002250F9006A8CDE907440695CDE90D5465
:10344000FEF74CFF20B1EFF3108072B6FEE700BF2D
:103450000F20CDE900054FF4E060CDE90304684694
:1034600002210294FEF732FE20B1EFF3108072B613
:10347000FEE700BF002741F218000997C4F20200DE
:10348000016840F6000841F0040101600168C4F2DF
:10349000010801F00401009100990168002241F047
:1034A000080101600068AC2100F00800009000985D
:1034B0004046FEF747FD4046502101220124FEF719
:1034C00041FD08F580652846382100224FF0380973
:1034D000FEF738FD06AE4FF0030B4FF0020A4046F0
:1034E0003146CDE906B7CDF820A0FEF717FC0C2039
:1034F00006A981E8910840463146FEF70FFCB0204E
:1035000006A981E8910440463146FEF707FC4020B9
:10351000CDE9060440463146CDE9084BFEF7FEFBF7
:1035200028463146CDE90694CDE9087AFEF7F6FB48
:1035300040F20C10C2F200004FF080414FF6FF73D2
:103540000997CDE90777CDE9007741F63F7280E82A
:103550008600C0E903378761FFF7EEF820B1EFF38B
:10356000108072B6FEE700BF4FF48050069040F224
:103570000C10C2F2000006A9FFF7D4F920B1EFF356
:10358000108072B6FEE700BF40F20C10C2F20000DD
:103590006946FFF793F828B1EFF3108072B600BFC9
:1035A000FEE700BF40F29805C2F2000508F5405161
:1035B000284640F82C1F4FF4E13100240C22C0E9CA
:1035C0000114C0E90344C0E90524C461FFF7B0FB5E
:1035D00020B1EFF3108072B6FEE700BF40F2541046
:1035E000A8F58231C2F200004FF6FF720994CDE9CE
:1035F0000744CDE90044C0E90014C0E90242046177
:103600008461FFF799F828B1EFF3108072B600BF1C
:10361000FEE700BF4FF48050069040F25410C2F213
:10362000000006A9FFF77EF920B1EFF3108072B613
:10363000FEE700BF40F25410C2F200006946FFF7F7
:103640003DF828B1EFF3108072B600BFFEE700BF6F
:1036500005F12C040435204629460422FFF71EFC00
:10366000204629460422FFF729FD00BFFEE701029C
:103670000000000000000000010203040607080922
:103680000000000001020304020304050607080904
:103690000A0B0C0D0E0F1010B836000800000020A9
:1036A0003800000028010008F0360008380000202B
:1036B000680700004401000806080A1719200102E3
:1036C000040810202010080102030405060D0E0F47
:1036D000101112131401000000080140000C0140F9
:1036E00001000000100000000024F40000000000B1
:04000005080000ED02
:00000001FF
