:020000040800F2
:10000000A807002089010008852800087D2800082D
:1000100081280008A9080008E92B0008000000005A
:100020000000000000000000000000008D29000812
:10003000590C00080000000089280008052B000862
:10004000A3010008A3010008A3010008A301000800
:10005000A3010008A3010008A3010008A3010008F0
:10006000A3010008A3010008A3010008A3010008E0
:10007000A3010008A3010008A3010008A3010008D0
:10008000A3010008A3010008A3010008A3010008C0
:10009000A3010008A3010008A3010008A3010008B0
:1000A000A3010008A3010008A3010008A3010008A0
:1000B0000D2B0008A3010008A3010008A3010008FC
:1000C000A3010008A3010008A3010008A301000880
:1000D000A3010008DD2B0008A3010008A30100080C
:1000E000A3010008A3010008A301000800F002F822
:1000F00000F03AF80AA090E8000C82448344AAF188
:100100000107DA4501D100F02FF8AFF2090EBAE885
:100110000F0013F0010F18BFFB1A43F0010318473B
:10012000502D0000702D0000103A24BF78C878C10F
:10013000FAD8520724BF30C830C144BF04680C60ED
:10014000704700000023002400250026103A28BF35
:1001500078C1FBD8520728BF30C148BF0B60704739
:100160001FB51FBD10B510BD00F031F81146FFF7E7
:10017000F7FF02F03BFD00F04FF803B4FFF7F2FF8A
:1001800003BC00F057F800000948804709480047C1
:10019000FEE7FEE7FEE7FEE7FEE7FEE7FEE7FEE737
:1001A000FEE7FEE704480549054A064B7047000094
:1001B000092B0008ED000008A8010020A807002076
:1001C000A8030020A80300207047704770477546B9
:1001D00000F02CF8AE4605006946534620F00700B3
:1001E000854618B020B5FFF7DDFFBDE820404FF091
:1001F00000064FF000074FF000084FF0000BAC4630
:10020000ACE8C009ACE8C009ACE8C009ACE8C0097A
:1002100021F007018D46704710B50446AFF300800A
:100220002046BDE81040FFF7A8BF00000048704717
:100230003800002001491820ABBEFEE7260002006E
:1002400070470000F0B581B040F20007C2F200072D
:1002500015460C4679793A6A97F90A300E1899B220
:100260001046002201F046F970B200F009FA0020B1
:1002700000F006FA00F0FCF83A6A97F90A10064610
:1002800089B21046012201F035F997F90A3005EAE2
:10029000040126EA0402386A541899B2002201F0D7
:1002A00029F9002000F0ECF9002000F0E9F960B233
:1002B00000F0E6F997F90A10386A89B2012201B014
:1002C000BDE8F04001F016B92DE9F04182B040F2EE
:1002D0000006C2F20006707C402100220027FFF7D2
:1002E000B1FF2420C4F20000076096F90E1040F21E
:1002F0009805706AC2F2000589B200222F612F7042
:100300006F6001F0F7F8317B727B706A114349B27C
:1003100089B2012201F0EEF840F21410C2F200009E
:1003200001F090FD00F00AFAD5E9010188423DD2C2
:1003300005F134040DF104080BE000BF96F90A1032
:10034000306A89B2012201F0D5F8D5E9010188426D
:100350002CD296F90610306A89B201F0C5F800284F
:10036000F3D196F90A10306A89B2002201F0C2F87E
:1003700000F07EF800F07CF88DF8040000F078F8CA
:100380008DF8050000F074F88DF8060000F070F8A4
:100390008DF8070000F06CF8707F0028CED0204662
:1003A00041460422777702F03FFAC7E796F90B102F
:1003B000306A89B2002201F09DF8317B727BB37BF9
:1003C00011431943706A49B289B2002201F092F8D0
:1003D00040F21410C2F2000001F06CFD02B0BDE862
:1003E000F081000010B582B040F20004C2F20004B7
:1003F000607C40214022FFF725FF00F09FF900BFFD
:1004000094F90610206A89B201F06EF80028F7D13D
:1004100094F90A10206A89B2002201F06BF800F00A
:1004200027F800F025F88DF8040000F021F88DF889
:10043000050000F01DF88DF8060000F019F88DF8A1
:10044000070000F015F840F29800C2F200003430C6
:1004500001A904224FF6FF7302F014F994F90A106F
:10046000206A89B2012201F045F802B010BD0000F7
:100470002DE9F04740F2244740F2000A40F25C19AF
:100480004FF00008C4F20007C2F2000AC2F20009ED
:100490000024002607E000BF48462C4301F00AFD77
:1004A0000136082E40D09AF90910DAF8200089B2F6
:1004B000012201F01FF89AF90710DAF8200089B23A
:1004C00001F012F805464846C7F8008001F0BAFC72
:1004D0003868012808D83868012805D83868012804
:1004E00002D838680228F3D34846B54001F0E2FC50
:1004F0009AF90910DAF8200089B2002200F0FAFF18
:100500004846C7F8008001F09DFC00BF386801280C
:10051000C2D838680128BFD838680128BCD83868E4
:100520000228F3D3B8E700BFE0B2BDE8F0870000CF
:10053000B0B540F20004C2F200046179227D94F962
:100540000A30206A8D1899B2002200F0D3FF68B2F9
:1005500000F096F8002000F093F8FFF789FF94F977
:100560000A10206A89B2012200F0C4FF6179627C1E
:1005700094F90A30206A8D1899B2002200F0BAFF6F
:1005800068B200F07DF8002000F07AF8FFF770FF05
:1005900094F90A10206A89B2012200F0ABFF94F9A5
:1005A0000A10206A89B2002200F0A4FF002000F0A7
:1005B00067F8002000F064F84FF0FF3000F060F8BA
:1005C00094F90A10206A89B2012200F093FF94F98D
:1005D0000A10206A89B2002200F08CFF002000F08F
:1005E0004FF8002000F04CF8002000F049F894F992
:1005F0000A10206A89B2012200F07CFF94F90A10E7
:10060000206A89B2002200F075FF94F9040000F01E
:1006100037F894F90A10206A89B2012200F06AFFC3
:1006200094F90A10206A89B2002200F063FF0020CA
:1006300000F026F8002000F023F8002000F020F859
:1006400094F90A10206A89B2012200F053FF94F94C
:100650000A10206A89B2002200F04CFF002000F04E
:100660000FF8002000F00CF8002000F009F894F9D1
:100670000A10206A89B20122BDE8B04000F03ABFFA
:100680002DE9F04381B040F2244640F2000740F2E9
:100690005C158146C4F200064FF00008C2F2000764
:1006A000C2F2000500240CE0284601F003FC97F993
:1006B0000910386A89B2002200F01CFF0134082CAE
:1006C00038D097F9083029FA04F1386A01F00102AC
:1006D00099B200F00FFF2846C6F8008001F0B2FB87
:1006E0003068012808D83068012805D8306801280A
:1006F00002D830680228F3D3284601F0DBFB97F9D3
:100700000910386A89B2012200F0F4FE2846C6F8C2
:10071000008001F097FB00BF30680128C4D8306822
:100720000128C1D830680128BED830680228F3D328
:10073000BAE700BF01B0BDE8F0830000F0B581B0BA
:1007400040F20005C2F2000595F90B10286A40F24C
:10075000244689B20122C4F2000600F0CBFE00203C
:10076000306040F25C10C2F2000001F06BFB00BF91
:100770003068042808D83068042805D83068042870
:1007800002D830680528F3D340F25C14C2F20004AA
:10079000204601F08FFB95F90B10286A89B20022E0
:1007A000002700F0A7FE2046376001F04BFB00BF9A
:1007B0003068042808D83068042805D83068042830
:1007C00002D830680528F3D340F25C10C2F2000072
:1007D00001F070FB95F90B10286A89B2012201B073
:1007E000BDE8F04000F086BEB0B540F20004C2F2B1
:1007F00000046179227D94F90A30206A8D1899B23B
:10080000002200F077FE68B2FFF73AFF0020FFF702
:1008100037FFFFF72DFE94F90A10206A89B20122F2
:1008200000F068FE94F90A10206A89B2002200F0F4
:1008300061FE0020FFF724FF0020FFF721FF0A20C0
:10084000FFF71EFF94F90A10206A89B2012200F016
:1008500051FE94F90A10206A89B2002200F04AFE83
:1008600094F90300FFF70CFF94F90A10206A89B28B
:10087000012200F03FFE94F90A10206A89B200229A
:1008800000F038FE0020FFF7FBFE0020FFF7F8FE27
:100890000020FFF7F5FE94F90A10206A89B20122C0
:1008A000BDE8B04000F026BEFEE7000070B504468B
:1008B0000078102800F2A881DFE810F012009600FE
:1008C000CC00D0001E00D400EA00EC000C01920124
:1008D000A80122004200B2016E00CA01920000BFCE
:1008E00040F29801C2F2000101F134000C310422FF
:1008F000BDE8704001F098BFBDE87040FFF718BE3A
:100900004FF6004040F22441CFF6FF70C4F20001E0
:10091000002240F200040A50C2F2000440F29801A2
:1009200094F90E30C2F20001606A4A6099B2002266
:1009300000F0E0FD217B627B606A11431EE000BF96
:100940004FF6004040F22441CFF6FF70C4F20001A0
:10095000002240F200040A50C2F2000440F2980162
:1009600094F90C30C2F20001606A4A6099B2002228
:1009700000F0C0FD617BA27B606A114349B289B27D
:10098000012200F0B7FD40F21410C2F20000BDE8F1
:10099000704001F057BA00BF40F20001C2F20001FE
:1009A0000A7B4B7B486A897B1A43114349B289B25F
:1009B000002200F09FFD40F21410C2F2000001F08E
:1009C00079FA40F29801C2F2000151F8043F042282
:1009D00001F130004B60BDE8704001F025BF00BF61
:1009E000BDE8704001F052BF40F20005C2F20005C0
:1009F00095F90A10286A40F2244489B20022C4F210
:100A00000004002600F076FD95F90000FFF738FE9F
:100A100095F90A10286A89B2012200F06BFD40F2B4
:100A20005C10C2F20000266001F00CFA2068082871
:100A300008D82068082805D82068082802D8206827
:100A40000928F3D340F25C10C2F20000BDE8704008
:100A500001F030BABDE87040FFF736BCBDE8704029
:100A6000FFF7C0BC40F20005C2F2000595F90A107C
:100A7000286A89B2002200F03DFD95F90300FFF7D6
:100A8000FFFD95F90A10286A89B2012200F032FDB3
:100A9000FFF7AAFE40F20005C2F2000595F90A1020
:100AA000286AE47889B2002200F024FD0020FFF7D4
:100AB000E7FD0020FFF7E4FDE0074FF0070008BF67
:100AC0000320FFF7DDFD95F90A10286A89B201229B
:100AD00000F010FD002000F0C1F840F29804C2F2CE
:100AE000000404F8140F012000F0B8F86070022030
:100AF00000F0B4F8A070032000F0B0F8E07004201B
:100B000000F0ACF82071052000F0A8F86071062014
:100B100000F0A4F8A071072000F0A0F8E071082010
:100B200000F09CF82072092000F098F860720A200A
:100B300000F094F8A0720B2000F090F8E0720C2006
:100B400000F08CF820730D2000F088F860730E2000
:100B500000F084F8A0730F2000F080F8E0731020FC
:100B600000F07CF82074112000F078F860741220F6
:100B700000F074F8A074132000F070F8E0741420F2
:100B800000F06CF82075152000F068F860751620EC
:100B900000F064F8A075172000F060F8E0751820E8
:100BA00000F05CF82076192000F058F860761A20E2
:100BB00000F054F8A0761B2000F050F8E0761C20DE
:100BC00000F04CF820771D2000F048F8034604F1AF
:100BD000200021461E226377BDE8704001F024BE4C
:100BE000E0781D2810D800F039F840F29806034646
:100BF000C2F2000606F1140106F1340001227375F9
:100C0000BDE8704001F010BE70BD00BFE1781D2945
:100C100088BF70BDA07849B2BDE8704001F0B8BE91
:100C20004FF6004040F22441CFF6FF70C4F20001BD
:100C300000220A5040F29801C2F2000140F2141062
:100C4000C2F200004A60BDE8704001F0FBB800BF8E
:100C5000BDE8704001F05ABE70470000B0B51D28D5
:100C600028D8DFE810F02B004F0057005F006F001E
:100C70007F00A300C700EB000F0117011F01430114
:100C800067011F008901AD01B501BD01C501E90181
:100C9000F101150239024102970249026D021F005B
:100CA000750200BF40F20004C2F200046179E27EE6
:100CB00054E200BF002460B2B0BD00BF40F20004A7
:100CC000C2F200046179627C94F90A30206A8D18BE
:100CD00099B2002200F00EFC68B2FFF7D1FC0020B0
:100CE000FFF7CEFCFFF7C4FB226A94F90A10044612
:100CF00089B21046012200F0FDFBC4F3011460B27A
:100D0000B0BD00BF40F20004C2F200046179627C11
:100D100074E100BF40F20004C2F200046179627C19
:100D20003EE200BF40F2101040F20004C2F20000A8
:100D3000C2F2000401786279206A94F90A305518E9
:100D400002E100BF40F2101040F20004C2F20000C5
:100D5000C2F2000401786279206A94F90A305518C9
:100D6000D4E100BF40F20004C2F200046179E27BEA
:100D700094F90A30206A8D1899B2002200F0BAFB6B
:100D800068B2FFF77DFC0020FFF77AFCFFF770FBED
:100D9000226A94F90A10044689B21046012200F032
:100DA000A9FBC4F3400460B2B0BD00BF40F2000430
:100DB000C2F200046179627C94F90A30206A8D18CD
:100DC00099B2002200F096FB68B2FFF759FC0020B0
:100DD000FFF756FCFFF74CFB226A94F90A10044611
:100DE00089B21046012200F085FB04F0010460B2D4
:100DF000B0BD00BF40F20004C2F200046179227C61
:100E000094F90A30206A8D1899B2002200F072FB22
:100E100068B2FFF735FC0020FFF732FCFFF728FB34
:100E2000226A94F90A10044689B21046012200F0A1
:100E300061FB04F0030460B2B0BD00BF40F20004E7
:100E4000C2F200046179227C94F90A30206A8D187C
:100E500099B2002200F04EFB68B2FFF711FC0020AF
:100E6000FFF70EFCFFF704FB226A94F90A10044610
:100E700089B21046012200F03DFBC4F3800460B249
:100E8000B0BD00BF40F20004C2F200046179227CD0
:100E90000EE000BF40F20004C2F200046179A27CBF
:100EA000D8E000BF40F20004C2F200046179A27CE5
:100EB00094F90A30206A8D1899B2002200F01AFBCA
:100EC00068B2FFF7DDFB0020FFF7DAFBFFF7D0FA8F
:100ED000226A94F90A10044689B21046012200F0F1
:100EE00009FBC4F3C00460B2B0BD00BF40F200040F
:100EF000C2F200046179A27C94F90A30206A8D184C
:100F000099B2002200F0F6FA68B2FFF7B9FB0020B0
:100F1000FFF7B6FBFFF7ACFA226A94F90A10044611
:100F200089B21046012200F0E5FAC4F3001460B261
:100F3000B0BD00BF40F20004C2F200046179A27C9F
:100F4000206A94F90A308D1899B2002200F0D2FA82
:100F500068B2FFF795FB0020FFF792FBFFF788FAD6
:100F6000226A94F90A10044689B21046012200F060
:100F7000C1FA640960B2B0BD40F20004C2F20004DC
:100F80006179E27C94F90A30206A8D1899B20022C6
:100F900000F0B0FA68B2FFF773FB0020FFF770FBB8
:100FA000FFF766FA226A94F90A10044689B21046DD
:100FB000012200F09FFAC4F3021460B2B0BD00BF7A
:100FC00040F20004C2F200046179E27CE8E000BF74
:100FD00040F20004C2F200046179627D0EE000BFBD
:100FE00040F20004C2F200046179627DD8E000BFE3
:100FF00040F20004C2F200046179A27D94F90A3043
:10100000206A8D1899B2002200F074FA68B2FFF7D6
:1010100037FB0020FFF734FBFFF72AFA226A94F926
:101020000A10044689B21046012200F063FA04F067
:101030000F0460B2B0BD00BF40F20004C2F2000471
:101040006179A27DACE000BF40F20004C2F200046E
:101050006179E27D94F90A30206A8D1899B20022F4
:1010600000F048FA68B2FFF70BFB0020FFF708FB1F
:10107000FFF7FEF9226A94F90A10044689B2104675
:10108000012200F037FA04F0070460B2B0BD00BFDF
:1010900040F20004C2F200046179E27D94F90A3062
:1010A000206A8D1899B2002200F024FA68B2FFF786
:1010B000E7FA0020FFF7E4FAFFF7DAF9226A94F979
:1010C0000A10044689B21046012200F013FAC4F354
:1010D000C20460B2B0BD00BF40F20004C2F200041E
:1010E0006179227E5CE000BF40F20004C2F200049D
:1010F0006179227E06E000BF40F20004C2F20004E3
:101100006179627E206A94F90A308D1899B20022C2
:1011100000F0F0F968B2FFF7B3FA0020FFF7B0FA79
:10112000FFF7A6F9226A94F90A10044689B210461C
:10113000012200F0DFF904F01F0460B2B0BD00BF6F
:1011400040F20004C2F200046179A27E06E000BF12
:1011500040F20004C2F200046179227F94F90A305F
:10116000206A8D1899B2002200F0C4F968B2FFF726
:1011700087FA0020FFF784FAFFF77AF9226A94F9D8
:101180000A10044689B21046012200F0B3F960B299
:10119000B0BD00BF40F20004C2F200046179627E7B
:1011A00094F90A30206A8D1899B2002200F0A2F951
:1011B00068B2FFF765FA0020FFF762FAFFF758F907
:1011C000226A94F90A10044689B21046012200F0FE
:1011D00091F9E40960B2B0BD014690F821000228FF
:1011E00016D10868D1E90FC3026822F00E0202602E
:1011F000026822F001020260012000FA03F2CCF83A
:10120000042081F821000020002281F8202070476E
:10121000042088630120002281F82020704700000C
:1012200080B590F82110022924D10268116821F0BC
:101230000E0111602F211368C4F202018A4240F2AC
:101240000401C4F2020123F00103136016DD302310
:10125000C4F202039A421DD04423C4F202039A420C
:101260001CD05823C4F202039A421DD14FF480339C
:1012700022E000BF04218163012080BD0823C4F265
:1012800002039A420ED01C23C4F202039A420BD1ED
:10129000102311E04FF480730EE000BF4FF4805331
:1012A0000AE000BF012307E001F1680C4FF08073F2
:1012B000624508BF4FF480130B60416B4FF480729E
:1012C000028401B18847002080BD00002DE9F04F65
:1012D00082B00E68002E00F0038140F20C4C41F207
:1012E00000424FF6FF7EC4F2010CC4F20102042753
:1012F00000240123C1F2100E4FF0000A4FF0000944
:10130000904208BF0327009745E000BF012704F083
:101310000C030F229A402BEA020207FA03F34FEA6A
:101320009A051A4346F82520D1F804B040F200454A
:10133000C4F201055FEACB322A6854BF22EA0802F0
:1013400042EA08022A606A685FEA8B3354BF22EAE5
:10135000080242EA08026A605FEACB23AA6854BF27
:1013600022EA080242EA08025FEA8B23AA60DCF85C
:1013700000204FF0010354BF22EA080242EA0802AB
:10138000CCF800200E680AF1010A36FA0AF204F1DC
:10139000040400F0A58003FA0AF816EA080FF1D059
:1013A0004E68764512DC122E56D8DFE806F0350B73
:1013B0004549555555555555555555555555554D01
:1013C000510000BFD1F80C9046E000BF4FF6FF720D
:1013D000C1F2210296420FDC0022C1F211029642B4
:1013E0001AD00022C1F21202964215D00022C1F298
:1013F0002102964210D02FE00022C1F22202964232
:101400000AD00022C1F23102964205D00022C1F278
:101410003202964220D100BF8A684AB1012A14BF25
:10142000C0F81480C0F810804FF0080914E000BF25
:101430004FF0040910E000BFCA6802F108090BE090
:101440004FF0000908E000BFCA6802F1040903E098
:10145000CA6802F10C0900BF22460646BAF1080F1D
:1014600024BF203A043637680F25954027EA050542
:1014700009FA02F22A433260CA79D2067FF582AFB6
:1014800041F21803C4F202031A6842F001021A6022
:101490001A6802F001020192019A40F20042C4F27D
:1014A0000102A2F57E762AF0030256F802B040F659
:1014B0000002C4F20102904210D040F60042C4F291
:1014C000010290423FF422AF41F20002C4F2010255
:1014D000009F904208BF022719E700BF002716E7C8
:1014E00002B0BDE8F08F00008068084018BF0120FE
:1014F00070470000002A08BF09040161704700001E
:1015000040F2A410C2F200000068704740F22800C8
:1015100040F2A411C2F20000C2F2000100780A6891
:10152000104408607047000080B542F20000C4F229
:101530000200016841F010010160032000F08EF804
:101540000F2000F005F800F027F8002080BD000013
:1015500070B540F22806C2F2000640F2300132783F
:10156000C2F200014FF47A730968B3FBF2F2044649
:10157000B1FBF2F1084600F063FB0F2C4FF00105C0
:1015800008D838B94FF0FF3021460022002500F07E
:1015900039F87460284670BD82B041F21800C4F278
:1015A00002000168022241F001010160016801F0BE
:1015B000010101910199416841F080514160406809
:1015C00000F08050009000980420C4F201000168EF
:1015D00062F31A61016002B070470000002848BF42
:1015E0007047C1B200F01F00012202FA00F04EF273
:1015F0000012CEF2000242EAD10121F0030108609C
:101600007047000010B54EF60C5CCEF2000CDCF812
:101610000030C3F3022E8EF00704042C28BF0424EC
:10162000BEF103034FF0FF3E0EFA04F438BF00236F
:10163000A14399400EFA03F39A43114300F00F02BD
:1016400000F160430901043A03F564436244002851
:1016500048BF02F10C03197010BD00004EF60C518A
:10166000CEF200010A684FF6FF031A4060F30A2227
:1016700042F0806040F0FD70086070472DE9F04353
:1016800081B0002800F0858042F20008C4F2020810
:101690000446D8F800000D4600F0070088420CD23E
:1016A000D8F8000020F007002843C8F80000D8F858
:1016B000000000F00700A8426BD1206841F2040945
:1016C0008107C4F2020917D5410705D5D9F80010E2
:1016D00041F4E061C9F80010010705D5D9F8001000
:1016E00041F46051C9F80010D9F80010A26821F047
:1016F000F0011143C9F80010C00741D1D8F800002B
:1017000000F00700A8420CD9D8F8000020F007002C
:101710002843C8F80000D8F8000000F00700A842ED
:1017200037D12068410707D5D9F80010E26821F4C5
:10173000E0611143C9F80010000708D5D9F800008E
:10174000216920F4605040EAC100C9F80000D9F8CE
:10175000002002F00C00082841F20020C0F27A00BC
:1017600050D142F66063C2F38341C0F60003595C76
:10177000D2033BD440F60010C0F23D00484341E0A4
:10178000606802280AD001282AD159F8041C89036C
:1017900008D4012001B0BDE8F08300BF59F8041C53
:1017A0008901F6D5D9F8001021F003010843C9F8E2
:1017B0000000FFF7A5FE064641F28837D9F8000081
:1017C000616800F00C00B0EB810F97D0FFF798FE36
:1017D000801BB842F2D9032001B0BDE8F08300BFFE
:1017E00059F8041C8907D4D5DCE700BFD9F80020DC
:1017F00042F64663C2F34042C0F600039A5C484397
:10180000B0FBF2F0D9F8001042F64862C1F30311C0
:10181000C0F60002515C40F2300220FA01F140F2C1
:101820002C00C2F200000068C2F200021160FFF753
:101830008FFE002001B0BDE8F083000040F23000D0
:1018400041F20401C2F20000C4F20201006809681A
:1018500042F65862C1F30221C0F60002515CC84052
:101860007047000040F2300041F20401C2F2000073
:10187000C4F202010068096842F65862C1F3C2214D
:10188000C0F60002515CC840704700002DE9F041ED
:1018900082B0002868D00446007841F20006C007F4
:1018A000C4F2020625D0706800F00C0004281BD09A
:1018B000706800F00C00082802D17068C00313D4CF
:1018C0006068002800F06881B0F5A02F00F07C81EE
:1018D000B0F5803F00F07C81306820F480303060CB
:1018E000306820F4802076E13068800301D560689C
:1018F000D0B32078800718D5706810F00C0F07D08F
:10190000706800F00C0008286ED17068C0036BD4BA
:101910003068800702D52069012825D130686169C7
:1019200020F0F80040EAC1003060207800071FD4A2
:101930002078400732D4E56995B1706800F00C005A
:10194000082840F08F80012D0ED07068216A00F4C5
:1019500080328A4208D1616A00F47010884203D153
:10196000002002B0BDE8F081012002B0BDE8F081A6
:10197000A069002862D00020C4F242200121C0F8F2
:101980008014FFF7BDFD0546706A800700F18C806A
:10199000FFF7B6FD401B0228F6D92AE1F06910F0E6
:1019A000805808D1F06940F08050F061F06900F093
:1019B00080500090009847F20007C4F20007386892
:1019C000C00529D4386840F480703860FFF798FD6E
:1019D000054600BF3868C0051ED4FFF791FD401BC7
:1019E0006428F7D905E100BF2069002840F2000013
:1019F000C4F2422000F0828001210160FFF780FDE7
:101A0000054600BF306880073FF588AFFFF778FDD7
:101A1000401B0228F6D9ECE0E068002800F0808046
:101A2000052800F09780012800F09880306A20F0A7
:101A300001003062306A20F0040092E00020C4F21D
:101A400042200021C0F88014FFF75AFD054600BF70
:101A5000706A80077FF56CAFFFF752FD401B0228CC
:101A6000F6D9C6E00027C4F2422700203866FFF707
:101A700047FD022D05460BD13068800140F1BE8044
:101A8000FFF73EFD401B02284FF00300F4D968E742
:101A9000306880017FF564AFFFF732FD401B0228FC
:101AA0004FF00300F4D95CE740F23000C2F20000CE
:101AB000006844F6D351C1F26201A0FB0101480A5B
:101AC000019000BF00BF0198411E002801913FF422
:101AD0002FAF00BF0198411E002801913FF428AFAD
:101AE00000BF0198411E002801913FF421AF00BFC3
:101AF0000198411E00280191E4D119E700210160FD
:101B0000FFF7FEFC054600BF306880077FF50DAF8C
:101B1000FFF7F6FC401B02284FF00300F4D920E742
:101B2000306A20F001003062306A20F00400306238
:101B3000FFF7E6FC054641F2883700BF306A8007B0
:101B400020D5FFF7DDFC401BB8424FF00300F5D96C
:101B500007E700BF306A40F004003062306A40F0AE
:101B600001003062FFF7CCFC054641F2883700BF28
:101B7000306A800706D4FFF7C3FC401BB842F7D990
:101B800037E000BFB8F1000F7FF4D5AEF06920F068
:101B90008050F061CFE600BF306820F480303060C4
:101BA000306820F480203060FFF7AAFC054600BFB3
:101BB000306880037FF59DAEFFF7A2FC401B6428D0
:101BC0004FF00300F4D9CCE6306840F48020306058
:101BD000306840F480303060FFF792FC054600BF6B
:101BE000306880033FF585AEFFF78AFC401B642810
:101BF000F6D9032002B0BDE8F08100BF206AB0F53D
:101C0000803F05D17168A26821F4003111437160F1
:101C10007168626A21F474111143084370600120F5
:101C20003866FFF76DFC0446306880013FF598AEDA
:101C3000FFF766FC001B02284FF00300F4D990E682
:101C4000411E0020B0EB116F1CBF012070474EF207
:101C50001002CEF2000251604EF62351CEF2000186
:101C6000F0230B70072190601160704770470000EF
:101C70007047000010B590F83C20012A4FF0020296
:101C800033D080F83D200268D2F804E0D2F808C0D2
:101C90000C682EF07003234340F2FF74C4F200047A
:101CA000A24253600ADCB2F1804F13D040F20043ED
:101CB000C4F200039A420DD011E000BF42F6004387
:101CC000C4F201039A4205D040F60003C4F20003B7
:101CD0009A4204D149682CF0800319439160012194
:101CE000002280F83D1080F83C20104610BD000016
:101CF000002804BF0120704710B5044690F83D004D
:101D000028B9002084F83C00204600F067F8022043
:101D100084F83D00206840F2FF730268C4F20003BB
:101D200042F6004C9842C4F2010C15DCB0F1804F31
:101D30001AD040F20041C4F20001884214D0984207
:101D400018DCB0F1804F1DD040F20041C4F2000118
:101D5000884217D01AE000BF604505D040F6000168
:101D6000C4F200018842EAD1A16822F070020A435D
:101D70009842E6DD604505D040F60001C4F200015E
:101D8000884203D1216922F440720A43A36922F0F8
:101D90008001D4F804E0E268194360450160C26242
:101DA000C0F828E002D16169CCF83010012141610E
:101DB000002084F8461084F83E1084F83F1084F820
:101DC000401084F8411084F8421084F8431084F8DD
:101DD000441084F8451084F83D1010BD80B582B0E1
:101DE000006840F20041C4F2000188421AD0B0F10C
:101DF000804F24D141F21C00C4F20200016800228D
:101E000041F0010101600068002100F00100019033
:101E100001981C20FFF7F6FB1C2002B0BDE88040B3
:101E2000FFF7DCBB41F21C00C4F20200016841F084
:101E300002010160006800F002000090009802B00A
:101E400080BD000090F83D1001291CBF01207047A3
:101E5000022180F83D10006840F2FF72C168C4F2B0
:101E60000002904241F00101C16009DCB0F1804FF5
:101E700012D040F20041C4F2000188420CD012E0BE
:101E800042F60041C4F20101884205D040F600014B
:101E9000C4F20001884206D1816801F007010629D9
:101EA00004BF00207047016841F00101016000207B
:101EB000704700000146006841F21113C26822F029
:101EC0000102C260026A1A4204D00122002081F895
:101ED0003D207047026A40F244431A42F5D102683D
:101EE00022F0010202600122002081F83D207047AB
:101EF00080B590F83C20012A4FF0020200F0BF802C
:101F000080F83D20D0F800C04FF67772DCF808303A
:101F100023EA0202CCF808200B683F2B1CDD5F2B64
:101F200020DD602B50D0B3F5005F6DD0702B40F0FA
:101F3000A080D1E901E3C968DCF8082043EA0E0378
:101F400022F47F4243EA01211143CCF80810DCF867
:101F5000081041F077018AE01F2B29DC63B3102BB6
:101F60002AD086E0402B63D0502B40F08280D1F8FD
:101F700004E0C968DCF82030DCF8202022F00102FF
:101F8000CCF82020DCF8182022F0F00242EA0111FF
:101F900023F00A0242EA0E02CCF81810CCF82020F6
:101FA000DCF8081041F0570121F020015FE000BF8C
:101FB000202B01D0302B5CD1DCF8081021F070010F
:101FC000194341F0070152E0D1F804E0C968DCF898
:101FD000203023F01003CCF82030DCF81830DCF887
:101FE000202023F4704322F0A00243EA013142EAA8
:101FF0000E12CCF81810CCF82020DCF8081041F0B4
:10200000670121F0100132E0D1E901E3C968DCF891
:10201000082043EA0E0322F47F4243EA01211143E0
:10202000CCF80810DCF8081041F480411FE000BF34
:10203000D1F804E0C968DCF82030DCF8202022F078
:102040000102CCF82020DCF8182022F0F00242EA4D
:10205000011123F00A0242EA0E02CCF81810CCF863
:102060002020DCF8081041F0470121F03001CCF8C5
:1020700008100121002280F83D1080F83C20104615
:1020800080BD00007047000010B501680446086973
:10209000800744BFC8685FEA807039D40869400788
:1020A00044BFC8685FEA40703ED40869000744BF77
:1020B000C8685FEA007045D40869C00644BFC868B4
:1020C0005FEAC0604AD40869C0071CBFC8685FEAFD
:1020D000C07051D10869000644BFC8685FEA00605B
:1020E00052D40869400644BFC8685FEA406053D4D0
:1020F0000869800646BFC8685FEA806010BD6FF05F
:10210000200220460A61BDE81040FFF7B1BD00BFC4
:102110006FF002000861012020778869800743D0B2
:102120002046FFF7AFFF45E06FF004000861022092
:102130002077886910F4407F40D02046FFF7A2FF47
:1021400042E000BF6FF00800086104202077C869F2
:1021500080073DD02046FFF795FF3FE06FF010006D
:10216000086108202077C86910F4407F3AD02046E3
:10217000FFF788FF3CE000BF6FF0010008612046D8
:1021800000F03EF82168A5E76FF080000861204666
:10219000FFF76CFD2168A4E76FF04000086120465E
:1021A00000F03EF82168A3E7204600F025F820461D
:1021B00000F024F82168002020776FE7204600F027
:1021C0001BF8204600F01AF82168002020776CE701
:1021D000204600F011F8204600F010F82168002099
:1021E000207769E7204600F007F8204600F006F85F
:1021F00021680020207766E77047000070470000E4
:1022000040F21411C2F20001884218BF704740F238
:102210009800C2F20000416801314160704700003F
:10222000704700007047000070470000B0B582B0F2
:10223000026805461068D368546900F02F01202910
:1022400003F0200106D129B1284602B0BDE8B04014
:1022500000F068BC5FEA007C1EBF04F0010E03F4CE
:10226000907414EB0E0453D1296B012905D110F0A1
:10227000100118BF13F0100136D1010622D513F05A
:1022800080011FD095F83D0021283FD1A868B0F506
:10229000805F03D12869002800F0F880286A411C7B
:1022A000296200785060E88C01380104E8842DD15F
:1022B000D06820F08000D060D06840F04000D0604E
:1022C00002B0B0BD400621D513F040001ED0D0684A
:1022D000202120F04000D060284685F83D1002B053
:1022E000BDE8B04000F0C2BA002001901068019033
:1022F0005068019001985069400611D4A88DE98D6D
:10230000EB8D002B18BF884240F0A68002B0B0BD14
:10231000C40718BF13F480732CD1430730D436E0C0
:10232000A86B01684B689CB2002CEFD0A98D8C4241
:10233000ECD2EB858369202B17D0D16821F4807112
:10234000D160516921F001015161516921F04001D1
:102350005161202185F83E1000212963D16821F0C8
:102360001001D160FEF738FFA98DE88D081A81B2FF
:10237000284685E02B6C43F001032B64430706D508
:10238000BEF1000F03D02B6C43F002032B648307D4
:1023900006D5BEF1000F03D02B6C43F004032B6471
:1023A000BCF1000F09D541EA0E03B3FA83F35B09D0
:1023B00003D12B6C43F008032B642B6C002BA5D0AE
:1023C00010F0200018BF002903D0284600F0AAFB17
:1023D0002A685069296C00F0400001F0080140189B
:1023E0002CD0D06820F49070D060506920F00100AB
:1023F0005061286B012803D1D06820F01000D06014
:10240000202085F83E0000202863506940061DD535
:10241000506920F040005061A86BB8B142F6193104
:10242000C0F600014163FEF7FBFE00283FF46EAFEB
:10243000A86B416B02B0BDE8B04008472846FFF7E3
:10244000F3FE0020286402B0B0BD00BF284602B0F1
:10245000BDE8B040FFF7E8BED368401A23F490739C
:10246000D360536981B223F001035361202385F8BF
:102470003E3000232B63D368284623F01003D3603B
:1024800002B0BDE8B040FFF7CDBE00BF286A30F80B
:10249000021B6FF35F215160286204E7002804BF2C
:1024A0000120704710B5044690F83D0028B900207F
:1024B00084F83C00204600F061F8242084F83D00B8
:1024C0002068D4E90212C36823F40053C36003698F
:1024D00023F440531A430261D4E904231143C26830
:1024E000194341F20C639A431143C1604169A269E7
:1024F00021F44071114343F60002C4F201029042FC
:10250000416103D0FFF79AF902E000BFFFF7AAF993
:102510006268192148439100B0FBF1F048F21F5165
:10252000C5F2EB11A0FB01235A094FF69C73C0F6CC
:10253000FF7302FB0300322303EB0010A0FB010139
:10254000F02303EA5113206803EB0212C1F3431195
:1025500011448160016921F490410161416921F0D8
:102560002A014161C16841F40051C160002020216D
:10257000206484F83D1084F83E1010BD70B586B01C
:1025800040F60004C4F20104006804F5405100263E
:102590008842049602D006B070BD00BF41F2180018
:1025A000C4F20200016802AD41F48041016001689B
:1025B00001F4804101910199016841F00401016039
:1025C0000068294600F00400019001984FF4007063
:1025D000029002200390032005902046FEF776FE2D
:1025E0004FF48060CDE90206204629460496FEF7A6
:1025F0006DFE252000210022FFF704F82520FEF7BC
:10260000EDFF06B070BD0000034690F83E002028A4
:102610000AD100294FF0010018BF002A00D17047ED
:1026200093F83C00012801D1022070470020186374
:10263000996222219A85DA85186483F83E10196818
:1026400083F83C00CA6842F48072CA604A6942F06A
:1026500001024A61CA6842F02002CA607047000065
:10266000B0B540F29805C2F2000505F10C04204611
:10267000FEF71CF905F1340021460422BDE8B04004
:10268000FFF7C2BF2DE9F041044690F83D00202835
:102690000ED10D4600294FF0010000F08E80164645
:1026A000002A08BFBDE8F08194F83C00012803D15E
:1026B0000220BDE8F08100BF012084F83C0000202A
:1026C00020642120984684F83D00FEF719FFA68477
:1026D000E684A1680646B1F5805F03D12069002831
:1026E00000F0A0802F460025002084F83C00E08CFC
:1026F000E0B118F101001BD0B8F1000F60D12068E3
:102700000BE000BF35F8021B00276FF35F2141602B
:10271000E18C0139E184E18C51B3016809066DD582
:10272000002FEFD017F8011BF1E700BF20681FE072
:10273000206802E00168090609D40168090606D488
:10274000016809065CBF01685FEA0161F2D51FB14B
:1027500017F8011B05E000BF35F8021B00276FF3D7
:102760005F214160E18C0139E184E18C0029E4D1F1
:10277000016849061DD4B8F1000F3FD018F10101DE
:102780000ED10168490614D4016849065CBF01688E
:102790005FEA41610DD401684906F2D509E000BF46
:1027A000FEF7AEFE811B2068414527D80068400631
:1027B000F6D5202084F83D000020BDE8F08100BF60
:1027C000206800BF0168090606D4FEF799FE811B48
:1027D00020684145F6D911E017B117F8011B04E054
:1027E00035F8021B00276FF35F214160E18C01394E
:1027F000E184E18C0029E5D1BAE700BFC16821F48A
:10280000D071C160416921F001014161202084F84B
:102810003D0084F83E00002084F83C000320BDE821
:10282000F08100BF00275FE7034690F83D002028B5
:102830000AD100294FF0010018BF002A00D17047CB
:1028400093F83C00012801D1022070471962002052
:1028500021219A84DA84186483F83D10196883F87A
:102860003C00CA6842F08002CA60704740F2000033
:10287000C2F200000121417770470000FEE700002E
:10288000FEE70000FEE700007047000070B524205E
:10289000C4F20000002440F200060460C2F2000608
:1028A00096F90E1040F29805706AC2F2000589B2DE
:1028B00000226C60FEF71EFE317B727B706A114352
:1028C00049B289B20122FEF715FE40F21410C2F29D
:1028D0000000FFF7B7FAD5E90101884202D200BF34
:1028E000FEE700BF317B727BB37B11431943706AF3
:1028F00049B289B20022FEF7FDFD40F21410C2F287
:102900000000FFF7D7FA6C6070BD0000B0B524205E
:10291000C4F20000002140F200040160C2F2000491
:1029200040F2980594F90E20C2F20005606A6960D1
:1029300091B20022FEF7DEFD217B627B606A1143CB
:1029400049B289B20122FEF7D5FD40F21410C2F25D
:102950000000FFF777FAD5E90101884202D200BFF3
:10296000FEE700BF217B627BA37B11431943606AB2
:1029700049B289B20022FEF7BDFD40F21410C2F246
:102980000000BDE8B040FFF795BA000070470000B6
:10299000B0B51D2888BFB0BD0C4640F20005C2F29C
:1029A0000005DFE800F00F151AADAD20262B3036FC
:1029B0003C41474D53585E64696F747A7F858B90B4
:1029C000969BA0A52101687CCAB23021FDF73AFC94
:1029D000687CE2B20F21FDF735FCE101687CCAB2E8
:1029E0008021FDF72FFC6100687CCAB20221FDF74F
:1029F00029FC687CE2B20121FDF724FC287CE2B2CC
:102A00000321FDF71FFCA100287CCAB20421FDF7B9
:102A100019FCE100287CCAB20821FDF713FCA87C50
:102A2000E2B20721FDF70EFCE100A87CCAB2082142
:102A3000FDF708FC2101A87CCAB21021FDF702FCB9
:102A40006101A87CCAB2E021FDF7FCFBE87EE2B29E
:102A5000FF21FDF7F7FB2101E87CCAB27021FDF7E9
:102A6000F1FBE101E87CCAB28021FDF7EBFB687D58
:102A7000E2B20F21FDF7E6FB2101687DCAB2F02129
:102A8000FDF7E0FBA87DE2B20F21FDF7DBFB2101A2
:102A9000A87DCAB2F021FDF7D5FBE87DE2B207219F
:102AA000FDF7D0FBE100E87DCAB23821FDF7CAFB93
:102AB000E101287ECAB28021FDF7C4FB287EE2B284
:102AC0001F21FDF7BFFBE101687ECAB28021FDF73F
:102AD000B9FB687EE2B21F21FDF7B4FBA87EE2B22B
:102AE000FF21FDF7AFFBE87EE2B2FF21FDF7AAFB75
:102AF000287FE2B2FF21BDE8B040FDF7A3BB00BFD5
:102B0000B0BD0000FEF702BD7047000040F2141097
:102B1000C2F20000FFF7B8BA406A0021C185C18443
:102B2000FFF782BB81B090F83E10222921D1836843
:102B30000246B3F5805F09D152F8281F52F8183CBD
:102B4000002B3FD003685B680AE000BF52F8281FE3
:102B500013B90369002BF5D003685B6803F07F03AA
:102B60000B70116801311160C18D01390A04C185F2
:102B700002D001B0704700BF0168CA6822F020028D
:102B8000CA60CA6822F48072CA604A6922F00102EF
:102B90004A61202280F83E20026B012A1AD10022CD
:102BA0000263CB6823F01003CB600B68DB0605D50E
:102BB00000920A680092496800910099818D01B0E5
:102BC000FFF730BB026852686FF35F2221F8022BD7
:102BD0008162C9E701B0FFF743BD000040F2CC00BD
:102BE000C2F20000FFF722BBFEE7000090B0FEF744
:102BF0009BFC00240120CDE90B44CDE909440A9057
:102C000010200B904FF4601002250F9006A8CDE91C
:102C100007440695CDE90D54FEF738FE20B1EFF3D9
:102C2000108072B6FEE700BF0F20CDE900054FF41B
:102C3000E060CDE90304684602210294FEF71EFD20
:102C400020B1EFF3108072B6FEE700BF002741F21B
:102C500018000997C4F20200016840F6000841F02C
:102C6000040101600168C4F2010801F0040100914F
:102C700000990168002241F0080101600068AC2160
:102C800000F00800009000984046FEF733FC4046F4
:102C9000502101220124FEF72DFC08F5806528460D
:102CA000382100224FF03809FEF724FC06AE4FF021
:102CB000030B4FF0020A40463146CDE906B7CDF886
:102CC00020A0FEF703FB0C2006A981E891084046EE
:102CD0003146FEF7FBFAB02006A981E89104404690
:102CE0003146FEF7F3FA4020CDE90604404631466E
:102CF000CDE9084BFEF7EAFA28463146CDE90694BD
:102D0000CDE9087AFEF7E2FA40F21410C2F20000B0
:102D10004FF080414FF6FF720997CDE90777CDE973
:102D20000077C0E90017C0E9027207618761FEF70A
:102D3000DFFF28B1EFF3108072B600BFFEE700BFDF
:102D40004FF48050069040F21410C2F2000006A921
:102D5000FFF7CEF820B1EFF3108072B6FEE700BFA8
:102D600040F21410C2F200006946FEF783FF28B15A
:102D7000EFF3108072B600BFFEE700BF40F2980587
:102D8000C2F2000508F54051284640F8341F4FF4C0
:102D9000E13100240C22C0E90114C0E90344C0E978
:102DA0000524C461FFF77AFB20B1EFF3108072B6FF
:102DB000FEE700BF40F25C10A8F58231C2F20000CD
:102DC0004FF6FF720994CDE90744CDE90044C0E90C
:102DD0000014C0E9024204618461FEF789FF28B152
:102DE000EFF3108072B600BFFEE700BF4FF48050D3
:102DF000069040F25C10C2F2000006A9FFF778F8D6
:102E000020B1EFF3108072B6FEE700BF40F25C1015
:102E1000C2F200006946FEF72DFF28B1EFF31080E3
:102E200072B600BFFEE700BF05F134040C35204642
:102E300029460422FFF7E8FB204629460422FFF733
:102E4000F3FC00BFFEE701020000000000000000EC
:102E50000102030406070809000000000102030440
:102E600002030405060708090A0B0C0D0E0F1010CB
:102E7000902E000800000020380000002801000803
:102E8000C82E000838000020700700004401000828
:102E900006080A1719200102040810202010080152
:102EA00002030405060D0E0F101112131401000089
:102EB00000080140000C014001000000100000006B
:082EC0000024F40000000000F2
:04000005080000ED02
:00000001FF
