:020000040800F2
:10000000A00700208901000801260008F925000842
:10001000FD250008B9080008E128000800000000DC
:100020000000000000000000000000009126000811
:10003000690B0008000000000526000809280008D8
:10004000A3010008A3010008A3010008A301000800
:10005000A3010008A3010008A3010008A3010008F0
:10006000A3010008A3010008A3010008A3010008E0
:10007000A3010008A3010008A3010008A3010008D0
:10008000A3010008A3010008A3010008A3010008C0
:10009000A3010008A3010008A3010008A3010008B0
:1000A000A3010008A3010008A3010008A3010008A0
:1000B000A3010008A3010008A3010008A301000890
:1000C000A3010008A3010008A3010008A301000880
:1000D000A3010008D5280008A3010008A301000817
:1000E000A3010008A3010008A301000800F002F822
:1000F00000F03AF80AA090E8000C82448344AAF188
:100100000107DA4501D100F02FF8AFF2090EBAE885
:100110000F0013F0010F18BFFB1A43F0010318473B
:100120006C2C00008C2C0000103A24BF78C878C1D9
:10013000FAD8520724BF30C830C144BF04680C60ED
:10014000704700000023002400250026103A28BF35
:1001500078C1FBD8520728BF30C148BF0B60704739
:100160001FB51FBD10B510BD00F031F81146FFF7E7
:10017000F7FF02F0B7FB00F04FF803B4FFF7F2FF10
:1001800003BC00F057F800000948804709480047C1
:10019000FEE7FEE7FEE7FEE7FEE7FEE7FEE7FEE737
:1001A000FEE7FEE704480549054A064B7047000094
:1001B0000D280008ED000008A0010020A007002085
:1001C000A0030020A00300207047704770477546C9
:1001D00000F02CF8AE4605006946534620F00700B3
:1001E000854618B020B5FFF7DDFFBDE820404FF091
:1001F00000064FF000074FF000084FF0000BAC4630
:10020000ACE8C009ACE8C009ACE8C009ACE8C0097A
:1002100021F007018D46704710B50446AFF300800A
:100220002046BDE81040FFF7A8BF00000048704717
:100230003800002001491820ABBEFEE7260002006E
:1002400070470000F0B581B040F20007C2F200072D
:1002500015460C4679793A6A97F90A300E1899B220
:100260001046002201F0E2F870B200F011FA00200E
:1002700000F00EFA00F004F93A6A97F90A100646FF
:1002800089B21046012201F0D1F897F90A3005EA47
:10029000040126EA0402386A541899B2002201F0D7
:1002A000C5F8002000F0F4F9002000F0F1F960B288
:1002B00000F0EEF997F90A10386A89B2012201B00C
:1002C000BDE8F04001F0B2B82DE9F04F81B040F246
:1002D0000005C2F200050446687C40F2240B402170
:1002E0000022C4F2000B0027FFF7ACFF40F2980693
:1002F00040F20C10C2F20006C2F20000CBF800700F
:10030000B760777001F02CFD95F90E10686A89B21C
:10031000002201F08BF8297B6A7B686A114349B29D
:1003200089B2012201F082F800F010FADBF8000037
:10033000A04240D2307800283DD14FF0000A06F1AB
:100340002C09E84695F90610286A89B201F068F888
:1003500050BB95F90A10286A89B2002201F066F8AC
:1003600000F08EF800F08CF88DF8000000F088F8AE
:100370008DF8010000F084F88DF8020000F080F89C
:100380008DF8030000F07CF8687F30B148464146A4
:10039000042285F81DA002F005F995F90A10286AD3
:1003A00089B2012201F042F8DBF80000A04202D23B
:1003B00030780028C6D040F20C10C2F2000001F0E4
:1003C00007FD95F90B10286A89B2002201F02EF87A
:1003D000297B6A7BAB7B11431943686A49B289B2B6
:1003E000002201F023F8DBF80000708001B0BDE8C6
:1003F000F08F000010B582B040F20004C2F2000499
:10040000607C40214022FFF71DFF00F09FF900BFF4
:1004100094F90610206A89B201F002F80028F7D199
:1004200094F90A10206A89B2002200F0FFFF00F060
:1004300027F800F025F88DF8040000F021F88DF879
:10044000050000F01DF88DF8060000F019F88DF891
:10045000070000F015F840F29800C2F200002C30BE
:1004600001A904224FF6FF7301F0CAFF94F90A10A4
:10047000206A89B2012200F0D9FF02B010BD00004D
:100480002DE9F04740F2244740F2000A40F25419A7
:100490004FF00008C4F20007C2F2000AC2F20009DD
:1004A0000024002607E000BF48462C4301F090FCE2
:1004B0000136082E40D09AF90910DAF8200089B2E6
:1004C000012200F0B3FF9AF90710DAF8200089B290
:1004D00000F0A6FF05464846C7F8008001F040FC42
:1004E0003868012808D83868012805D838680128F4
:1004F00002D838680228F3D34846B54001F068FCBA
:100500009AF90910DAF8200089B2002200F08EFF73
:100510004846C7F8008001F023FC00BF3868012876
:10052000C2D838680128BFD838680128BCD83868D4
:100530000228F3D3B8E700BFE0B2BDE8F0870000BF
:10054000B0B540F20004C2F200046179227D94F952
:100550000A30206A8D1899B2002200F067FF68B255
:1005600000F096F8002000F093F8FFF789FF94F967
:100570000A10206A89B2012200F058FF6179627C7A
:1005800094F90A30206A8D1899B2002200F04EFFCB
:1005900068B200F07DF8002000F07AF8FFF770FFF5
:1005A00094F90A10206A89B2012200F03FFF94F901
:1005B0000A10206A89B2002200F038FF002000F003
:1005C00067F8002000F064F84FF0FF3000F060F8AA
:1005D00094F90A10206A89B2012200F027FF94F9E9
:1005E0000A10206A89B2002200F020FF002000F0EB
:1005F0004FF8002000F04CF8002000F049F894F982
:100600000A10206A89B2012200F010FF94F90A1042
:10061000206A89B2002200F009FF94F9040000F07A
:1006200037F894F90A10206A89B2012200F0FEFE20
:1006300094F90A10206A89B2002200F0F7FE002027
:1006400000F026F8002000F023F8002000F020F849
:1006500094F90A10206A89B2012200F0E7FE94F9A9
:100660000A10206A89B2002200F0E0FE002000F0AB
:100670000FF8002000F00CF8002000F009F894F9C1
:100680000A10206A89B20122BDE8B04000F0CEBE57
:100690002DE9F04381B040F2244640F2000740F2D9
:1006A00054158146C4F200064FF00008C2F200075C
:1006B000C2F2000500240CE0284601F089FB97F9FE
:1006C0000910386A89B2002200F0B0FE0134082C0B
:1006D00038D097F9083029FA04F1386A01F001029C
:1006E00099B200F0A3FE2846C6F8008001F038FB5E
:1006F0003068012808D83068012805D830680128FA
:1007000002D830680228F3D3284601F061FB97F93C
:100710000910386A89B2012200F088FE2846C6F81E
:10072000008001F01DFB00BF30680128C4D830688C
:100730000128C1D830680128BED830680228F3D318
:10074000BAE700BF01B0BDE8F0830000F0B581B0AA
:1007500040F20005C2F2000595F90B10286A40F23C
:10076000244689B20122C4F2000600F05FFE002098
:10077000306040F25410C2F2000001F0F1FA00BF04
:100780003068042808D83068042805D83068042860
:1007900002D830680528F3D340F25414C2F20004A2
:1007A000204601F015FB95F90B10286A89B200224A
:1007B000002700F03BFE2046376001F0D1FA00BF71
:1007C0003068042808D83068042805D83068042820
:1007D00002D830680528F3D340F25410C2F200006A
:1007E00001F0F6FA95F90B10286A89B2012201B0DE
:1007F000BDE8F04000F01ABEB0B540F20004C2F20D
:1008000000046179227D94F90A30206A8D1899B22A
:10081000002200F00BFE68B2FFF73AFF0020FFF75E
:1008200037FFFFF72DFE94F90A10206A89B20122E2
:1008300000F0FCFD94F90A10206A89B2002200F051
:10084000F5FD0020FFF724FF0020FFF721FF0A201D
:10085000FFF71EFF94F90A10206A89B2012200F006
:10086000E5FD94F90A10206A89B2002200F0DEFD4D
:1008700094F90300FFF70CFF94F90A10206A89B27B
:10088000012200F0D3FD94F90A10206A89B20022F7
:1008900000F0CCFD0020FFF7FBFE0020FFF7F8FE84
:1008A0000020FFF7F5FE94F90A10206A89B20122B0
:1008B000BDE8B04000F0BABDFEE7000070B50446E8
:1008C00000780C2800F24481DFE810F00E003000C0
:1008D00066006C001A00700086008800A8002E01D7
:1008E00044011E00260000BF40F29801C2F2000140
:1008F00001F12C0004310422BDE8704001F052BE29
:10090000BDE87040FFF71CBE40F29800C2F2000044
:10091000012101701CE100BF40F29800C2F200000A
:10092000B0F90200BDE8704001F06EBE40F2000573
:10093000C2F2000595F90A10286A40F2244489B2EF
:100940000022C4F20004002600F070FD95F90000BA
:10095000FFF79EFE95F90A10286A89B2012200F07D
:1009600065FD40F25410C2F20000266001F0F8F973
:100970002068082808D82068082805D82068082892
:1009800002D820680928F3D340F25410C2F20000C4
:10099000BDE8704001F01CBAB4F90200BDE8704037
:1009A000FFF792BCBDE87040FFF724BD40F20005A0
:1009B000C2F2000595F90A10286A89B2002200F0F7
:1009C00035FD95F90300FFF763FE95F90A10286AD3
:1009D00089B2012200F02AFDFFF70EFF40F2000568
:1009E000C2F2000595F90A10286AE47889B200225B
:1009F00000F01CFD0020FFF74BFE0020FFF748FE33
:100A0000E0074FF0070008BF0320FFF741FE95F90C
:100A10000A10286A89B2012200F008FD002000F0C7
:100A2000A5F840F29804C2F2000404F80C0F01206B
:100A300000F09CF86070022000F098F8A07003208D
:100A400000F094F8E070042000F090F82071052088
:100A500000F08CF86071062000F088F8A071072083
:100A600000F084F8E071082000F080F8207209207E
:100A700000F07CF860720A2000F078F8A0720B2079
:100A800000F074F8E0720C2000F070F820730D2074
:100A900000F06CF860730E2000F068F8A0730F206F
:100AA00000F064F8E073102000F060F8207411206A
:100AB00000F05CF86074122000F058F8A074132065
:100AC00000F054F8E074142000F050F82075152060
:100AD00000F04CF86075162000F048F8A07517205B
:100AE00000F044F8E075182000F040F82076192056
:100AF00000F03CF860761A2000F038F8A0761B2051
:100B000000F034F8E0761C2000F030F820771D204B
:100B100000F02CF8034604F1200021461E226377E2
:100B2000BDE8704001F03EBDE0781D2810D800F00F
:100B30001DF840F298060346C2F2000606F10C01C9
:100B400006F12C0001227373BDE8704001F02ABD4C
:100B500070BD00BFE1781D2988BF70BDA07849B283
:100B6000BDE8704001F096BD70470000B0B51D288B
:100B700028D8DFE810F02B004F0057005F006F000F
:100B80007F00A300C700EB000F0117011F01430105
:100B900067011F008901AD01B501BD01C501E90172
:100BA000F101150239024102970249026D021F004C
:100BB000750200BF40F20004C2F200046179E27ED7
:100BC00054E200BF002460B2B0BD00BF40F2000498
:100BD000C2F200046179627C94F90A30206A8D18AF
:100BE00099B2002200F022FC68B2FFF751FD00200C
:100BF000FFF74EFDFFF744FC226A94F90A10044601
:100C000089B21046012200F011FCC4F3011460B255
:100C1000B0BD00BF40F20004C2F200046179627C02
:100C200074E100BF40F20004C2F200046179627C0A
:100C30003EE200BF40F2081040F20004C2F20000A1
:100C4000C2F2000401786279206A94F90A305518DA
:100C500002E100BF40F2081040F20004C2F20000BE
:100C6000C2F2000401786279206A94F90A305518BA
:100C7000D4E100BF40F20004C2F200046179E27BDB
:100C800094F90A30206A8D1899B2002200F0CEFB48
:100C900068B2FFF7FDFC0020FFF7FAFCFFF7F0FB5E
:100CA000226A94F90A10044689B21046012200F023
:100CB000BDFBC4F3400460B2B0BD00BF40F200040D
:100CC000C2F200046179627C94F90A30206A8D18BE
:100CD00099B2002200F0AAFB68B2FFF7D9FC00200D
:100CE000FFF7D6FCFFF7CCFB226A94F90A10044602
:100CF00089B21046012200F099FB04F0010460B2B1
:100D0000B0BD00BF40F20004C2F200046179227C51
:100D100094F90A30206A8D1899B2002200F086FBFF
:100D200068B2FFF7B5FC0020FFF7B2FCFFF7A8FBA5
:100D3000226A94F90A10044689B21046012200F092
:100D400075FB04F0030460B2B0BD00BF40F20004C4
:100D5000C2F200046179227C94F90A30206A8D186D
:100D600099B2002200F062FB68B2FFF791FC00200C
:100D7000FFF78EFCFFF784FB226A94F90A10044601
:100D800089B21046012200F051FBC4F3800460B226
:100D9000B0BD00BF40F20004C2F200046179227CC1
:100DA0000EE000BF40F20004C2F200046179A27CB0
:100DB000D8E000BF40F20004C2F200046179A27CD6
:100DC00094F90A30206A8D1899B2002200F02EFBA7
:100DD00068B2FFF75DFC0020FFF75AFCFFF750FBFD
:100DE000226A94F90A10044689B21046012200F0E2
:100DF0001DFBC4F3C00460B2B0BD00BF40F20004EC
:100E0000C2F200046179A27C94F90A30206A8D183C
:100E100099B2002200F00AFB68B2FFF739FC00200B
:100E2000FFF736FCFFF72CFB226A94F90A10044600
:100E300089B21046012200F0F9FAC4F3001460B23E
:100E4000B0BD00BF40F20004C2F200046179A27C90
:100E5000206A94F90A308D1899B2002200F0E6FA5F
:100E600068B2FFF715FC0020FFF712FCFFF708FB44
:100E7000226A94F90A10044689B21046012200F051
:100E8000D5FA640960B2B0BD40F20004C2F20004B9
:100E90006179E27C94F90A30206A8D1899B20022B7
:100EA00000F0C4FA68B2FFF7F3FB0020FFF7F0FB95
:100EB000FFF7E6FA226A94F90A10044689B210464E
:100EC000012200F0B3FAC4F3021460B2B0BD00BF57
:100ED00040F20004C2F200046179E27CE8E000BF65
:100EE00040F20004C2F200046179627D0EE000BFAE
:100EF00040F20004C2F200046179627DD8E000BFD4
:100F000040F20004C2F200046179A27D94F90A3033
:100F1000206A8D1899B2002200F088FA68B2FFF7B3
:100F2000B7FB0020FFF7B4FBFFF7AAFA226A94F997
:100F30000A10044689B21046012200F077FA04F044
:100F40000F0460B2B0BD00BF40F20004C2F2000462
:100F50006179A27DACE000BF40F20004C2F200045F
:100F60006179E27D94F90A30206A8D1899B20022E5
:100F700000F05CFA68B2FFF78BFB0020FFF788FBFC
:100F8000FFF77EFA226A94F90A10044689B21046E5
:100F9000012200F04BFA04F0070460B2B0BD00BFBC
:100FA00040F20004C2F200046179E27D94F90A3053
:100FB000206A8D1899B2002200F038FA68B2FFF763
:100FC00067FB0020FFF764FBFFF75AFA226A94F9E7
:100FD0000A10044689B21046012200F027FAC4F331
:100FE000C20460B2B0BD00BF40F20004C2F200040F
:100FF0006179227E5CE000BF40F20004C2F200048E
:101000006179227E06E000BF40F20004C2F20004D3
:101010006179627E206A94F90A308D1899B20022B3
:1010200000F004FA68B2FFF733FB0020FFF730FB53
:10103000FFF726FA226A94F90A10044689B210468C
:10104000012200F0F3F904F01F0460B2B0BD00BF4C
:1010500040F20004C2F200046179A27E06E000BF03
:1010600040F20004C2F200046179227F94F90A3050
:10107000206A8D1899B2002200F0D8F968B2FFF703
:1010800007FB0020FFF704FBFFF7FAF9226A94F947
:101090000A10044689B21046012200F0C7F960B276
:1010A000B0BD00BF40F20004C2F200046179627E6C
:1010B00094F90A30206A8D1899B2002200F0B6F92E
:1010C00068B2FFF7E5FA0020FFF7E2FAFFF7D8F978
:1010D000226A94F90A10044689B21046012200F0EF
:1010E000A5F9E40960B2B0BD014690F821000228DC
:1010F00016D10868D1E90FC3026822F00E0202601F
:10110000026822F001020260012000FA03F2CCF82A
:10111000042081F821000020002281F8202070475F
:10112000042088630120002281F8202070470000FD
:1011300080B590F82110022924D10268116821F0AD
:101140000E0111602F211368C4F202018A4240F29D
:101150000401C4F2020123F00103136016DD302301
:10116000C4F202039A421DD04423C4F202039A42FD
:101170001CD05823C4F202039A421DD14FF480338D
:1011800022E000BF04218163012080BD0823C4F256
:1011900002039A420ED01C23C4F202039A420BD1DE
:1011A000102311E04FF480730EE000BF4FF4805322
:1011B0000AE000BF012307E001F1680C4FF08073E3
:1011C000624508BF4FF480130B60416B4FF480728F
:1011D000028401B18847002080BD0000B0B50446FC
:1011E00000F02AF9054640F22800C2F2000000781B
:1011F000611C18BF044400BF00F01EF9401BA04250
:10120000FAD3B0BD2DE9F04F82B00E68002E00F089
:10121000038140F20C4C41F200424FF6FF7EC4F2D3
:10122000010CC4F20102042700240123C1F2100EB4
:101230004FF0000A4FF00009904208BF03270097C3
:1012400045E000BF012704F00C030F229A402BEA6F
:10125000020207FA03F34FEA9A051A4346F82520DB
:10126000D1F804B040F20045C4F201055FEACB3288
:101270002A6854BF22EA080242EA08022A606A6821
:101280005FEA8B3354BF22EA080242EA08026A602E
:101290005FEACB23AA6854BF22EA080242EA0802A6
:1012A0005FEA8B23AA60DCF800204FF0010354BFF3
:1012B00022EA080242EA0802CCF800200E680AF18D
:1012C000010A36FA0AF204F1040400F0A58003FAD8
:1012D0000AF816EA080FF1D04E68764512DC122E95
:1012E00056D8DFE806F0350B454955555555555547
:1012F000555555555555554D510000BFD1F80C90D9
:1013000046E000BF4FF6FF72C1F2210296420FDCA9
:101310000022C1F2110296421AD00022C1F212023A
:10132000964215D00022C1F22102964210D02FE041
:101330000022C1F2220296420AD00022C1F23102FA
:10134000964205D00022C1F23202964220D100BF5F
:101350008A684AB1012A14BFC0F81480C0F810800E
:101360004FF0080914E000BF4FF0040910E000BF7F
:10137000CA6802F108090BE04FF0000908E000BF5D
:10138000CA6802F1040903E0CA6802F10C0900BF4F
:1013900022460646BAF1080F24BF203A04363768C1
:1013A0000F25954027EA050509FA02F22A43326023
:1013B000CA79D2067FF582AF41F21803C4F2020364
:1013C0001A6842F001021A601A6802F001020192E2
:1013D000019A40F20042C4F20102A2F57E762AF0A0
:1013E000030256F802B040F60002C4F20102904235
:1013F00010D040F60042C4F2010290423FF422AF06
:1014000041F20002C4F20102009F904208BF02278D
:1014100019E700BF002716E702B0BDE8F08F000013
:101420008068084018BF012070470000002A08BFEC
:10143000090401617047000040F29C10C2F20000F4
:101440000068704740F2280040F29C11C2F2000090
:10145000C2F2000100780A6810440860704700007A
:1014600080B542F20000C4F20200016841F01001B0
:101470000160032000F08EF80F2000F005F800F066
:1014800027F8002080BD000070B540F22806C2F2A7
:10149000000640F230013278C2F200014FF47A7354
:1014A0000968B3FBF2F20446B1FBF2F1084600F022
:1014B00063FB0F2C4FF0010508D838B94FF0FF300F
:1014C00021460022002500F039F87460284670BDDE
:1014D00082B041F21800C4F202000168022241F019
:1014E00001010160016801F0010101910199416868
:1014F00041F080514160406800F0805000900098B9
:101500000420C4F20100016862F31A61016002B0B4
:1015100070470000002848BF7047C1B200F01F00AC
:10152000012202FA00F04EF20012CEF2000242EA6C
:10153000D10121F0030108607047000010B54EF69C
:101540000C5CCEF2000CDCF80030C3F3022E8EF0FF
:101550000704042C28BF0424BEF103034FF0FF3E10
:101560000EFA04F438BF0023A14399400EFA03F3A6
:101570009A43114300F00F0200F160430901043A5D
:1015800003F564436244002848BF02F10C0319705C
:1015900010BD00004EF60C51CEF200010A684FF665
:1015A000FF031A4060F30A2242F0806040F0FD70B1
:1015B000086070472DE9F04381B0002800F0858075
:1015C00042F20008C4F202080446D8F800000D46B2
:1015D00000F0070088420CD2D8F8000020F0070085
:1015E0002843C8F80000D8F8000000F00700A8421F
:1015F0006BD1206841F204098107C4F2020917D5B2
:10160000410705D5D9F8001041F4E061C9F8001090
:10161000010705D5D9F8001041F46051C9F8001050
:10162000D9F80010A26821F0F0011143C9F80010A8
:10163000C00741D1D8F8000000F00700A8420CD93B
:10164000D8F8000020F007002843C8F80000D8F8B8
:10165000000000F00700A84237D12068410707D5F5
:10166000D9F80010E26821F4E0611143C9F80010D4
:10167000000708D5D9F80000216920F4605040EA3D
:10168000C100C9F80000D9F8002002F00C000828B9
:1016900041F20020C0F27A0050D142F67C53C2F3EE
:1016A0008341C0F60003595CD2033BD440F60010DE
:1016B000C0F23D00484341E0606802280AD001289A
:1016C0002AD159F8041C890308D4012001B0BDE8CF
:1016D000F08300BF59F8041C8901F6D5D9F8001031
:1016E00021F003010843C9F80000FFF7A5FE0646F4
:1016F00041F28837D9F80000616800F00C00B0EBC7
:10170000810F97D0FFF798FE801BB842F2D90320D3
:1017100001B0BDE8F08300BF59F8041C8907D4D597
:10172000DCE700BFD9F8002042F66253C2F3404222
:10173000C0F600039A5C4843B0FBF2F0D9F8001001
:1017400042F66452C1F30311C0F60002515C40F24C
:10175000300220FA01F140F22C00C2F200000068D1
:10176000C2F200021160FFF78FFE002001B0BDE859
:10177000F083000040F2300041F20401C2F20000A8
:10178000C4F202010068096842F67452C1F30221F2
:10179000C0F60002515CC8407047000040F23000C3
:1017A00041F20401C2F20000C4F2020100680968BB
:1017B00042F67452C1F3C221C0F60002515CC84027
:1017C000704700002DE9F04182B0002868D004463F
:1017D000007841F20006C007C4F2020625D0706806
:1017E00000F00C0004281BD0706800F00C000828E2
:1017F00002D17068C00313D46068002800F06881CB
:10180000B0F5A02F00F07C81B0F5803F00F07C8126
:10181000306820F480303060306820F4802076E139
:101820003068800301D56068D0B32078800718D570
:10183000706810F00C0F07D0706800F00C000828DA
:101840006ED17068C0036BD43068800702D5206900
:10185000012825D13068616920F0F80040EAC10014
:101860003060207800071FD42078400732D4E56923
:1018700095B1706800F00C00082840F08F80012DB1
:101880000ED07068216A00F480328A4208D1616A01
:1018900000F47010884203D1002002B0BDE8F0814E
:1018A000012002B0BDE8F081A069002862D00020CC
:1018B000C4F242200121C0F88014FFF7BDFD0546A7
:1018C000706A800700F18C80FFF7B6FD401B02288C
:1018D000F6D92AE1F06910F0805808D1F06940F09B
:1018E0008050F061F06900F080500090009847F25D
:1018F0000007C4F200073868C00529D4386840F4EE
:1019000080703860FFF798FD054600BF3868C00555
:101910001ED4FFF791FD401B6428F7D905E100BFF5
:101920002069002840F20000C4F2422000F08280CA
:1019300001210160FFF780FD054600BF3068800788
:101940003FF588AFFFF778FD401B0228F6D9ECE0A1
:10195000E068002800F08080052800F097800128CA
:1019600000F09880306A20F001003062306A20F088
:10197000040092E00020C4F242200021C0F880144C
:10198000FFF75AFD054600BF706A80077FF56CAF10
:10199000FFF752FD401B0228F6D9C6E00027C4F22B
:1019A000422700203866FFF747FD022D05460BD180
:1019B0003068800140F1BE80FFF73EFD401B0228E9
:1019C0004FF00300F4D968E7306880017FF564AF19
:1019D000FFF732FD401B02284FF00300F4D95CE70B
:1019E00040F23000C2F20000006844F6D351C1F268
:1019F0006201A0FB0101480A019000BF00BF0198ED
:101A0000411E002801913FF42FAF00BF0198411EF5
:101A1000002801913FF428AF00BF0198411E002823
:101A200001913FF421AF00BF0198411E00280191B0
:101A3000E4D119E700210160FFF7FEFC054600BF75
:101A4000306880077FF50DAFFFF7F6FC401B0228DA
:101A50004FF00300F4D920E7306A20F00100306233
:101A6000306A20F004003062FFF7E6FC054641F2E0
:101A7000883700BF306A800720D5FFF7DDFC401BA8
:101A8000B8424FF00300F5D907E700BF306A40F0D5
:101A900004003062306A40F001003062FFF7CCFC95
:101AA000054641F2883700BF306A800706D4FFF749
:101AB000C3FC401BB842F7D937E000BFB8F1000FB4
:101AC0007FF4D5AEF06920F08050F061CFE600BF22
:101AD000306820F480303060306820F4802030603E
:101AE000FFF7AAFC054600BF306880037FF59DAE76
:101AF000FFF7A2FC401B64284FF00300F4D9CCE6AA
:101B0000306840F480203060306840F480303060CD
:101B1000FFF792FC054600BF306880033FF585AEB5
:101B2000FFF78AFC401B6428F6D9032002B0BDE809
:101B3000F08100BF206AB0F5803F05D17168A268CE
:101B400021F40031114371607168626A21F47411EB
:101B500011430843706001203866FFF76DFC0446AE
:101B6000306880013FF598AEFFF766FC001B022845
:101B70004FF00300F4D990E6411E0020B0EB116F46
:101B80001CBF012070474EF21002CEF200025160DD
:101B90004EF62351CEF20001F0230B700721906026
:101BA0001160704710B590F83C20012A4FF00202F6
:101BB00033D080F83D200268D2F804E0D2F808C0A3
:101BC0000C682EF07003234340F2FF74C4F200044B
:101BD000A24253600ADCB2F1804F13D040F20043BE
:101BE000C4F200039A420DD011E000BF42F6004358
:101BF000C4F201039A4205D040F60003C4F2000388
:101C00009A4204D149682CF0800319439160012164
:101C1000002280F83D1080F83C20104610BD0000E6
:101C2000002804BF0120704710B5044690F83D001D
:101C300028B9002084F83C00204600F067F8022014
:101C400084F83D00206840F2FF730268C4F200038C
:101C500042F6004C9842C4F2010C15DCB0F1804F02
:101C60001AD040F20041C4F20001884214D09842D8
:101C700018DCB0F1804F1DD040F20041C4F20001E9
:101C8000884217D01AE000BF604505D040F6000139
:101C9000C4F200018842EAD1A16822F070020A432E
:101CA0009842E6DD604505D040F60001C4F200012F
:101CB000884203D1216922F440720A43A36922F0C9
:101CC0008001D4F804E0E268194360450160C26213
:101CD000C0F828E002D16169CCF8301001214161DF
:101CE000002084F8461084F83E1084F83F1084F8F1
:101CF000401084F8411084F8421084F8431084F8AE
:101D0000441084F8451084F83D1010BD82B000687E
:101D100040F20041C4F20001884211D0B0F1804F7E
:101D20001BD141F21C00C4F20200016841F0010124
:101D30000160006800F001000190019802B0704756
:101D400041F21C00C4F20200016841F0020101608E
:101D5000006800F002000090009802B07047000098
:101D600090F83D1001291CBF01207047022180F826
:101D70003D10006840F2FF72C168C4F20002904258
:101D800041F00101C16009DCB0F1804F12D040F296
:101D90000041C4F2000188420CD012E042F600413A
:101DA000C4F20101884205D040F60001C4F20001EE
:101DB000884206D1816801F00701062904BF00208E
:101DC0007047016841F00101016000207047000088
:101DD0000146006841F21113C26822F00102C2609C
:101DE000026A1A4204D00122002081F83D20704787
:101DF000026A40F244431A42F5D1026822F001021D
:101E000002600122002081F83D20704780B590F8E3
:101E10003C20012A4FF0020200F0BF8080F83D20F4
:101E2000D0F800C04FF67772DCF8083023EA0202DF
:101E3000CCF808200B683F2B1CDD5F2B20DD602BCE
:101E400050D0B3F5005F6DD0702B40F0A080D1E989
:101E500001E3C968DCF8082043EA0E0322F47F425C
:101E600043EA01211143CCF80810DCF8081041F0D6
:101E700077018AE01F2B29DC63B3102B2AD086E080
:101E8000402B63D0502B40F08280D1F804E0C96829
:101E9000DCF82030DCF8202022F00102CCF82020F1
:101EA000DCF8182022F0F00242EA011123F00A02C5
:101EB00042EA0E02CCF81810CCF82020DCF808100A
:101EC00041F0570121F020015FE000BF202B01D03D
:101ED000302B5CD1DCF8081021F07001194341F07F
:101EE000070152E0D1F804E0C968DCF8203023F0A3
:101EF0001003CCF82030DCF81830DCF8202023F474
:101F0000704322F0A00243EA013142EA0E12CCF8FB
:101F10001810CCF82020DCF8081041F0670121F0FF
:101F2000100132E0D1E901E3C968DCF8082043EA96
:101F30000E0322F47F4243EA01211143CCF808103A
:101F4000DCF8081041F480411FE000BFD1F804E044
:101F5000C968DCF82030DCF8202022F00102CCF83F
:101F60002020DCF8182022F0F00242EA011123F0D0
:101F70000A0242EA0E02CCF81810CCF82020DCF855
:101F8000081041F0470121F03001CCF80810012180
:101F9000002280F83D1080F83C20104680BD0000F3
:101FA0007047000070470000B0B582B00268054677
:101FB0001068D368546900F02F01202903F0200134
:101FC00006D129B1284602B0BDE8B04000F026BCD9
:101FD0005FEA007C1EBF04F0010E03F4907414EB62
:101FE0000E0453D1296B012905D110F0100118BF3F
:101FF00013F0100136D1010622D513F080011FD055
:1020000095F83D0021283FD1A868B0F5805F03D145
:102010002869002800F0F880286A411C29620078AD
:102020005060E88C01380104E8842DD1D06820F09C
:102030008000D060D06840F04000D06002B0B0BDF9
:10204000400621D513F040001ED0D068202120F09A
:102050004000D060284685F83D1002B0BDE8B04091
:1020600000F0C2BA00200190106801905068019001
:1020700001985069400611D4A88DE98DEB8D002B95
:1020800018BF884240F0A68002B0B0BDC40718BF98
:1020900013F480732CD1430730D436E0A86B016869
:1020A0004B689CB2002CEFD0A98D8C42ECD2EB8512
:1020B0008369202B17D0D16821F48071D1605169D8
:1020C00021F001015161516921F04001516120214C
:1020D00085F83E1000212963D16821F01001D160FC
:1020E000FFF702F8A98DE88D081A81B2284685E02D
:1020F0002B6C43F001032B64430706D5BEF1000FA0
:1021000003D02B6C43F002032B64830706D5BEF18A
:10211000000F03D02B6C43F004032B64BCF1000FC1
:1021200009D541EA0E03B3FA83F35B0903D12B6CA3
:1021300043F008032B642B6C002BA5D010F020007B
:1021400018BF002903D0284600F068FB2A685069B0
:10215000296C00F0400001F0080140182CD0D06834
:1021600020F49070D060506920F001005061286B1D
:10217000012803D1D06820F01000D060202085F81D
:102180003E0000202863506940061DD5506920F0AC
:1021900040005061A86BB8B142F61101C0F60001D1
:1021A0004163FEF7C5FF00283FF46EAFA86B416B9B
:1021B00002B0BDE8B04008472846FFF7F3FE002014
:1021C000286402B0B0BD00BF284602B0BDE8B040F0
:1021D000FFF7E8BED368401A23F49073D3605369C5
:1021E00081B223F001035361202385F83E300023A0
:1021F0002B63D368284623F01003D36002B0BDE8F8
:10220000B040FFF7CDBE00BF286A30F8021B6FF365
:102210005F215160286204E7002804BF0120704755
:1022200010B5044690F83D0028B9002084F83C0021
:10223000204600F061F8242084F83D002068D4E9AD
:102240000212C36823F40053C360036923F44053AC
:102250001A430261D4E904231143C268194341F2CD
:102260000C639A431143C1604169A26921F4407132
:10227000114343F60002C4F201029042416103D0CF
:10228000FFF778FA02E000BFFFF788FA62681921C9
:1022900048439100B0FBF1F048F21F51C5F2EB1139
:1022A000A0FB01235A094FF69C73C0F6FF7302FB93
:1022B0000300322303EB0010A0FB0101F02303EA2B
:1022C0005113206803EB0212C1F3431111448160E2
:1022D000016921F490410161416921F02A014161C4
:1022E000C16841F40051C16000202021206484F8BD
:1022F0003D1084F83E1010BD70B586B040F6000465
:10230000C4F20104006804F5405100268842049696
:1023100002D006B070BD00BF41F21800C4F2020046
:10232000016802AD41F480410160016801F480411F
:1023300001910199016841F004010160006829469A
:1023400000F00400019001984FF400700290022008
:102350000390032005902046FEF754FF4FF4806061
:10236000CDE90206204629460496FEF74BFF2520BC
:1023700000210022FFF7E2F82520FFF7CBF806B096
:1023800070BD0000034690F83E0020280AD10029C5
:102390004FF0010018BF002A00D1704793F83C00AD
:1023A000012801D102207047002018639962222180
:1023B0009A85DA85186483F83E10196883F83C0022
:1023C000CA6842F48072CA604A6942F001024A61F6
:1023D000CA6842F02002CA6070470000B0B540F2FF
:1023E0009805C2F200052C1D2046FEF767FA05F19C
:1023F0002C0021460422BDE8B040FFF7C3BF000017
:102400002DE9F041044690F83D0020280ED10D46FC
:1024100000294FF0010000F08E801646002A08BF08
:10242000BDE8F08194F83C00012803D10220BDE80A
:10243000F08100BF012084F83C00002020642120AE
:10244000984684F83D00FEF7F7FFA684E684A1686D
:102450000646B1F5805F03D12069002800F0A08016
:102460002F460025002084F83C00E08CE0B118F1F4
:1024700001001BD0B8F1000F60D120680BE000BF55
:1024800035F8021B00276FF35F214160E18C0139B1
:10249000E184E18C51B3016809066DD5002FEFD0BE
:1024A00017F8011BF1E700BF20681FE0206802E079
:1024B0000168090609D40168090606D401680906FD
:1024C0005CBF01685FEA0161F2D51FB117F8011B1B
:1024D00005E000BF35F8021B00276FF35F21416064
:1024E000E18C0139E184E18C0029E4D101684906DD
:1024F0001DD4B8F1000F3FD018F101010ED10168D1
:10250000490614D4016849065CBF01685FEA41616D
:102510000DD401684906F2D509E000BFFEF78CFF33
:10252000811B2068414527D800684006F6D5202049
:1025300084F83D000020BDE8F08100BF206800BFA6
:102540000168090606D4FEF777FF811B2068414524
:10255000F6D911E017B117F8011B04E035F8021B9A
:1025600000276FF35F214160E18C0139E184E18C48
:102570000029E5D1BAE700BFC16821F4D071C1607C
:10258000416921F001014161202084F83D0084F877
:102590003E00002084F83C000320BDE8F08100BF2D
:1025A00000275FE7034690F83D0020280AD1002964
:1025B0004FF0010018BF002A00D1704793F83C008B
:1025C000012801D1022070471962002021219A843C
:1025D000DA84186483F83D10196883F83C00CA68EF
:1025E00042F08002CA60704740F20000C2F2000070
:1025F0000121417770470000FEE70000FEE7000080
:10260000FEE700007047000070B524260446C4F2BF
:1026100000060020306040F20C10C2F20000FFF70C
:102620009FFB40F20005C2F2000595F90C10686AA4
:1026300089B20022FEF7FAFE697BAA7B686A114321
:1026400049B289B20122FEF7F1FEFEF77FF800BF22
:102650003068A04208D23068A04205D23068A0425B
:1026600002D23068A042F3D340F20C10C2F2000054
:10267000FFF7AEFB297B6A7BAB7B11431943686A8A
:1026800049B289B20022BDE87040FEF7CFBE00001B
:1026900070470000B0B51D2888BFB0BD0C4640F2A1
:1026A0000005C2F20005DFE800F00F151AADAD20FD
:1026B000262B30363C41474D53585E64696F747A1F
:1026C0007F858B90969BA0A52101687CCAB23021A2
:1026D000FDF7B8FD687CE2B20F21FDF7B3FDE10123
:1026E000687CCAB28021FDF7ADFD6100687CCAB28A
:1026F0000221FDF7A7FD687CE2B20121FDF7A2FDF2
:10270000287CE2B20321FDF79DFDA100287CCAB21E
:102710000421FDF797FDE100287CCAB20821FDF7EE
:1027200091FDA87CE2B20721FDF78CFDE100A87CB9
:10273000CAB20821FDF786FD2101A87CCAB210218A
:10274000FDF780FD6101A87CCAB2E021FDF77AFDAA
:10275000E87EE2B2FF21FDF775FD2101E87CCAB2F7
:102760007021FDF76FFDE101E87CCAB28021FDF721
:1027700069FD687DE2B20F21FDF764FD2101687DEE
:10278000CAB2F021FDF75EFDA87DE2B20F21FDF790
:1027900059FD2101A87DCAB2F021FDF753FDE87D66
:1027A000E2B20721FDF74EFDE100E87DCAB2382113
:1027B000FDF748FDE101287ECAB28021FDF742FD08
:1027C000287EE2B21F21FDF73DFDE101687ECAB21D
:1027D0008021FDF737FD687EE2B21F21FDF732FD53
:1027E000A87EE2B2FF21FDF72DFDE87EE2B2FF21D7
:1027F000FDF728FD287FE2B2FF21BDE8B040FDF7DC
:1028000021BD00BFB0BD0000FEF71CBE7047000038
:10281000406A0021C185C184FFF7C4BB81B090F834
:102820003E10222921D183680246B3F5805F09D189
:1028300052F8281F52F8183C002B3FD003685B6801
:102840000AE000BF52F8281F13B90369002BF5D026
:1028500003685B6803F07F030B701168013111603E
:10286000C18D01390A04C18502D001B0704700BF93
:102870000168CA6822F02002CA60CA6822F4807225
:10288000CA604A6922F001024A61202280F83E2093
:10289000026B012A1AD100220263CB6823F01003D5
:1028A000CB600B68DB0605D500920A680092496888
:1028B00000910099818D01B0FFF772BB02685268E8
:1028C0006FF35F2221F8022B8162C9E701B0FFF7A5
:1028D00085BD000040F2C400C2F20000FFF764BBF7
:1028E000FEE7000092B0FEF7BBFD00240120CDE919
:1028F0000D44CDE90B440C9010200D904FF4601066
:102900000225119008A8CDE909440895CDE90F5496
:10291000FEF758FF20B1EFF3108072B6FEE700BF5C
:102920000F20CDE902054FF4E060CDE9050402A8CF
:1029300002210494FEF73EFE20B1EFF3108072B640
:10294000FEE700BF002541F218000B95C4F202001B
:10295000016840F2244641F0040101600168C4F2BC
:10296000000601F00401029102990168002241F081
:10297000080101600068AC2100F008000290029894
:1029800006F5803000F577742046FEF74FFD2046AF
:10299000502101224FF00109FEF748FD06F5823073
:1029A00000F57778404638210022FEF73FFD08AF5A
:1029B0004FF0030A4FF0020B20463946CDE908A537
:1029C000CDF828B0FEF71EFC0C20CDE90809204602
:1029D0003946CDE90A5AFEF715FCB020CDE90809C1
:1029E00020463946CDE90A5BFEF70CFC4020CDE9D4
:1029F000080920463946CDE90A9AFEF703FC38203B
:102A0000CDE9080940463946CDE90A5BFEF7FAFBF5
:102A100040F20C10C2F200004FF080414FF6FF73FD
:102A20000B95CDE90955CDE90255072280E826002E
:102A3000C0E903358561FFF7F3F828B1EFF31080A3
:102A400072B600BFFEE700BF4FF48050089040F21E
:102A50000C10C2F2000008A9FFF7D8F920B1EFF37B
:102A6000108072B6FEE700BF40F20C10C2F2000008
:102A700002A9FFF797F828B1EFF3108072B600BFF4
:102A8000FEE700BF40F2980406F59830C2F2000459
:102A900000F57771204640F82C1F4FF4E1310025F6
:102AA0000C22C0E90115C0E90355C0E90525C5613F
:102AB000FFF7B2FB20B1EFF3108072B6FEE700BF64
:102AC00040F25410A6F12401C2F200004FF6FF724A
:102AD0000B95CDE90955CDE90255C0E90015C0E9CE
:102AE000025205618561FFF79BF828B1EFF3108072
:102AF00072B600BFFEE700BF4FF48050089040F26E
:102B00005410C2F2000008A9FFF780F920B1EFF3DA
:102B1000108072B6FEE700BF40F25410C2F200000F
:102B200002A9FFF73FF828B1EFF3108072B600BF9B
:102B3000FEE700BF04F12C07251D38462946042274
:102B4000FFF720FC3846294604220197FFF72AFDAB
:102B500040F2000440F25415C2F200044FF0010AA2
:102B60004FF0000BC2F2000512E000BF019808A967
:102B700001228DF82080FFF715FD94F90A10206AD4
:102B800089B20122FEF752FC41F28830FEF726FBA3
:102B900094F90A10206A89B200220027FEF746FC49
:102BA0000DE000BF2846FFF713F994F90910206AD9
:102BB00089B20022FEF73AFC0137082F3AD00AFA10
:102BC00007F094F9081010F02502206A89B218BFA6
:102BD0000122FEF72BFC2846C6F800B0FFF7C0F82C
:102BE0003068012808D83068012805D830680128E5
:102BF00002D830680228F3D32846FFF7E9F894F9A1
:102C00000910206A89B20122FEF710FC2846C6F896
:102C100000B0FFF7A5F800BF30680128C2D83068BF
:102C20000128BFD830680128BCD830680228F3D307
:102C3000B8E700BF00270CE02846FFF7C9F894F971
:102C40000910206A89B20022FEF7F0FB0137082F35
:102C500038D094F90830B7FA87F1206A4A0999B256
:102C6000FEF7E4FB2846C6F800B0FFF779F800BF8E
:102C70003068012808D83068012805D83068012854
:102C800002D830680228F3D32846FFF7A1F894F958
:102C90000910206A89B20122FEF7C8FB2846C6F84F
:102CA00000B0FFF75DF800BF30680128C4D8306875
:102CB0000128C1D830680128BED830680228F3D373
:102CC000BAE700BF4FF000084FF000090DE000BF69
:102CD00007FA09F048EA00082846FFF779F809F1F1
:102CE0000109B9F1080F3FF441AF94F90910206AC6
:102CF00089B20122FEF79AFB94F90710206A89B283
:102D0000FEF78EFB07462846C6F800B0FFF728F806
:102D10003068012808D83068012805D830680128B3
:102D200002D830680228F3D32846FFF751F894F907
:102D30000910206A89B20022FEF778FB2846C6F8FF
:102D400000B0FFF70DF800BF30680128C0D8306828
:102D50000128BDD830680128BAD830680228F3D3DA
:102D6000B6E70102000000000000000001020304B9
:102D7000060708090000000001020304020304051D
:102D8000060708090A0B0C0D0E0F1010B02D0008D5
:102D9000000000203800000028010008E82D00088D
:102DA000380000206807000044010008000000000F
:102DB00006080A1719200102040810202010080133
:102DC00002030405060D0E0F10111213140100006A
:102DD00000080140000C014001000000100000004C
:082DE0000024F40000000000D3
:04000005080000ED02
:00000001FF
