:020000040800F2
:100000000809002089010008152100080D210008B9
:1000100011210008DD0A000881220008000000000C
:10002000000000000000000000000000A521000802
:10003000C50D00080000000019210008A9210008D2
:10004000A3010008A3010008A3010008A301000800
:10005000A3010008A3010008A3010008A3010008F0
:10006000A3010008A3010008A3010008A3010008E0
:10007000A3010008A3010008A3010008A3010008D0
:10008000A3010008A3010008A3010008A3010008C0
:10009000A3010008A3010008A3010008A3010008B0
:1000A000A3010008A3010008A3010008A3010008A0
:1000B000A3010008A3010008A3010008A301000890
:1000C000A3010008A3010008A3010008A301000880
:1000D000A301000875220008A3010008A30100087D
:1000E000A3010008A3010008A301000800F002F822
:1000F00000F03AF80AA090E8000C82448344AAF188
:100100000107DA4501D100F02FF8AFF2090EBAE885
:100110000F0013F0010F18BFFB1A43F0010318473B
:100120002426000044260000103A24BF78C878C175
:10013000FAD8520724BF30C830C144BF04680C60ED
:10014000704700000023002400250026103A28BF35
:1001500078C1FBD8520728BF30C148BF0B60704739
:100160001FB51FBD10B510BD00F031F81146FFF7E7
:10017000F7FF02F087F800F04FF803B4FFF7F2FF43
:1001800003BC00F057F800000948804709480047C1
:10019000FEE7FEE7FEE7FEE7FEE7FEE7FEE7FEE737
:1001A000FEE7FEE704480549054A064B7047000094
:1001B000AD210008ED000008080300200809002018
:1001C00008050020080500207047704770477546F5
:1001D00000F02CF8AE4605006946534620F00700B3
:1001E000854618B020B5FFF7DDFFBDE820404FF091
:1001F00000064FF000074FF000084FF0000BAC4630
:10020000ACE8C009ACE8C009ACE8C009ACE8C0097A
:1002100021F007018D46704710B50446AFF300800A
:100220002046BDE81040FFF7A8BF00000048704717
:100230003800002001491820ABBEFEE7260002006E
:100240007047000040F22B00C2F20000007801224B
:1002500000F0D0F840F22400C2F200000078012241
:1002600000F0C8F840F22900C2F200000078012234
:1002700000F0C0F840F20000C2F20000C07B012292
:1002800000F0B8F840F22500C2F200000078012228
:1002900000F0B0F840F22600C2F20000007801221F
:1002A00000F0A8F840F20000C2F20000C07B01227A
:1002B00000F0A0F840F22A00C2F20000007801220B
:1002C00000F098F840F22B00C2F200000078012202
:1002D00000F090F840F22700C2F2000000780122FE
:1002E00000F088F840F22700C2F2000000780122F6
:1002F00000F080F840F22800C2F2000000780122ED
:1003000000F078F840F22800C2F2000000780122E4
:1003100000F070F840F20000C2F20000C07B012241
:1003200000F068F840F22E00C2F2000000780122CE
:1003300000F060F840F22F00C2F2000000780122C5
:1003400000F058F840F22E00C2F2000000780122BE
:1003500000F050F840F22F00C2F2000000780122B5
:1003600000F048F840F20000C2F20000C07B012219
:1003700000F040F840F22D00C2F2000000780122A7
:1003800000F038F840F22D00C2F20000007801229F
:1003900000F030F840F22A00C2F20000007801229A
:1003A00000F028F840F22A00C2F200000078012292
:1003B00000F020F840F22A00C2F20000007801228A
:1003C00000F018F840F22900C2F200000078012283
:1003D00000F010F840F22900C2F20000007801227B
:1003E00000F008F840F22C00C2F200000078012270
:1003F00000F000F82DE9F04140F20005C2F20005DE
:10040000884669790C18511E95F90A206869CEB2A0
:1004100091B2002200F066FE200640EA0640071472
:100420000F2400BF95F9083027FA04F1686901F03C
:10043000010299B200F056FE95F90910686989B277
:10044000012200F04FFE95F90910686989B2002277
:1004500000F048FE013C601CE4D1741CA8F10106C8
:1004600000F01EF8013C06F8010FF9D195F90A10C9
:10047000686989B20122BDE8F04100F033BE000096
:1004800040F20410C2F2000000780122FFF7B2FF30
:1004900040F20410C2F2000000780122FFF7AAFF28
:1004A000B0B540F20005C2F2000595F9091068697F
:1004B00089B2012200F016FE95F90710686989B229
:1004C00000F00AFE6A6995F90910044689B21046DF
:1004D000002200F007FE95F90910686989B201222F
:1004E00000F000FE95F90710686989B200F0F4FD8C
:1004F0006A6995F9091044EA400489B2104600225D
:1005000000F0F0FD95F90910686989B2012200F048
:10051000E9FD95F90710686989B200F0DDFD6A69A7
:1005200095F9091044EA800489B21046002200F0CF
:10053000D9FD95F90910686989B2012200F0D2FD50
:1005400095F90710686989B200F0C6FD6A6995F9E6
:10055000091044EAC00489B21046002200F0C2FD2E
:1005600095F90910686989B2012200F0BBFD95F97F
:100570000710686989B200F0AFFD6A6995F9091042
:1005800044EA001489B21046002200F0ABFD95F950
:100590000910686989B2012200F0A4FD95F90710DD
:1005A000686989B200F098FD6A6995F9091044EA12
:1005B000401489B21046002200F094FD95F909100C
:1005C000686989B2012200F08DFD95F9071068690C
:1005D00089B200F081FD6A6995F9091044EA801436
:1005E00089B21046002200F07DFD95F90910686976
:1005F00089B2012200F076FD95F90710686989B289
:1006000000F06AFD6A6995F9091044EAC01489B2DC
:100610001046002200F066FDE0B2B0BD40F22B00B3
:10062000C2F2000000780122FFF7E4FE40F224004D
:10063000C2F2000000780122FFF7DCFE40F2290040
:10064000C2F2000000780122FFF7D4FE40F2000061
:10065000C2F20000C07B0122FFF7CCFE40F2250071
:10066000C2F2000000780122FFF7C4FE40F226002B
:10067000C2F2000000780122FFF7BCFE40F2000049
:10068000C2F20000C07B0122FFF7B4FE40F22A0054
:10069000C2F2000000780122FFF7ACFE40F22B000E
:1006A000C2F2000000780122FFF7A4FE40F227000A
:1006B000C2F2000000780122FFF79CFE40F2270002
:1006C000C2F2000000780122FFF794FE40F22800F9
:1006D000C2F2000000780122FFF78CFE40F22800F1
:1006E000C2F2000000780122FFF784FE40F2000011
:1006F000C2F20000C07B0122FFF77CFE40F22E0018
:10070000C2F2000000780122FFF774FE40F22F00D1
:10071000C2F2000000780122FFF76CFE40F22E00CA
:10072000C2F2000000780122FFF764FE40F22F00C1
:10073000C2F2000000780122FFF75CFE40F20000E8
:10074000C2F20000C07B0122FFF754FE40F22D00F0
:10075000C2F2000000780122FFF74CFE40F22D00AB
:10076000C2F2000000780122FFF744FE40F22A00A6
:10077000C2F2000000780122FFF73CFE40F22A009E
:10078000C2F2000000780122FFF734FE40F22A0096
:10079000C2F2000000780122FFF72CFE40F229008F
:1007A000C2F2000000780122FFF724FE40F2290087
:1007B000C2F2000000780122FFF71CFE40F20000A8
:1007C000C2F20000C07B0122FFF714FE10B540F218
:1007D0000004C2F20004207C0122FFF70BFEE07B44
:1007E0000122FFF707FE207CFF2100F03BF9E07BB0
:1007F000002100F037F994F90A10606989B20022EB
:1008000000F070FC94F9040000F012F894F90A105A
:10081000606989B2012200F065FC207C002100F0B3
:1008200021F9E07B0021BDE8104000F01BB9000079
:10083000B0B540F20005C2F2000595F90830044653
:10084000C1B26869CA0999B200F04CFC95F9091067
:10085000686989B2012200F045FC95F909106869C0
:1008600089B2002200F03EFC95F908106869C4F3D3
:10087000801289B200F036FC95F90910686989B2D6
:10088000012200F02FFC95F90910686989B2002255
:1008900000F028FC95F908106869C4F3401289B289
:1008A00000F020FC95F90910686989B2012200F076
:1008B00019FC95F90910686989B2002200F012FC50
:1008C00095F908106869C4F3001289B200F00AFCB7
:1008D00095F90910686989B2012200F003FC95F9C5
:1008E0000910686989B2002200F0FCFB95F9081034
:1008F0006869C4F3C00289B200F0F4FB95F90910ED
:10090000686989B2012200F0EDFB95F90910686968
:1009100089B2002200F0E6FB95F908106869C4F37B
:10092000800289B200F0DEFB95F90910686989B28E
:10093000012200F0D7FB95F90910686989B20022FD
:1009400000F0D0FB95F908106869C4F3400289B241
:1009500000F0C8FB95F90910686989B2012200F01E
:10096000C1FB95F90910686989B2002200F0BAFB51
:1009700095F90810686904F0010289B200F0B2FB31
:1009800095F90910686989B2012200F0ABFB95F96D
:100990000910686989B20022BDE8B04000F0A2BB2E
:1009A000F0B581B040F20005C2F2000595F90B10D8
:1009B000686940F2244689B20122C4F2000600F0C0
:1009C00091FB0020306040F2B820C2F2000001F03C
:1009D00023F840F27020C2F2000001F01DF800BFC1
:1009E0003068042808D83068042805D830680428FE
:1009F00002D830680528F3D340F2B824C2F20004CC
:100A0000204601F041F895F90B10686989B200227F
:100A1000002700F067FB2046376000F0FDFF40F242
:100A20007020C2F2000000F0F7FF00BF3068042819
:100A300008D83068042805D83068042802D83068FF
:100A40000528F3D340F2B820C2F2000001F01CF8F0
:100A500095F90B10686989B2012201B0BDE8F04038
:100A600000F040BBF0B581B040F20005C2F20005D5
:100A70000C46A97995F90A20014468690E0291B2E1
:100A8000002200F02FFB36B20F2700BF95F9083087
:100A900026FA07F1686901F0010299B200F022FB21
:100AA00095F90910686989B2012200F01BFB95F9DC
:100AB0000910686989B2002200F014FB013F781C1C
:100AC000E4D160B2FFF7B4FE95F90A10686989B203
:100AD000012201B0BDE8F04000F004BBFEE70000D9
:100AE00070B5044600780C2800F27C80DFE810F036
:100AF0000E002200620162017C0080009600B800B6
:100B0000C5005E0046011A00580100BF40F298017E
:100B1000C2F2000101F1280004310422BDE8704056
:100B200001F0CABA40F29800C2F20000012101703F
:100B300058E000BF40F20005C2F2000595F90A1026
:100B4000686940F2244489B20022C4F200040026FD
:100B500000F0C8FA95F90000FFF76AFE95F90A104F
:100B6000686989B2012200F0BDFA40F2B820C2F2F1
:100B70000000266000F050FF40F27020C2F200003A
:100B800000F04AFF2068082808D82068082805D8FF
:100B90002068082802D820680928F3D340F2B8203A
:100BA000C2F20000BDE8704000F06EBFE0781D2882
:100BB00018D840F2081100EB4000C2F2000101EB2E
:100BC00080008068804740F298060346C2F2000623
:100BD00006F1080106F1280001227372BDE8704099
:100BE00001F06ABA70BD00BFBDE87040FFF7EEBD0E
:100BF00040F20005C2F2000595F90A10686989B251
:100C0000002200F06FFA95F90300FFF711FE95F945
:100C10000A10686989B2012200F064FA40F2000506
:100C2000C2F20005287C0122FFF7E4FB287C0A21A0
:100C3000FFF718FF95F90A10686989B2002200F0E1
:100C400051FA95F90300FFF7F3FD95F90A10686969
:100C500089B2012200F046FA287C0021FFF702FF4A
:100C6000E17840F20000C2F20000007CC9074FF0BA
:100C7000070108BF0321FFF7F5FE40F20815C2F295
:100C80000005A868804740F298046969C2F2000430
:100C900004F8080F8847296A60708847E96AA070DD
:100CA0008847A96BE0708847696C20718847296D77
:100CB00060718847E96DA0718847A96EE071884727
:100CC000696F20728847D5F8801060728847D5F820
:100CD0008C10A0728847D5F89810E0728847D5F834
:100CE000A41020738847D5F8B01060738847D5F8F2
:100CF000BC10A0738847D5F8C810E0738847D5F8B2
:100D0000D41020748847D5F8E01060748847D5F86F
:100D1000EC10A0748847D5F8F810E0748847D5F82F
:100D2000041120758847D5F8101160758847D5F8EB
:100D30001C11A0758847D5F82811E0758847D5F8AB
:100D4000341120768847D5F8401160768847D5F869
:100D50004C11A0768847D5F85811E0768847D5F829
:100D6000641120778847034604F1200021461E22A3
:100D70006377BDE8704001F09FB900BFE0781D289F
:100D800088BF70BDA17840F2081201EB4101C2F2A8
:100D9000000202EB8101496840B2BDE8704008479B
:100DA00040F29800C2F20000B0F90200BDE87040C5
:100DB00001F0B4B940F20000C2F20000C07B012291
:100DC000FFF718FB70470000014690F82100022849
:100DD00016D10868D1E90FC3026822F00E02026042
:100DE000026822F001020260012000FA03F2CCF84E
:100DF000042081F821000020002281F82020704783
:100E0000042088630120002281F820207047000020
:100E100080B590F82110022924D10268116821F0D0
:100E20000E0111602F211368C4F202018A4240F2C0
:100E30000401C4F2020123F00103136016DD302324
:100E4000C4F202039A421DD04423C4F202039A4220
:100E50001CD05823C4F202039A421DD14FF48033B0
:100E600022E000BF04218163012080BD0823C4F279
:100E700002039A420ED01C23C4F202039A420BD101
:100E8000102311E04FF480730EE000BF4FF4805345
:100E90000AE000BF012307E001F1680C4FF0807306
:100EA000624508BF4FF480130B60416B4FF48072B2
:100EB000028401B18847002080BD00002DE9F04F79
:100EC00082B00E68002E00F0038140F20C4C41F21B
:100ED00000424FF6FF7EC4F2010CC4F20102042767
:100EE00000240123C1F2100E4FF0000A4FF0000958
:100EF000904208BF0327009745E000BF012704F098
:100F00000C030F229A402BEA020207FA03F34FEA7E
:100F10009A051A4346F82520D1F804B040F200455E
:100F2000C4F201055FEACB322A6854BF22EA080204
:100F300042EA08022A606A685FEA8B3354BF22EAF9
:100F4000080242EA08026A605FEACB23AA6854BF3B
:100F500022EA080242EA08025FEA8B23AA60DCF870
:100F600000204FF0010354BF22EA080242EA0802BF
:100F7000CCF800200E680AF1010A36FA0AF204F1F0
:100F8000040400F0A58003FA0AF816EA080FF1D06D
:100F90004E68764512DC122E56D8DFE806F0350B87
:100FA0004549555555555555555555555555554D15
:100FB000510000BFD1F80C9046E000BF4FF6FF7221
:100FC000C1F2210296420FDC0022C1F211029642C8
:100FD0001AD00022C1F21202964215D00022C1F2AC
:100FE0002102964210D02FE00022C1F22202964246
:100FF0000AD00022C1F23102964205D00022C1F28D
:101000003202964220D100BF8A684AB1012A14BF39
:10101000C0F81480C0F810804FF0080914E000BF39
:101020004FF0040910E000BFCA6802F108090BE0A4
:101030004FF0000908E000BFCA6802F1040903E0AC
:10104000CA6802F10C0900BF22460646BAF1080F31
:1010500024BF203A043637680F25954027EA050556
:1010600009FA02F22A433260CA79D2067FF582AFCA
:1010700041F21803C4F202031A6842F001021A6036
:101080001A6802F001020192019A40F20042C4F291
:101090000102A2F57E762AF0030256F802B040F66D
:1010A0000002C4F20102904210D040F60042C4F2A5
:1010B000010290423FF422AF41F20002C4F2010269
:1010C000009F904208BF022719E700BF002716E7DC
:1010D00002B0BDE8F08F00008068084018BF012012
:1010E00070470000002A08BF090401617047000032
:1010F00040F20030C2F200000068704740F21C006D
:1011000040F20031C2F20000C2F2000100780A6829
:10111000104408607047000080B542F20000C4F23D
:101120000200016841F010010160032000F08EF818
:101130000F2000F005F800F027F8002080BD000027
:1011400070B540F21C06C2F2000640F2340132785B
:10115000C2F200014FF47A730968B3FBF2F204465D
:10116000B1FBF2F1084600F063FB0F2C4FF00105D4
:1011700008D838B94FF0FF3021460022002500F092
:1011800039F87460284670BD82B041F21800C4F28C
:1011900002000168022241F001010160016801F0D2
:1011A000010101910199416841F08051416040681D
:1011B00000F08050009000980420C4F20100016803
:1011C00062F31A61016002B070470000002848BF56
:1011D0007047C1B200F01F00012202FA00F04EF287
:1011E0000012CEF2000242EAD10121F003010860B0
:1011F0007047000010B54EF60C5CCEF2000CDCF827
:101200000030C3F3022E8EF00704042C28BF042400
:10121000BEF103034FF0FF3E0EFA04F438BF002383
:10122000A14399400EFA03F39A43114300F00F02D1
:1012300000F160430901043A03F564436244002865
:1012400048BF02F10C03197010BD00004EF60C519E
:10125000CEF200010A684FF6FF031A4060F30A223B
:1012600042F0806040F0FD70086070472DE9F04367
:1012700081B0002800F0858042F20008C4F2020824
:101280000446D8F800000D4600F0070088420CD252
:10129000D8F8000020F007002843C8F80000D8F86C
:1012A000000000F00700A8426BD1206841F2040959
:1012B0008107C4F2020917D5410705D5D9F80010F6
:1012C00041F4E061C9F80010010705D5D9F8001014
:1012D00041F46051C9F80010D9F80010A26821F05B
:1012E000F0011143C9F80010C00741D1D8F800003F
:1012F00000F00700A8420CD9D8F8000020F0070041
:101300002843C8F80000D8F8000000F00700A84201
:1013100037D12068410707D5D9F80010E26821F4D9
:10132000E0611143C9F80010000708D5D9F80000A2
:10133000216920F4605040EAC100C9F80000D9F8E2
:10134000002002F00C00082841F20020C0F27A00D0
:1013500050D142F23473C2F38341C0F60003595CAA
:10136000D2033BD440F60010C0F23D00484341E0B8
:10137000606802280AD001282AD159F8041C890380
:1013800008D4012001B0BDE8F08300BF59F8041C67
:101390008901F6D5D9F8001021F003010843C9F8F6
:1013A0000000FFF7A5FE064641F28837D9F8000095
:1013B000616800F00C00B0EB810F97D0FFF798FE4A
:1013C000801BB842F2D9032001B0BDE8F08300BF12
:1013D00059F8041C8907D4D5DCE700BFD9F80020F0
:1013E00042F21A73C2F34042C0F600039A5C4843CB
:1013F000B0FBF2F0D9F8001042F21C72C1F30311F5
:10140000C0F60002515C40F2340220FA01F140F2D1
:101410002000C2F200000068C2F200021160FFF773
:101420008FFE002001B0BDE8F083000040F23400E0
:1014300041F20401C2F20000C4F20201006809682E
:1014400042F22C72C1F30221C0F60002515CC84086
:101450007047000040F2340041F20401C2F2000083
:10146000C4F202010068096842F22C72C1F3C22181
:10147000C0F60002515CC840704700002DE9F04101
:1014800082B0002868D00446007841F20006C00708
:10149000C4F2020625D0706800F00C0004281BD0AE
:1014A000706800F00C00082802D17068C00313D4E3
:1014B0006068002800F06881B0F5A02F00F07C8102
:1014C000B0F5803F00F07C81306820F480303060DF
:1014D000306820F4802076E13068800301D56068B0
:1014E000D0B32078800718D5706810F00C0F07D0A3
:1014F000706800F00C0008286ED17068C0036BD4CF
:101500003068800702D52069012825D130686169DB
:1015100020F0F80040EAC1003060207800071FD4B6
:101520002078400732D4E56995B1706800F00C006E
:10153000082840F08F80012D0ED07068216A00F4D9
:1015400080328A4208D1616A00F47010884203D167
:10155000002002B0BDE8F081012002B0BDE8F081BA
:10156000A069002862D00020C4F242200121C0F806
:101570008014FFF7BDFD0546706A800700F18C807E
:10158000FFF7B6FD401B0228F6D92AE1F06910F0FA
:10159000805808D1F06940F08050F061F06900F0A7
:1015A00080500090009847F20007C4F200073868A6
:1015B000C00529D4386840F480703860FFF798FD82
:1015C000054600BF3868C0051ED4FFF791FD401BDB
:1015D0006428F7D905E100BF2069002840F2000027
:1015E000C4F2422000F0828001210160FFF780FDFB
:1015F000054600BF306880073FF588AFFFF778FDEC
:10160000401B0228F6D9ECE0E068002800F080805A
:10161000052800F09780012800F09880306A20F0BB
:1016200001003062306A20F0040092E00020C4F231
:1016300042200021C0F88014FFF75AFD054600BF84
:10164000706A80077FF56CAFFFF752FD401B0228E0
:10165000F6D9C6E00027C4F2422700203866FFF71B
:1016600047FD022D05460BD13068800140F1BE8058
:10167000FFF73EFD401B02284FF00300F4D968E756
:10168000306880017FF564AFFFF732FD401B022810
:101690004FF00300F4D95CE740F23400C2F20000DE
:1016A000006844F6D351C1F26201A0FB0101480A6F
:1016B000019000BF00BF0198411E002801913FF436
:1016C0002FAF00BF0198411E002801913FF428AFC1
:1016D00000BF0198411E002801913FF421AF00BFD7
:1016E0000198411E00280191E4D119E70021016011
:1016F000FFF7FEFC054600BF306880077FF50DAFA1
:10170000FFF7F6FC401B02284FF00300F4D920E756
:10171000306A20F001003062306A20F0040030624C
:10172000FFF7E6FC054641F2883700BF306A8007C4
:1017300020D5FFF7DDFC401BB8424FF00300F5D980
:1017400007E700BF306A40F004003062306A40F0C2
:1017500001003062FFF7CCFC054641F2883700BF3C
:10176000306A800706D4FFF7C3FC401BB842F7D9A4
:1017700037E000BFB8F1000F7FF4D5AEF06920F07C
:101780008050F061CFE600BF306820F480303060D8
:10179000306820F480203060FFF7AAFC054600BFC7
:1017A000306880037FF59DAEFFF7A2FC401B6428E4
:1017B0004FF00300F4D9CCE6306840F4802030606C
:1017C000306840F480303060FFF792FC054600BF7F
:1017D000306880033FF585AEFFF78AFC401B642824
:1017E000F6D9032002B0BDE8F08100BF206AB0F551
:1017F000803F05D17168A26821F400311143716006
:101800007168626A21F47411114308437060012009
:101810003866FFF76DFC0446306880013FF598AEEE
:10182000FFF766FC001B02284FF00300F4D990E696
:10183000411E0020B0EB116F1CBF012070474EF21B
:101840001002CEF2000251604EF62351CEF200019A
:10185000F0230B70072190601160704710B590F86D
:101860003C20012A4FF0020233D080F83D2002686C
:10187000D2F804E0D2F808C00C682EF070032343BD
:1018800040F2FF74C4F20004A24253600ADCB2F1D9
:10189000804F13D040F20043C4F200039A420DD0AF
:1018A00011E000BF42F60043C4F201039A4205D0A2
:1018B00040F60003C4F200039A4204D149682CF0B8
:1018C0008003194391600121002280F83D1080F8C7
:1018D0003C20104610BD0000002804BF01207047C6
:1018E00010B5044690F83D0028B9002084F83C006B
:1018F000204600F067F8022084F83D00206840F29E
:10190000FF730268C4F2000342F6004C9842C4F22E
:10191000010C15DCB0F1804F1AD040F20041C4F246
:101920000001884214D0984218DCB0F1804F1DD0DD
:1019300040F20041C4F20001884217D01AE000BF13
:10194000604505D040F60001C4F200018842EAD1AA
:10195000A16822F070020A439842E6DD604505D096
:1019600040F60001C4F20001884203D1216922F44B
:1019700040720A43A36922F08001D4F804E0E268CF
:10198000194360450160C262C0F828E002D1616974
:10199000CCF8301001214161002084F8461084F811
:1019A0003E1084F83F1084F8401084F8411084F809
:1019B000421084F8431084F8441084F8451084F8E9
:1019C0003D1010BD82B0006840F20041C4F2000139
:1019D000884211D0B0F1804F1BD141F21C00C4F2FB
:1019E0000200016841F001010160006800F001009F
:1019F0000190019802B0704741F21C00C4F202004D
:101A0000016841F002010160006800F002000090EE
:101A1000009802B07047000090F83D1001291CBFEB
:101A200001207047022180F83D10006840F2FF72EB
:101A3000C168C4F20002904241F00101C16009DCBA
:101A4000B0F1804F12D040F20041C4F20001884250
:101A50000CD012E042F60041C4F20101884205D0E8
:101A600040F60001C4F20001884206D1816801F00D
:101A70000701062904BF00207047016841F00101F9
:101A800001600020704700000146006841F2111318
:101A9000C26822F00102C260026A1A4204D0012226
:101AA000002081F83D207047026A40F244431A4208
:101AB000F5D1026822F0010202600122002081F8C3
:101AC0003D20704780B590F83C20012A4FF002027B
:101AD00000F0BF8080F83D20D0F800C04FF677724C
:101AE000DCF8083023EA0202CCF808200B683F2B10
:101AF0001CDD5F2B20DD602B50D0B3F5005F6DD077
:101B0000702B40F0A080D1E901E3C968DCF808201F
:101B100043EA0E0322F47F4243EA01211143CCF849
:101B20000810DCF8081041F077018AE01F2B29DC4F
:101B300063B3102B2AD086E0402B63D0502B40F0AB
:101B40008280D1F804E0C968DCF82030DCF820207D
:101B500022F00102CCF82020DCF8182022F0F0025C
:101B600042EA011123F00A0242EA0E02CCF81810F0
:101B7000CCF82020DCF8081041F0570121F02001BA
:101B80005FE000BF202B01D0302B5CD1DCF80810C7
:101B900021F07001194341F0070152E0D1F804E04F
:101BA000C968DCF8203023F01003CCF82030DCF8D2
:101BB0001830DCF8202023F4704322F0A00243EA1E
:101BC000013142EA0E12CCF81810CCF82020DCF8D3
:101BD000081041F0670121F0100132E0D1E901E382
:101BE000C968DCF8082043EA0E0322F47F4243EA86
:101BF00001211143CCF80810DCF8081041F48041B1
:101C00001FE000BFD1F804E0C968DCF82030DCF840
:101C1000202022F00102CCF82020DCF8182022F04D
:101C2000F00242EA011123F00A0242EA0E02CCF865
:101C30001810CCF82020DCF8081041F0470121F002
:101C40003001CCF808100121002280F83D1080F806
:101C50003C20104680BD0000704700007047000027
:101C6000B0B582B0026805461068D368546900F0C8
:101C70002F01202903F0200106D129B1284602B006
:101C8000BDE8B04000F09ABA5FEA007C1EBF04F0E5
:101C9000010E03F4907414EB0E0453D1296B012947
:101CA00005D110F0100118BF13F0100136D1010654
:101CB00022D513F080011FD095F83D0021283FD197
:101CC000A868B0F5805F03D12869002800F0F8808B
:101CD000286A411C296200785060E88C01380104B0
:101CE000E8842DD1D06820F08000D060D06840F02A
:101CF0004000D06002B0B0BD400621D513F04000D6
:101D00001ED0D068202120F04000D060284685F801
:101D10003D1002B0BDE8B04000F0F0B900200190E5
:101D2000106801905068019001985069400611D4E4
:101D3000A88DE98DEB8D002B18BF884240F0A6805E
:101D400002B0B0BDC40718BF13F480732CD1430791
:101D500030D436E0A86B01684B689CB2002CEFD001
:101D6000A98D8C42ECD2EB858369202B17D0D168EA
:101D700021F48071D160516921F0010151615169F3
:101D800021F040015161202185F83E100021296396
:101D9000D16821F01001D160FFF716F8A98DE88D08
:101DA000081A81B2284685E02B6C43F001032B64AE
:101DB000430706D5BEF1000F03D02B6C43F002039E
:101DC0002B64830706D5BEF1000F03D02B6C43F0C4
:101DD00004032B64BCF1000F09D541EA0E03B3FAEA
:101DE00083F35B0903D12B6C43F008032B642B6C4A
:101DF000002BA5D010F0200018BF002903D02846E2
:101E000000F0DCF92A685069296C00F0400001F00C
:101E1000080140182CD0D06820F49070D060506930
:101E200020F001005061286B012803D1D06820F018
:101E30001000D060202085F83E0000202863506903
:101E400040061DD5506920F040005061A86BB8B124
:101E500042F2B111C0F600014163FEF7D9FF00283C
:101E60003FF46EAFA86B416B02B0BDE8B0400847CD
:101E70002846FFF7F3FE0020286402B0B0BD00BF83
:101E8000284602B0BDE8B040FFF7E8BED368401A6C
:101E900023F49073D360536981B223F0010353613B
:101EA000202385F83E3000232B63D368284623F097
:101EB0001003D36002B0BDE8B040FFF7CDBE00BF55
:101EC000286A30F8021B6FF35F215160286204E733
:101ED000002804BF0120704710B5044690F83D006B
:101EE00028B9002084F83C00204600F061F8242046
:101EF00084F83D002068D4E90212C36823F400533B
:101F0000C360036923F440531A430261D4E90423F4
:101F10001143C268194341F20C639A431143C160F3
:101F20004169A26921F44071114343F60002C4F2F1
:101F300001029042416103D0FFF778FA02E000BF4E
:101F4000FFF788FA6268192148439100B0FBF1F06D
:101F500048F21F51C5F2EB11A0FB01235A094FF6BD
:101F60009C73C0F6FF7302FB0300322303EB0010E7
:101F7000A0FB0101F02303EA5113206803EB0212D6
:101F8000C1F3431111448160016921F49041016161
:101F9000416921F02A014161C16841F40051C160E9
:101FA00000202021206484F83D1084F83E1010BDEC
:101FB00070B586B040F60004C4F20104006804F570
:101FC000405100268842049602D006B070BD00BF82
:101FD00041F21800C4F20200016802AD41F48041F0
:101FE0000160016801F4804101910199016841F0AB
:101FF000040101600068294600F004000190019886
:102000004FF40070029002200390032005902046B8
:10201000FEF754FF4FF48060CDE9020620462946C2
:102020000496FEF74BFF252000210022FFF7E2F87F
:102030002520FFF7CBF806B070BD0000034690F8EE
:102040003E0020280AD100294FF0010018BF002AC5
:1020500000D1704793F83C00012801D1022070475D
:1020600000201863996222219A85DA85186483F822
:102070003E10196883F83C00CA6842F48072CA6056
:102080004A6942F001024A61CA6842F02002CA600D
:1020900070470000B0B540F29805C2F200052C1D53
:1020A0002046FEF71DFD05F1280021460422BDE86B
:1020B000B040FFF7C3BF0000034690F83D00202862
:1020C0000AD100294FF0010018BF002A00D1704743
:1020D00093F83C00012801D10220704719620020CA
:1020E00021219A84DA84186483F83D10196883F8F2
:1020F0003C00CA6842F08002CA60704740F230007B
:10210000C2F200000121017070470000FEE70000EC
:10211000FEE70000FEE700007047000070B52426CF
:102120000446C4F200060020306040F27020C2F283
:102130000000FFF771FC40F20005C2F2000595F9BE
:102140000C10A86989B20022FEF7CCFF697BAA7B3C
:10215000A869114349B289B20122FEF7C3FFFEF715
:102160001FFC00BF3068A04208D23068A04205D2F0
:102170003068A04202D23068A042F3D340F270200F
:10218000C2F20000FFF780FC297B6A7BAB7B114326
:102190001943A86949B289B20022BDE87040FEF730
:1021A000A1BF000070470000FEF7A8BF7047000005
:1021B000406A0021C185C184FFF750BD81B090F80D
:1021C0003E10222921D183680246B3F5805F09D1F0
:1021D00052F8281F52F8183C002B3FD003685B6868
:1021E0000AE000BF52F8281F13B90369002BF5D08D
:1021F00003685B6803F07F030B70116801311160A5
:10220000C18D01390A04C18502D001B0704700BFF9
:102210000168CA6822F02002CA60CA6822F480728B
:10222000CA604A6922F001024A61202280F83E20F9
:10223000026B012A1AD100220263CB6823F010033B
:10224000CB600B68DB0605D500920A6800924968EE
:1022500000910099818D01B0FFF7FEBC02685268C1
:102260006FF35F2221F8022B8162C9E701B0FFF70B
:1022700011BF000040F2C000C2F20000FFF7F0BC46
:10228000FEE7000090B0FEF747FF00240120CDE9F3
:102290000B44CDE909440A9010200B904FF46010D4
:1022A00002250F9006A8CDE907440695CDE90D5407
:1022B000FFF7E4F820B1EFF3108072B6FEE700BF3D
:1022C0000F20CDE900054FF4E060CDE90304684636
:1022D00002210294FEF7CAFF20B1EFF3108072B61C
:1022E000FEE700BF002741F218000997C4F2020080
:1022F000016840F6000841F0040101600168C4F281
:10230000010801F00401009100990168002241F0E8
:102310000801016000686C2100F00800009000983E
:102320004046FEF7DFFE4046102101220124FEF761
:10233000D9FE08F580652846382100224FF038097B
:10234000FEF7D0FE06AE4FF0030B4FF0020A4046F8
:102350003146CDE906B7CDF820A0FEF7AFFD0C2041
:1023600006A981E8910840463146FEF7A7FD3020D6
:1023700006A981E8910440463146FEF79FFD4020C2
:10238000CDE9060440463146CDE9084BFEF796FDFF
:1023900028463146CDE90694CDE9087AFEF78EFD50
:1023A00040F27020C2F200004FF080414FF6FF7300
:1023B0000997CDE90777CDE90077072280E8860005
:1023C000C0E903378761FFF787FA28B1EFF3108080
:1023D00072B600BFFEE700BF4FF48050069040F297
:1023E0007020C2F2000006A9FFF76CFB20B1EFF3EA
:1023F000108072B6FEE700BF40F27020C2F200000B
:102400006946FFF72BFA28B1EFF3108072B600BFD0
:10241000FEE700BF40F29805C2F2000508F5405102
:10242000284640F8281F4FF4E13100240C22C0E96F
:102430000114C0E90344C0E90524C461FFF748FD65
:1024400020B1EFF3108072B6FEE700BF40F2B82073
:10245000A8F58231C2F200004FF6FF720994CDE96F
:102460000744CDE90044C0E90014C0E90242046118
:102470008461FFF731FA28B1EFF3108072B600BF24
:10248000FEE700BF4FF48050069040F2B820C2F241
:10249000000006A9FFF716FB20B1EFF3108072B61B
:1024A000FEE700BF40F2B820C2F200006946FFF725
:1024B000D5F928B1EFF3108072B600BFFEE700BF78
:1024C00040F2081040F2752140F24D62C2F2000065
:1024D000C0F60001C0F60002C0E9012140F2A521CA
:1024E00040F27D62C0F60001C0F60002C0E904219E
:1024F00040F2653140F23D72C0F60001C0F60002C4
:10250000C0E9072140F2814140F2C52340F29D67B6
:10251000C0F60001C0F60003C0F60007C16240F239
:102520009141C0E92E7340F2452340F21D67C0F689
:102530000001C0F60003C0F60007816340F2E531F8
:1025400040F2BD72C0E9317340F2F52340F2CD672D
:10255000C0F60001C0F60002C0F60003C0F6000796
:10256000C0E9102140F2153140F2ED62C0E9347348
:1025700040F2053340F2DD67C0F60001C0F600020C
:10258000C0F60003C0F60007C0E9132140F2652140
:1025900040F23D62C0E9377340F2D52340F2AD67A7
:1025A000C0F60001C0F60002C0F60003C0F6000746
:1025B000C0E9162140F2C53140F29D72C0E93A737C
:1025C00040F2E52340F2BD67C0F60001C0F600020C
:1025D000C0F60003C0F60007C0E9192140F2D5316A
:1025E00040F2AD72C0E93D7340F2753340F24D7771
:1025F000C0F60001C0F60002C0F60003C0F60007F6
:10260000C0E91C2140F2A53140F27D72C0E940735F
:1026100040F2853340F25D77C0F60001C0F600025B
:10262000C0F60003C0F60007C0E91F2140F2B53133
:1026300040F28D72C0E9437340F2553340F22D777A
:10264000C0F60001C0F60002C0F60003C0F60007A5
:10265000C0E9222140F2953140F26D72C0E9467323
:1026600040F2353340F20D77C0F60001C0F60002AB
:10267000C0F60003C0F60007C0E9252140F2B521ED
:1026800040F28D62C0E9497340F2453340F21D7754
:10269000C0F60001C0F60002C0F60003C0F6000755
:1026A000C0E9282140F2952140F26D62C0E94C73E7
:1026B00040F2253340F2FD67C0F60001C0F600028B
:1026C000C0F60003C0F60007C0E92B21C0E94F7334
:1026D00040F2552340F22D67C0E9552140F2852193
:1026E00040F25D62C0F60003C0F60007C0F60001CC
:1026F000C0F6000205F128040435C0E95273C0E9B0
:102700005821204629460422FFF798FC20462946F6
:102710000422FFF7D1FC00BFFEE701020000000029
:102720000000000001020304060708090000000081
:102730000102030402030405060708090A0B0C0D35
:102740000E0F10106827000800000020380000005D
:1027500028010008A027000838000020D008000049
:10276000440100080000000006080A171920400272
:102770000408102020100803060000000008014093
:10278000000C014001000000100000001214130EA4
:102790000D020405010F1110010000000024F400D7
:04000005080000ED02
:00000001FF
