:020000040800F2
:10000000A007002089010008D5230008CD2300089F
:10001000D1230008090900082D280008000000006D
:10002000000000000000000000000000652400083F
:10003000DD0B000800000000D92300085527000848
:10004000A3010008A3010008A3010008A301000800
:10005000A3010008A3010008A3010008A3010008F0
:10006000A3010008A3010008A3010008A3010008E0
:10007000A3010008A3010008A3010008A3010008D0
:10008000A3010008A3010008A3010008A3010008C0
:10009000A3010008A3010008A3010008A3010008B0
:1000A000A3010008A3010008A3010008A3010008A0
:1000B000A3010008A3010008A3010008A301000890
:1000C000A3010008A3010008A3010008A301000880
:1000D000A301000821280008A3010008A3010008CB
:1000E000A3010008A3010008A301000800F002F822
:1000F00000F03AF80AA090E8000C82448344AAF188
:100100000107DA4501D100F02FF8AFF2090EBAE885
:100110000F0013F0010F18BFFB1A43F0010318473B
:10012000142A0000342A0000103A24BF78C878C18D
:10013000FAD8520724BF30C830C144BF04680C60ED
:10014000704700000023002400250026103A28BF35
:1001500078C1FBD8520728BF30C148BF0B60704739
:100160001FB51FBD10B510BD00F031F81146FFF7E7
:10017000F7FF02F05DFB00F04FF803B4FFF7F2FF6A
:1001800003BC00F057F800000948804709480047C1
:10019000FEE7FEE7FEE7FEE7FEE7FEE7FEE7FEE737
:1001A000FEE7FEE704480549054A064B7047000094
:1001B00059270008ED000008A0010020A00700203A
:1001C000A0030020A00300207047704770477546C9
:1001D00000F02CF8AE4605006946534620F00700B3
:1001E000854618B020B5FFF7DDFFBDE820404FF091
:1001F00000064FF000074FF000084FF0000BAC4630
:10020000ACE8C009ACE8C009ACE8C009ACE8C0097A
:1002100021F007018D46704710B50446AFF300800A
:100220002046BDE81040FFF7A8BF00000048704717
:100230003800002001491820ABBEFEE7260002006E
:10024000704700002DE9F04782B040F20006C2F28C
:100250000006B57C044624272846C4F2000700F0B7
:10026000D1F800F0BF01284600F012FB40F29805DB
:100270000020C2F200053860A860687040F20C10DF
:10028000C2F2000001F056FC96F90F10706A89B2B4
:10029000002200F0B5FF717BB27B706A114349B256
:1002A00089B2012200F0ACFF00F090FA3868A04259
:1002B00040D2287800283DD14FF0000A05F12C09E2
:1002C0000DF1040896F90710306A89B200F092FF28
:1002D00050BB96F90B10306A89B2002200F090FFF3
:1002E00000F0CEF800F0CCF88DF8040000F0C8F86B
:1002F0008DF8050000F0C4F88DF8060000F0C0F895
:100300008DF8070000F0BCF8B07F30B14846414698
:10031000042286F81EA002F02FF896F90B10306A1E
:1003200089B2012200F06CFF3868A04202D228781E
:100330000028C7D040F20C10C2F2000001F032FCDD
:1003400096F90C10306A89B2002200F059FF717BD7
:10035000B27BF37B11431943706A49B289B2002220
:1003600000F04EFF3868688002B0BDE8F0870000FA
:10037000B0B582B040F20005C2F20005AC7C204668
:1003800000F040F840F04001204600F081FA00F013
:100390001DFA00BF95F90710286A89B200F02AFFFC
:1003A0000028F7D195F90B10286A89B2002200F0D5
:1003B00027FF00F065F800F063F88DF8040000F006
:1003C0005FF88DF8050000F05BF88DF8060000F08E
:1003D00057F88DF8070000F053F840F29800C2F289
:1003E00000002C3001A904224FF6FF7301F0F2FE49
:1003F00095F90B10286A89B2012200F001FF02B0C2
:10040000B0BD0000F0B581B040F20004C2F20004BB
:100410006179226A94F90B300F1899B210460022C4
:10042000002500F0EDFE072667F30F2694F909304A
:1004300026FA05F1206A01F0010299B200F0E0FE0F
:1004400094F90A10206A89B2012200F0D9FE94F9C9
:100450000A10206A89B2002200F0D2FE0135102D68
:10046000E4D100F00DF8226A94F90B10044689B229
:100470001046012200F0C4FE204601B0F0BD00008D
:10048000B0B540F20005C2F2000595F90A10286ADD
:1004900089B2012200F0B4FE95F90810286A89B2E9
:1004A00000F0A8FE2A6A95F90A10044689B210469F
:1004B000002200F0A5FE95F90A10286A89B20122EF
:1004C00000F09EFE95F90810286A89B200F092FEAD
:1004D0002A6A95F90A1044EA400489B210460022BB
:1004E00000F08EFE95F90A10286A89B2012200F008
:1004F00087FE95F90810286A89B200F07BFE2A6A07
:1005000095F90A1044EA800489B21046002200F0EE
:1005100077FE95F90A10286A89B2012200F070FE70
:1005200095F90810286A89B200F064FE2A6A95F9E4
:100530000A1044EAC00489B21046002200F060FEAE
:1005400095F90A10286A89B2012200F059FE95F93E
:100550000810286A89B200F04DFE2A6A95F90A103F
:1005600044EA001489B21046002200F049FE95F9D1
:100570000A10286A89B2012200F042FE95F908109B
:10058000286A89B200F036FE2A6A95F90A1044EA10
:10059000401489B21046002200F032FE95F90A108C
:1005A000286A89B2012200F02BFE95F90810286A0A
:1005B00089B200F01FFE2A6A95F90A1044EA8014F5
:1005C00089B21046002200F01BFE95F90A10286A35
:1005D00089B2012200F014FE95F90810286A89B248
:1005E00000F008FE2A6A95F90A1044EAC01489B29C
:1005F0001046002200F004FEE0B2B0BD10B540F29B
:100600000004C2F20004607DFFF7FCFEA07CFFF74F
:10061000F9FE607DFF2100F03BF9A07C002100F095
:1006200037F994F90B10206A89B2002200F0E8FD36
:1006300094F9040000F012F894F90B10206A89B2C2
:10064000012200F0DDFD607D002100F021F9A07C99
:100650000021BDE8104000F01BB90000B0B540F229
:100660000005C2F2000595F909300446C1B2286AB6
:10067000CA0999B200F0C4FD95F90A10286A89B236
:10068000012200F0BDFD95F90A10286A89B2002206
:1006900000F0B6FD95F90910286AC4F3801289B2FA
:1006A00000F0AEFD95F90A10286A89B2012200F027
:1006B000A7FD95F90A10286A89B2002200F0A0FD72
:1006C00095F90910286AC4F3401289B200F098FD28
:1006D00095F90A10286A89B2012200F091FD95F976
:1006E0000A10286A89B2002200F08AFD95F90910E3
:1006F000286AC4F3001289B200F082FD95F90A104D
:10070000286A89B2012200F07BFD95F90A10286A57
:1007100089B2002200F074FD95F90910286AC4F32B
:10072000C00289B200F06CFD95F90A10286A89B2FE
:10073000012200F065FD95F90A10286A89B20022AD
:1007400000F05EFD95F90910286AC4F3800289B2B1
:1007500000F056FD95F90A10286A89B2012200F0CE
:100760004FFD95F90A10286A89B2002200F048FD71
:1007700095F90910286AC4F3400289B200F040FDDF
:1007800095F90A10286A89B2012200F039FD95F91D
:100790000A10286A89B2002200F032FD95F909108A
:1007A000286A04F0010289B200F02AFD95F90A10C6
:1007B000286A89B2012200F023FD95F90A10286AFF
:1007C00089B20022BDE8B04000F01ABDF0B581B09A
:1007D00040F20005C2F2000595F90C10286A40F2BB
:1007E000244689B20122C4F2000600F009FD00206F
:1007F000306040F25410C2F2000001F09BF940F268
:100800000C10C2F2000001F095F900BF3068042816
:1008100008D83068042805D83068042802D8306821
:100820000528F3D340F25414C2F20004204601F02C
:10083000B9F995F90C10286A89B20022002700F056
:10084000DFFC2046376001F075F940F20C10C2F26F
:10085000000001F06FF900BF3068042808D8306844
:10086000042805D83068042802D830680528F3D356
:1008700040F25410C2F2000001F094F995F90C1006
:10088000286A89B2012201B0BDE8F04000F0B8BC8E
:10089000F0B581B040F20005C2F200050C46A9791E
:1008A00095F90B200144286A0F0291B2002200261C
:1008B00000F0A6FCBFB200BF95F9093027FA06F197
:1008C000286A01F0010299B200F09AFC95F90A1029
:1008D000286A89B2012200F093FC95F90A10286A6F
:1008E00089B2002200F08CFC0136102EE4D160B2F7
:1008F000FFF7B4FE95F90B10286A89B2012201B006
:10090000BDE8F04000F07CBCFEE7000070B5044696
:1009100000780C2800F25681DFE810F00E0030005D
:100920006C0072001A0076008C00AD00BA00400125
:1009300056011E00260000BF40F29801C2F20001DD
:1009400001F12C0004310422BDE8704001F014BD17
:10095000BDE87040FFF752BE40F29800C2F20000BE
:10096000012101702EE100BF40F29800C2F20000A8
:10097000B0F90200BDE8704001F030BD40F2000562
:10098000C2F2000595F90B10286A40F2244489B29E
:100990000022C4F20004002600F032FC95F90000A9
:1009A000FFF75CFE95F90B10286A89B2012200F06E
:1009B00027FC40F25410C2F20000266001F0BAF8A1
:1009C00040F20C10C2F2000001F0B4F820680828D0
:1009D00008D82068082805D82068082802D8206888
:1009E0000928F3D340F25410C2F20000BDE8704071
:1009F00001F0D8B8B4F90200BDE87040FFF722BC9E
:100A0000BDE87040FFF7B4BC40F20005C2F200053B
:100A100095F90B10286A89B2002200F0F1FB95F9D4
:100A20000300FFF71BFE95F90B10286A89B201221B
:100A300000F0E6FB40F20005C2F20005687DFFF71A
:100A4000E1FC687D0A21FFF723FF95F90B10286A66
:100A500089B2002200F0D4FB95F90300FFF7FEFDF8
:100A600095F90B10286A89B2012200F0C9FB687D54
:100A70000021FFF70DFFE17840F20000C2F2000014
:100A8000407DC9074FF0070108BF0321FFF700FFB2
:100A9000002000F0A5F840F29804C2F2000404F827
:100AA0000C0F012000F09CF86070022000F098F814
:100AB000A070032000F094F8E070042000F090F89B
:100AC0002071052000F08CF86071062000F088F895
:100AD000A071072000F084F8E071082000F080F891
:100AE0002072092000F07CF860720A2000F078F88B
:100AF000A0720B2000F074F8E0720C2000F070F887
:100B000020730D2000F06CF860730E2000F068F880
:100B1000A0730F2000F064F8E073102000F060F87C
:100B20002074112000F05CF86074122000F058F876
:100B3000A074132000F054F8E074142000F050F872
:100B40002075152000F04CF86075162000F048F86C
:100B5000A075172000F044F8E075182000F040F868
:100B60002076192000F03CF860761A2000F038F862
:100B7000A0761B2000F034F8E0761C2000F030F85E
:100B800020771D2000F02CF8034604F120002146B8
:100B90001E226377BDE8704001F0EEBBE0781D28AF
:100BA00010D800F01DF840F298060346C2F2000685
:100BB00006F10C0106F12C0001227373BDE87040B0
:100BC00001F0DABB70BD00BFE1781D2988BF70BDA0
:100BD000A07849B2BDE8704001F046BC7047000003
:100BE00080B51D282AD8DFE810F02D003900450017
:100BF0004F005900650071007D0089009500A1003B
:100C0000AD00B900C5001F00CF00DB00E500F1001A
:100C1000FB00070111011D01290133015F013F01A3
:100C20004B011F00550100BF40F20000C2F200005E
:100C3000007FFFF7E7FB40B280BD00BF002040B25D
:100C400080BD00BF40F20000C2F20000807CFFF7D0
:100C5000D9FBC0F3011040B280BD00BF40F20000DC
:100C6000C2F20000807CFFF7CDFB00F00F0040B225
:100C700080BD00BF40F20000C2F20000807CFFF7A0
:100C8000C1FBC00940B280BD40F20810C2F20000B2
:100C90000078FFF7B7FB400940B280BD40F2081072
:100CA000C2F200000078FFF7ADFB00F01F0040B279
:100CB00080BD00BF40F20000C2F20000007CFFF7E0
:100CC000A1FBC0F3400040B280BD00BF40F2000075
:100CD000C2F20000807CFFF795FB00F0010040B2FB
:100CE00080BD00BF40F20000C2F20000407CFFF770
:100CF00089FB00F0030040B280BD00BF40F200005D
:100D0000C2F20000407CFFF77DFBC0F3800040B2E0
:100D100080BD00BF40F20000C2F20000407CFFF73F
:100D200071FBC0F3C00040B280BD00BF40F20000C4
:100D3000C2F20000C07CFFF765FB00F0070040B284
:100D400080BD00BF40F20000C2F20000C07CFFF78F
:100D500059FBC0F3C00040B280BD00BF40F20000AC
:100D6000C2F20000C07CFFF74DFBC0F3001040B2A0
:100D700080BD00BF40F20000C2F20000C07CFFF75F
:100D800041FB400940B280BD40F20000C2F20000C9
:100D9000007DFFF737FBC0F3021040B280BD00BFFB
:100DA00040F20000C2F20000007DFFF72BFBC009FB
:100DB00040B280BD40F20000C2F20000807DFFF72B
:100DC00021FB00F00F0040B280BD00BF40F20000E8
:100DD000C2F20000807DFFF715FBC00940B280BD64
:100DE00040F20000C2F20000C07DFFF70BFB00F0F4
:100DF0000F0040B280BD00BF40F20000C2F2000010
:100E0000C07DFFF7FFFAC00940B280BD40F200008C
:100E1000C2F20000007EFFF7F5FA00F0070040B2D2
:100E200080BD00BF40F20000C2F20000007EFFF76C
:100E3000E9FAC0F3C20040B280BD00BF40F200003A
:100E4000C2F20000407EFFF7DDFAC00940B280BD6B
:100E500040F20000C2F20000407EFFF7D3FA00F03B
:100E60001F0040B280BD00BF40F20000C2F200008F
:100E7000807EFFF7C7FA00F01F0040B280BD00BFC0
:100E800040F20000C2F20000C07EFFF7BBFA40B2A1
:100E900080BD00BF40F20000C2F20000407FFFF7BB
:100EA000B1FA40B280BD00BF40F20000C2F20000C3
:100EB000807EFFF7A7FAC00940B280BD014690F8D6
:100EC0002100022816D10868D1E90FC3026822F078
:100ED0000E020260026822F001020260012000FAA4
:100EE00003F2CCF8042081F821000020002281F8D0
:100EF00020207047042088630120002281F82020F0
:100F00007047000080B590F82110022924D10268B2
:100F1000116821F00E0111602F211368C4F2020143
:100F20008A4240F20401C4F2020123F0010313607B
:100F300016DD3023C4F202039A421DD04423C4F2CA
:100F400002039A421CD05823C4F202039A421DD1D4
:100F50004FF4803322E000BF04218163012080BD73
:100F60000823C4F202039A420ED01C23C4F20203E7
:100F70009A420BD1102311E04FF480730EE000BFB2
:100F80004FF480530AE000BF012307E001F1680C31
:100F90004FF08073624508BF4FF480130B60416BC4
:100FA0004FF48072028401B18847002080BD0000A8
:100FB000B0B5044600F02AF9054640F22800C2F216
:100FC00000000078611C18BF044400BF00F01EF947
:100FD000401BA042FAD3B0BD2DE9F04F82B00E689D
:100FE000002E00F0038140F20C4C41F200424FF61B
:100FF000FF7EC4F2010CC4F2010204270024012385
:10100000C1F2100E4FF0000A4FF00009904208BFE5
:101010000327009745E000BF012704F00C030F22CF
:101020009A402BEA020207FA03F34FEA9A051A43A1
:1010300046F82520D1F804B040F20045C4F201057D
:101040005FEACB322A6854BF22EA080242EA080269
:101050002A606A685FEA8B3354BF22EA080242EAD8
:1010600008026A605FEACB23AA6854BF22EA08023A
:1010700042EA08025FEA8B23AA60DCF800204FF006
:10108000010354BF22EA080242EA0802CCF8002019
:101090000E680AF1010A36FA0AF204F1040400F0BB
:1010A000A58003FA0AF816EA080FF1D04E687645D3
:1010B00012DC122E56D8DFE806F0350B454955559F
:1010C00055555555555555555555554D510000BF1C
:1010D000D1F80C9046E000BF4FF6FF72C1F221023A
:1010E00096420FDC0022C1F2110296421AD0002271
:1010F000C1F21202964215D00022C1F2210296429C
:1011000010D02FE00022C1F2220296420AD0002223
:10111000C1F23102964205D00022C1F2320296425B
:1011200020D100BF8A684AB1012A14BFC0F81480D8
:10113000C0F810804FF0080914E000BF4FF0040918
:1011400010E000BFCA6802F108090BE04FF0000987
:1011500008E000BFCA6802F1040903E0CA6802F1AE
:101160000C0900BF22460646BAF1080F24BF203AF8
:10117000043637680F25954027EA050509FA02F27B
:101180002A433260CA79D2067FF582AF41F2180352
:10119000C4F202031A6842F001021A601A6802F0EF
:1011A00001020192019A40F20042C4F20102A2F54A
:1011B0007E762AF0030256F802B040F60002C4F22E
:1011C0000102904210D040F60042C4F20102904267
:1011D0003FF422AF41F20002C4F20102009F9042AC
:1011E00008BF022719E700BF002716E702B0BDE8D5
:1011F000F08F00008068084018BF01207047000091
:10120000002A08BF090401617047000040F29C10E9
:10121000C2F200000068704740F2280040F29C11C2
:10122000C2F20000C2F2000100780A6810440860AF
:101230007047000080B542F20000C4F2020001686D
:1012400041F010010160032000F08EF80F2000F043
:1012500005F800F027F8002080BD000070B540F2CE
:101260002806C2F2000640F230013278C2F20001D4
:101270004FF47A730968B3FBF2F20446B1FBF2F162
:10128000084600F063FB0F2C4FF0010508D838B971
:101290004FF0FF3021460022002500F039F874603D
:1012A000284670BD82B041F21800C4F20200016805
:1012B000022241F001010160016801F00101019188
:1012C0000199416841F080514160406800F08050D0
:1012D000009000980420C4F20100016862F31A61D2
:1012E000016002B070470000002848BF7047C1B2DB
:1012F00000F01F00012202FA00F04EF20012CEF2BE
:10130000000242EAD10121F00301086070470000A9
:1013100010B54EF60C5CCEF2000CDCF80030C3F3D6
:10132000022E8EF00704042C28BF0424BEF1030310
:101330004FF0FF3E0EFA04F438BF0023A14399405A
:101340000EFA03F39A43114300F00F0200F16043D9
:101350000901043A03F564436244002848BF02F1DE
:101360000C03197010BD00004EF60C51CEF20001B6
:101370000A684FF6FF031A4060F30A2242F08060C9
:1013800040F0FD70086070472DE9F04381B00028FF
:1013900000F0858042F20008C4F202080446D8F842
:1013A00000000D4600F0070088420CD2D8F800007B
:1013B00020F007002843C8F80000D8F8000000F02B
:1013C0000700A8426BD1206841F204098107C4F2EA
:1013D000020917D5410705D5D9F8001041F4E0619D
:1013E000C9F80010010705D5D9F8001041F4605183
:1013F000C9F80010D9F80010A26821F0F0011143DB
:10140000C9F80010C00741D1D8F8000000F007006B
:10141000A8420CD9D8F8000020F007002843C8F8EB
:101420000000D8F8000000F00700A84237D120687B
:10143000410707D5D9F80010E26821F4E0611143B3
:10144000C9F80010000708D5D9F80000216920F478
:10145000605040EAC100C9F80000D9F8002002F04D
:101460000C00082841F20020C0F27A0050D142F668
:101470002433C2F38341C0F60003595CD2033BD44A
:1014800040F60010C0F23D00484341E06068022889
:101490000AD001282AD159F8041C890308D4012054
:1014A00001B0BDE8F08300BF59F8041C8901F6D5EE
:1014B000D9F8001021F003010843C9F80000FFF734
:1014C000A5FE064641F28837D9F80000616800F0B1
:1014D0000C00B0EB810F97D0FFF798FE801BB8424D
:1014E000F2D9032001B0BDE8F08300BF59F8041C15
:1014F0008907D4D5DCE700BFD9F8002042F60A33CB
:10150000C2F34042C0F600039A5C4843B0FBF2F0DD
:10151000D9F8001042F60C32C1F30311C0F60002F4
:10152000515C40F2300220FA01F140F22C00C2F28C
:1015300000000068C2F200021160FFF78FFE002079
:1015400001B0BDE8F083000040F2300041F2040138
:10155000C2F20000C4F202010068096842F61C32BF
:10156000C1F30221C0F60002515CC8407047000080
:1015700040F2300041F20401C2F20000C4F2020164
:101580000068096842F61C32C1F3C221C0F60002AD
:10159000515CC840704700002DE9F04182B000283E
:1015A00068D00446007841F20006C007C4F2020683
:1015B00025D0706800F00C0004281BD0706800F083
:1015C0000C00082802D17068C00313D4606800289A
:1015D00000F06881B0F5A02F00F07C81B0F5803F6D
:1015E00000F07C81306820F480303060306820F476
:1015F000802076E13068800301D56068D0B3207820
:10160000800718D5706810F00C0F07D0706800F0D4
:101610000C0008286ED17068C0036BD43068800756
:1016200002D52069012825D13068616920F0F800D1
:1016300040EAC1003060207800071FD420784007BE
:1016400032D4E56995B1706800F00C00082840F0CC
:101650008F80012D0ED07068216A00F480328A429A
:1016600008D1616A00F47010884203D1002002B0F2
:10167000BDE8F081012002B0BDE8F081A06900283A
:1016800062D00020C4F242200121C0F88014FFF78C
:10169000BDFD0546706A800700F18C80FFF7B6FD3E
:1016A000401B0228F6D92AE1F06910F0805808D1D1
:1016B000F06940F08050F061F06900F080500090D7
:1016C000009847F20007C4F200073868C00529D423
:1016D000386840F480703860FFF798FD054600BF19
:1016E0003868C0051ED4FFF791FD401B6428F7D968
:1016F00005E100BF2069002840F20000C4F242204A
:1017000000F0828001210160FFF780FD054600BFE7
:10171000306880073FF588AFFFF778FD401B02284F
:10172000F6D9ECE0E068002800F08080052800F0A1
:101730009780012800F09880306A20F00100306224
:10174000306A20F0040092E00020C4F24220002120
:10175000C0F88014FFF75AFD054600BF706A800785
:101760007FF56CAFFFF752FD401B0228F6D9C6E0AB
:101770000027C4F2422700203866FFF747FD022DFC
:1017800005460BD13068800140F1BE80FFF73EFD79
:10179000401B02284FF00300F4D968E7306880014D
:1017A0007FF564AFFFF732FD401B02284FF00300C6
:1017B000F4D95CE740F23000C2F20000006844F661
:1017C000D351C1F26201A0FB0101480A019000BFA0
:1017D00000BF0198411E002801913FF42FAF00BFC8
:1017E0000198411E002801913FF428AF00BF0198E5
:1017F000411E002801913FF421AF00BF0198411E16
:1018000000280191E4D119E700210160FFF7FEFCF7
:10181000054600BF306880077FF50DAFFFF7F6FC87
:10182000401B02284FF00300F4D920E7306A20F073
:1018300001003062306A20F004003062FFF7E6FCFD
:10184000054641F2883700BF306A800720D5FFF790
:10185000DDFC401BB8424FF00300F5D907E700BF9D
:10186000306A40F004003062306A40F001003062BB
:10187000FFF7CCFC054641F2883700BF306A80078D
:1018800006D4FFF7C3FC401BB842F7D937E000BFCE
:10189000B8F1000F7FF4D5AEF06920F08050F06110
:1018A000CFE600BF306820F480303060306820F42C
:1018B00080203060FFF7AAFC054600BF3068800337
:1018C0007FF59DAEFFF7A2FC401B64284FF003009C
:1018D000F4D9CCE6306840F480203060306840F4C1
:1018E00080303060FFF792FC054600BF306880030F
:1018F0003FF585AEFFF78AFC401B6428F6D903202C
:1019000002B0BDE8F08100BF206AB0F5803F05D18C
:101910007168A26821F40031114371607168626AD4
:1019200021F4741111430843706001203866FFF7F9
:101930006DFC0446306880013FF598AEFFF766FC09
:10194000001B02284FF00300F4D990E6411E00204E
:10195000B0EB116F1CBF012070474EF21002CEF2A7
:10196000000251604EF62351CEF20001F0230B70BD
:10197000072190601160704710B590F83C20012A53
:101980004FF0020233D080F83D200268D2F804E024
:10199000D2F808C00C682EF07003234340F2FF74A5
:1019A000C4F20004A24253600ADCB2F1804F13D0AB
:1019B00040F20043C4F200039A420DD011E000BF90
:1019C00042F60043C4F201039A4205D040F60003F8
:1019D000C4F200039A4204D149682CF080031943F1
:1019E00091600121002280F83D1080F83C201046D3
:1019F00010BD0000002804BF0120704710B5044648
:101A000090F83D0028B9002084F83C00204600F002
:101A100067F8022084F83D00206840F2FF730268F6
:101A2000C4F2000342F6004C9842C4F2010C15DCEB
:101A3000B0F1804F1AD040F20041C4F20001884258
:101A400014D0984218DCB0F1804F1DD040F2004114
:101A5000C4F20001884217D01AE000BF604505D0EB
:101A600040F60001C4F200018842EAD1A16822F0E8
:101A700070020A439842E6DD604505D040F6000159
:101A8000C4F20001884203D1216922F440720A4362
:101A9000A36922F08001D4F804E0E26819436045AC
:101AA0000160C262C0F828E002D16169CCF8301050
:101AB00001214161002084F8461084F83E1084F82A
:101AC0003F1084F8401084F8411084F8421084F8E4
:101AD000431084F8441084F8451084F83D1010BD7C
:101AE00082B0006840F20041C4F20001884211D087
:101AF000B0F1804F1BD141F21C00C4F2020001681A
:101B000041F001010160006800F0010001900198BE
:101B100002B0704741F21C00C4F20200016841F0BB
:101B200002010160006800F002000090009802B01D
:101B30007047000090F83D1001291CBF012070473C
:101B4000022180F83D10006840F2FF72C168C4F2C3
:101B50000002904241F00101C16009DCB0F1804F08
:101B600012D040F20041C4F2000188420CD012E0D1
:101B700042F60041C4F20101884205D040F600015E
:101B8000C4F20001884206D1816801F007010629EC
:101B900004BF00207047016841F00101016000208E
:101BA000704700000146006841F21113C26822F03C
:101BB0000102C260026A1A4204D00122002081F8A8
:101BC0003D207047026A40F244431A42F5D1026850
:101BD00022F0010202600122002081F83D207047BE
:101BE00080B590F83C20012A4FF0020200F0BF803F
:101BF00080F83D20D0F800C04FF67772DCF808304E
:101C000023EA0202CCF808200B683F2B1CDD5F2B77
:101C100020DD602B50D0B3F5005F6DD0702B40F00D
:101C2000A080D1E901E3C968DCF8082043EA0E038B
:101C300022F47F4243EA01211143CCF80810DCF87A
:101C4000081041F077018AE01F2B29DC63B3102BC9
:101C50002AD086E0402B63D0502B40F08280D1F810
:101C600004E0C968DCF82030DCF8202022F0010212
:101C7000CCF82020DCF8182022F0F00242EA011112
:101C800023F00A0242EA0E02CCF81810CCF8202009
:101C9000DCF8081041F0570121F020015FE000BF9F
:101CA000202B01D0302B5CD1DCF8081021F0700122
:101CB000194341F0070152E0D1F804E0C968DCF8AB
:101CC000203023F01003CCF82030DCF81830DCF89A
:101CD000202023F4704322F0A00243EA013142EABB
:101CE0000E12CCF81810CCF82020DCF8081041F0C7
:101CF000670121F0100132E0D1E901E3C968DCF8A5
:101D0000082043EA0E0322F47F4243EA01211143F3
:101D1000CCF80810DCF8081041F480411FE000BF47
:101D2000D1F804E0C968DCF82030DCF8202022F08B
:101D30000102CCF82020DCF8182022F0F00242EA60
:101D4000011123F00A0242EA0E02CCF81810CCF876
:101D50002020DCF8081041F0470121F03001CCF8D8
:101D600008100121002280F83D1080F83C20104628
:101D700080BD00007047000070470000B0B582B021
:101D8000026805461068D368546900F02F012029C5
:101D900003F0200106D129B1284602B0BDE8B040C9
:101DA00000F0E2BC5FEA007C1EBF04F0010E03F409
:101DB000907414EB0E0453D1296B012905D110F056
:101DC000100118BF13F0100136D1010622D513F00F
:101DD00080011FD095F83D0021283FD1A868B0F5BB
:101DE000805F03D12869002800F0F880286A411C30
:101DF000296200785060E88C01380104E8842DD114
:101E0000D06820F08000D060D06840F04000D06002
:101E100002B0B0BD400621D513F040001ED0D068FE
:101E2000202120F04000D060284685F83D1002B007
:101E3000BDE8B04000F0C2BA0020019010680190E7
:101E40005068019001985069400611D4A88DE98D21
:101E5000EB8D002B18BF884240F0A68002B0B0BDC9
:101E6000C40718BF13F480732CD1430730D436E075
:101E7000A86B01684B689CB2002CEFD0A98D8C42F6
:101E8000ECD2EB858369202B17D0D16821F48071C7
:101E9000D160516921F001015161516921F0400186
:101EA0005161202185F83E1000212963D16821F07D
:101EB0001001D160FFF702F8A98DE88D081A81B2F0
:101EC000284685E02B6C43F001032B64430706D5BD
:101ED000BEF1000F03D02B6C43F002032B64830789
:101EE00006D5BEF1000F03D02B6C43F004032B6426
:101EF000BCF1000F09D541EA0E03B3FA83F35B0985
:101F000003D12B6C43F008032B642B6C002BA5D062
:101F100010F0200018BF002903D0284600F024FC50
:101F20002A685069296C00F0400001F0080140184F
:101F30002CD0D06820F49070D060506920F001005F
:101F40005061286B012803D1D06820F01000D060C8
:101F5000202085F83E0000202863506940061DD5EA
:101F6000506920F040005061A86BB8B142F25D7139
:101F7000C0F600014163FEF7C5FF00283FF46EAFD5
:101F8000A86B416B02B0BDE8B04008472846FFF798
:101F9000F3FE0020286402B0B0BD00BF284602B0A6
:101FA000BDE8B040FFF7E8BED368401A23F4907351
:101FB000D360536981B223F001035361202385F874
:101FC0003E3000232B63D368284623F01003D360F0
:101FD00002B0BDE8B040FFF7CDBE00BF286A30F8C0
:101FE000021B6FF35F215160286204E7002804BFE1
:101FF0000120704710B5044690F83D0028B9002034
:1020000084F83C00204600F061F8242084F83D006C
:102010002068D4E90212C36823F40053C360036943
:1020200023F440531A430261D4E904231143C268E4
:10203000194341F20C639A431143C1604169A2699B
:1020400021F44071114343F60002C4F201029042B0
:10205000416103D0FFF778FA02E000BFFFF788FA8A
:102060006268192148439100B0FBF1F048F21F511A
:10207000C5F2EB11A0FB01235A094FF69C73C0F681
:10208000FF7302FB0300322303EB0010A0FB0101EE
:10209000F02303EA5113206803EB0212C1F343114A
:1020A00011448160016921F490410161416921F08D
:1020B0002A014161C16841F40051C1600020202122
:1020C000206484F83D1084F83E1010BD70B586B0D1
:1020D00040F60004C4F20104006804F540510026F3
:1020E0008842049602D006B070BD00BF41F21800CD
:1020F000C4F20200016802AD41F480410160016850
:1021000001F4804101910199016841F004010160ED
:102110000068294600F00400019001984FF4007017
:10212000029002200390032005902046FEF754FF02
:102130004FF48060CDE90206204629460496FEF75A
:102140004BFF252000210022FFF7E2F82520FFF7B2
:10215000CBF806B070BD0000034690F83E00202882
:102160000AD100294FF0010018BF002A00D17047A2
:1021700093F83C00012801D1022070470020186329
:10218000996222219A85DA85186483F83E101968CD
:1021900083F83C00CA6842F48072CA604A6942F01F
:1021A00001024A61CA6842F02002CA60704700001A
:1021B000B0B540F29805C2F200052C1D2046FEF78E
:1021C000A5FB05F12C0021460422BDE8B040FFF735
:1021D000C3BF00002DE9F041044690F83D002028DF
:1021E0000ED10D4600294FF0010000F08E801646FA
:1021F000002A08BFBDE8F08194F83C00012803D113
:102200000220BDE8F08100BF012084F83C000020DE
:1022100020642120984684F83D00FEF7F7FFA6844D
:10222000E684A1680646B1F5805F03D120690028E5
:1022300000F0A0802F460025002084F83C00E08CB0
:10224000E0B118F101001BD0B8F1000F60D1206897
:102250000BE000BF35F8021B00276FF35F214160E0
:10226000E18C0139E184E18C51B3016809066DD537
:10227000002FEFD017F8011BF1E700BF20681FE027
:10228000206802E00168090609D40168090606D43D
:10229000016809065CBF01685FEA0161F2D51FB100
:1022A00017F8011B05E000BF35F8021B00276FF38C
:1022B0005F214160E18C0139E184E18C0029E4D1A6
:1022C000016849061DD4B8F1000F3FD018F1010193
:1022D0000ED10168490614D4016849065CBF016843
:1022E0005FEA41610DD401684906F2D509E000BFFB
:1022F000FEF78CFF811B2068414527D80068400607
:10230000F6D5202084F83D000020BDE8F08100BF14
:10231000206800BF0168090606D4FEF777FF811B1D
:1023200020684145F6D911E017B117F8011B04E008
:1023300035F8021B00276FF35F214160E18C013902
:10234000E184E18C0029E5D1BAE700BFC16821F43E
:10235000D071C160416921F001014161202084F800
:102360003D0084F83E00002084F83C000320BDE8D6
:10237000F08100BF00275FE7034690F83D0020286A
:102380000AD100294FF0010018BF002A00D1704780
:1023900093F83C00012801D1022070471962002007
:1023A00021219A84DA84186483F83D10196883F82F
:1023B0003C00CA6842F08002CA60704740F20000E8
:1023C000C2F200000121817770470000FEE70000A3
:1023D000FEE70000FEE700007047000070B524260D
:1023E0000446C4F200060020306040F20C10C2F235
:1023F0000000FFF79FFB40F20005C2F2000595F9CF
:102400000D10686A89B20022FEF7FAFEA97BEA7B0A
:10241000686A114349B289B20122FEF7F1FEFEF764
:10242000D5F900BF3068A04208D23068A04205D27A
:102430003068A04202D23068A042F3D340F20C10C0
:10244000C2F20000FFF7AEFB697BAA7BEB7B114376
:102450001943686A49B289B20022BDE87040FEF7AC
:10246000CFBE00007047000070B51D2888BF70BD4A
:102470000C4640F20006C2F20006DFE810F01F0032
:102480002C00380069016901440051005D006900B9
:10249000760083008F009C00A900B500BD00CA0033
:1024A000D600E200EE00FA00060112011F012B0126
:1024B000370143014F0157015F0100BFB57C28463A
:1024C000FDF7A0FF04F0030100F0CF0040EA011186
:1024D0002846FEF7DDF9B57C2846FDF793FF04F0AA
:1024E0000F0100F0F00001442846FEF7D1F9B57C59
:1024F0002846FDF787FF00F07F0040EAC410C1B214
:102500002846FEF7C5F9B57C2846FDF77BFF04F0A9
:10251000010100F0FD0040EA41012846FEF7B8F94C
:10252000B57C2846FDF76EFF04F0010100F0FE00C7
:1025300001442846FEF7ACF9757C2846FDF762FF9A
:1025400004F0030100F0FC0001442846FEF7A0F966
:10255000757C2846FDF756FF04F0010100F0FB00F2
:1025600040EA81012846FEF793F9757C2846FDF77D
:1025700049FF04F0010100F0F70040EAC1012846DC
:10258000FEF786F9F57C2846FDF73CFF04F00701CD
:1025900000F0F80001442846FEF77AF9F57C284659
:1025A000FDF730FF04F0010100F0F70040EAC1013F
:1025B0002846FEF76DF9F57C2846FDF723FF04F069
:1025C000010100F0EF0040EA01112846FEF760F932
:1025D000F57C2846FDF716FF00F01F0040EA441086
:1025E000C1B22846FEF754F9357F2846FDF70AFFA9
:1025F000E1B22846FEF74CF9357D2846FDF702FF8B
:1026000004F0070100F08F0040EA01112846FEF7B0
:102610003FF9357D2846FDF7F5FE00F07F0040EAE2
:10262000C410C1B22846FEF733F9B57D2846FDF740
:10263000E9FE04F00F0100F0F00001442846FEF727
:1026400027F9B57D2846FDF7DDFE00F00F0040EAD2
:102650000410C1B22846FEF71BF9F57D2846FDF7A8
:10266000D1FE04F00F0100F0F00001442846FEF70F
:102670000FF9F57D2846FDF7C5FE00F00F0040EA92
:102680000410C1B22846FEF703F9357E2846FDF74F
:10269000B9FE04F0070100F0F80001442846FEF7F7
:1026A000F7F8357E2846FDF7ADFE04F0070100F08F
:1026B000C70040EAC1012846FEF7EAF8757E2846C1
:1026C000FDF7A0FE00F07F0040EAC410C1B228462A
:1026D000FEF7DEF8757E2846FDF794FE04F01F0134
:1026E00000F0E00001442846FEF7D2F8B57E284607
:1026F000FDF788FE00F07F0040EAC410C1B2284612
:10270000FEF7C6F8B57E2846FDF77CFE04F01F01F3
:1027100000F0E00001442846FEF7BAF8F57E2846AE
:10272000FDF770FEE1B22846FEF7B2F8357F284685
:10273000FDF768FEE1B22846FEF7AAF8757F284645
:10274000FDF760FEE1B22846BDE87040FEF7A0B894
:1027500070BD0000FEF760BD70470000406A0021B8
:10276000C185C184FFF708BB81B090F83E102229D3
:1027700021D183680246B3F5805F09D152F8281F42
:1027800052F8183C002B3FD003685B680AE000BF9A
:1027900052F8281F13B90369002BF5D003685B6852
:1027A00003F07F030B70116801311160C18D013995
:1027B0000A04C18502D001B0704700BF0168CA6831
:1027C00022F02002CA60CA6822F48072CA604A6994
:1027D00022F001024A61202280F83E20026B012A89
:1027E0001AD100220263CB6823F01003CB600B6880
:1027F000DB0605D500920A680092496800910099AD
:10280000818D01B0FFF7B6BA026852686FF35F229C
:1028100021F8022B8162C9E701B0FFF7C9BC0000B3
:1028200040F2C400C2F20000FFF7A8BAFEE70000C1
:1028300090B0FEF7FFFC00240120CDE90B44CDE968
:1028400009440A9010200B904FF4601002250F905D
:1028500006A8CDE907440695CDE90D54FEF79CFE88
:1028600020B1EFF3108072B6FEE700BF0F20CDE974
:1028700000054FF4E060CDE90304684602210294AC
:10288000FEF782FD20B1EFF3108072B6FEE700BFC5
:10289000002741F218000997C4F20200016840F6CF
:1028A000000841F0040101600168C4F2010801F070
:1028B0000401009100990168002241F008010160C3
:1028C00000682C2100F00800009000984046FEF7B8
:1028D00097FC4046502101220124FEF791FC08F5A7
:1028E00080652846382100224FF03809FEF788FC21
:1028F00006AE4FF0030B4FF0020A40463146CDE9D9
:1029000006B7CDF820A0FEF767FB0C2006A981E8EA
:10291000910840463146FEF75FFB302006A981E86A
:10292000910440463146FEF757FB4020CDE90604AE
:1029300040463146CDE9084BFEF74EFB284631466E
:10294000CDE90694CDE9087AFEF746FB40F20C107B
:10295000C2F200004FF080414FF6FF730997CDE9B6
:102960000777CDE90077072280E88600C0E90337C2
:102970008761FFF73FF828B1EFF3108072B600BF10
:10298000FEE700BF4FF48050069040F20C10C2F2F8
:10299000000006A9FFF724F920B1EFF3108072B60A
:1029A000FEE700BF40F20C10C2F200006946FEF7DD
:1029B000E3FF28B1EFF3108072B600BFFEE700BF5F
:1029C00040F29805C2F2000508F54051284640F84B
:1029D0002C1F4FF4E13100240C22C0E90114C0E99E
:1029E0000344C0E90524C461FFF700FB20B1EFF305
:1029F000108072B6FEE700BF40F25410A8F5823195
:102A0000C2F200004FF6FF720994CDE90744CDE908
:102A10000044C0E90014C0E9024204618461FEF789
:102A2000E9FF28B1EFF3108072B600BFFEE700BFE8
:102A30004FF48050069040F25410C2F2000006A9F4
:102A4000FFF7CEF820B1EFF3108072B6FEE700BFBB
:102A500040F25410C2F200006946FEF78DFF28B123
:102A6000EFF3108072B600BFFEE700BF05F12C0443
:102A70000435204629460422FFF76EFB20462946EE
:102A80000422FFF779FC40F20006C2F2000601279B
:102A90000DF1180896F90B10306A89B20022002552
:102AA000FEF7AEFB07FA05F096F9091010F4145280
:102AB000306A89B218BF0122FEF7A2FB96F90A100C
:102AC000306A89B20122FEF79BFB96F90A10306A40
:102AD00089B20022FEF794FB0135102DE2D1FDF7FB
:102AE000CFFC326A96F90B108DF8180089B21046A7
:102AF0000122FEF785FB204641460122FFF73CFC00
:102B000041F28830FEF754FAC4E7010200000000E9
:102B1000000000000102030406070809000000008D
:102B20000102030402030405060708090A0B0C0D41
:102B30000E0F1010582B0008000000203800000075
:102B400028010008902B00083800002068070000CA
:102B5000440100080000000006080A17192040017F
:102B600002040810202010080102030405060D0EBF
:102B70000F1011121314010000080140000C014055
:102B800001000000100000000024F400000000001C
:04000005080000ED02
:00000001FF
