:020000040800F2
:10000000A807002089010008792700087127000847
:1000100075270008A1080008DD2A0008000000007C
:10002000000000000000000000000000812800081F
:10003000450B0008000000007D270008F929000892
:10004000A3010008A3010008A3010008A301000800
:10005000A3010008A3010008A3010008A3010008F0
:10006000A3010008A3010008A3010008A3010008E0
:10007000A3010008A3010008A3010008A3010008D0
:10008000A3010008A3010008A3010008A3010008C0
:10009000A3010008A3010008A3010008A3010008B0
:1000A000A3010008A3010008A3010008A3010008A0
:1000B000012A0008A3010008A3010008A301000809
:1000C000A3010008A3010008A3010008A301000880
:1000D000A3010008D12A0008A3010008A301000819
:1000E000A3010008A3010008A301000800F002F822
:1000F00000F03AF80AA090E8000C82448344AAF188
:100100000107DA4501D100F02FF8AFF2090EBAE885
:100110000F0013F0010F18BFFB1A43F0010318473B
:10012000442C0000642C0000103A24BF78C878C129
:10013000FAD8520724BF30C830C144BF04680C60ED
:10014000704700000023002400250026103A28BF35
:1001500078C1FBD8520728BF30C148BF0B60704739
:100160001FB51FBD10B510BD00F031F81146FFF7E7
:10017000F7FF02F0B5FC00F04FF803B4FFF7F2FF11
:1001800003BC00F057F800000948804709480047C1
:10019000FEE7FEE7FEE7FEE7FEE7FEE7FEE7FEE737
:1001A000FEE7FEE704480549054A064B7047000094
:1001B000FD290008ED000008A8010020A807002084
:1001C000A8030020A80300207047704770477546B9
:1001D00000F02CF8AE4605006946534620F00700B3
:1001E000854618B020B5FFF7DDFFBDE820404FF091
:1001F00000064FF000074FF000084FF0000BAC4630
:10020000ACE8C009ACE8C009ACE8C009ACE8C0097A
:1002100021F007018D46704710B50446AFF300800A
:100220002046BDE81040FFF7A8BF00000048704717
:100230003800002001491820ABBEFEE7260002006E
:1002400070470000F0B581B040F20007C2F200072D
:1002500015460C4679793A6A97F90A300E1899B220
:100260001046002201F0BCF870B200F005FA002040
:1002700000F002FA00F0F8F83A6A97F90A10064618
:1002800089B21046012201F0ABF897F90A3005EA6D
:10029000040126EA0402386A541899B2002201F0D7
:1002A0009FF8002000F0E8F9002000F0E5F960B2C6
:1002B00000F0E2F997F90A10386A89B2012201B018
:1002C000BDE8F04001F08CB82DE9F04182B040F279
:1002D0000006C2F20006707C402100220027FFF7D2
:1002E000B1FF2420C4F20000076096F90E1040F21E
:1002F0009805706AC2F2000589B20022EF606F7043
:100300006F6001F06DF8317B727B706A114349B206
:1003100089B2012201F064F840F21010C2F200002C
:1003200001F006FD00F006FA2878D8B305F1300494
:100330000DF1040809E000BF96F90A10306A89B28D
:10034000012201F04DF8287860B396F90610306A62
:1003500089B201F03FF80028F5D196F90A10306A09
:1003600089B2002201F03CF800F07EF800F07CF841
:100370008DF8040000F078F88DF8050000F074F8AE
:100380008DF8060000F070F88DF8070000F06CF8AA
:10039000707F0028D0D0204641460422777702F0B3
:1003A000BDF9C9E796F90B10306A89B2002201F055
:1003B00017F8317B727BB37B11431943706A49B2E2
:1003C00089B2002201F00CF840F21010C2F20000D5
:1003D00001F0E6FC02B0BDE8F081000010B582B08B
:1003E00040F20004C2F20004607C40214022FFF78A
:1003F00029FF00F09FF900BF94F90610206A89B226
:1004000000F0E8FF0028F7D194F90A10206A89B2B9
:10041000002200F0E5FF00F027F800F025F88DF845
:10042000040000F021F88DF8050000F01DF88DF8AB
:10043000060000F019F88DF8070000F015F840F2FA
:100440009800C2F20000303001A904224FF6FF7379
:1004500002F092F894F90A10206A89B2012200F0A1
:10046000BFFF02B010BD00002DE9F04740F2244765
:1004700040F2000A40F258194FF00008C4F2000799
:10048000C2F2000AC2F200090024002607E000BF01
:1004900048462C4301F084FC0136082E40D09AF9DE
:1004A0000910DAF8200089B2012200F099FF9AF9C8
:1004B0000710DAF8200089B200F08CFF05464846A4
:1004C000C7F8008001F034FC3868012808D8386883
:1004D000012805D83868012802D838680228F3D3E3
:1004E0004846B54001F05CFC9AF90910DAF82000A2
:1004F00089B2002200F074FF4846C7F8008001F07E
:1005000017FC00BF38680128C2D838680128BFD856
:1005100038680128BCD838680228F3D3B8E700BF90
:10052000E0B2BDE8F0870000B0B540F20004C2F2CE
:1005300000046179227D94F90A30206A8D1899B2FD
:10054000002200F04DFF68B200F096F8002000F0A5
:1005500093F8FFF789FF94F90A10206A89B2012203
:1005600000F03EFF6179627C94F90A30206A8D18B0
:1005700099B2002200F034FF68B200F07DF800204C
:1005800000F07AF8FFF770FF94F90A10206A89B238
:10059000012200F025FF94F90A10206A89B2002296
:1005A00000F01EFF002000F067F8002000F064F863
:1005B0004FF0FF3000F060F894F90A10206A89B219
:1005C000012200F00DFF94F90A10206A89B200227E
:1005D00000F006FF002000F04FF8002000F04CF87B
:1005E000002000F049F894F90A10206A89B201222B
:1005F00000F0F6FE94F90A10206A89B2002200F099
:10060000EFFE94F9040000F037F894F90A10206A1C
:1006100089B2012200F0E4FE94F90A10206A89B23E
:10062000002200F0DDFE002000F026F8002000F09F
:1006300023F8002000F020F894F90A10206A89B20B
:10064000012200F0CDFE94F90A10206A89B200223E
:1006500000F0C6FE002000F00FF8002000F00CF8BB
:10066000002000F009F894F90A10206A89B20122EA
:10067000BDE8B04000F0B4BE2DE9F04381B040F2D7
:10068000244640F2000740F258158146C4F20006A5
:100690004FF00008C2F20007C2F2000500240CE08F
:1006A000284601F07DFB97F90910386A89B20022CB
:1006B00000F096FE0134082C38D097F9083029FA5A
:1006C00004F1386A01F0010299B200F089FE28466F
:1006D000C6F8008001F02CFB3068012808D830688B
:1006E000012805D83068012802D830680228F3D3E1
:1006F000284601F055FB97F90910386A89B20122A2
:1007000000F06EFE2846C6F8008001F011FB00BF25
:1007100030680128C4D830680128C1D83068012861
:10072000BED830680228F3D3BAE700BF01B0BDE8F5
:10073000F0830000F0B581B040F20005C2F2000580
:1007400095F90B10286A40F2244689B20122C4F2BE
:10075000000600F045FE0020306040F25810C2F262
:10076000000001F0E5FA00BF3068042808D83068BE
:10077000042805D83068042802D830680528F3D347
:1007800040F25814C2F20004204601F009FB95F92A
:100790000B10286A89B20022002700F021FE2046B3
:1007A000376001F0C5FA00BF3068042808D8306807
:1007B000042805D83068042802D830680528F3D307
:1007C00040F25810C2F2000001F0EAFA95F90B105D
:1007D000286A89B2012201B0BDE8F04000F000BEF5
:1007E000B0B540F20004C2F200046179227D94F9B0
:1007F0000A30206A8D1899B2002200F0F1FD68B22B
:10080000FFF73AFF0020FFF737FFFFF72DFE94F9BF
:100810000A10206A89B2012200F0E2FD94F90A1060
:10082000206A89B2002200F0DBFD0020FFF724FFE0
:100830000020FFF721FF0A20FFF71EFF94F90A109E
:10084000206A89B2012200F0CBFD94F90A10206AD7
:1008500089B2002200F0C4FD94F90300FFF70CFFF9
:1008600094F90A10206A89B2012200F0B9FD94F9C6
:100870000A10206A89B2002200F0B2FD0020FFF7C2
:10088000FBFE0020FFF7F8FE0020FFF7F5FE94F9CD
:100890000A10206A89B20122BDE8B04000F0A0BD74
:1008A000FEE7000070B5044600780D283AD8DFE86E
:1008B00010F00F003F00750079001B007D009300D1
:1008C0009500B5001F003B0133003B00450100BF10
:1008D00040F29801C2F2000101F130000831042217
:1008E000BDE8704001F01ABFBDE87040FFF71CBEC4
:1008F000E0781D2816D800F027F940F29806034644
:10090000C2F2000606F1100106F1300001227374F4
:10091000BDE8704001F002BF40F29800C2F2000052
:100920000021017070BD00BFBDE8704001F028BF1C
:1009300040F20005C2F2000595F90A10286A40F25B
:10094000244489B20022C4F20004002600F048FDCD
:1009500095F90000FFF790FE95F90A10286A89B210
:10096000012200F03DFD40F25810C2F20000266066
:1009700001F0DEF92068082808D82068082805D882
:100980002068082802D820680928F3D340F25810BC
:10099000C2F20000BDE8704001F002BABDE870404C
:1009A000FFF792BCBDE87040FFF718BD40F20005AC
:1009B000C2F2000595F90A10286A89B2002200F0F7
:1009C0000FFD95F90300FFF757FE95F90A10286A05
:1009D00089B2012200F004FDFFF702FF40F200059A
:1009E000C2F2000595F90A10286AE47889B200225B
:1009F00000F0F6FC0020FFF73FFE0020FFF73CFE72
:100A0000E0074FF0070008BF0320FFF735FE95F918
:100A10000A10286A89B2012200F0E2FC002000F0EE
:100A200093F840F29804C2F2000404F8100F012079
:100A300000F08AF86070022000F086F8A0700320B1
:100A400000F082F8E070042000F07EF820710520AC
:100A500000F07AF86071062000F076F8A0710720A7
:100A600000F072F8E071082000F06EF820720920A2
:100A700000F06AF860720A2000F066F8A0720B209D
:100A800000F062F8E0720C2000F05EF820730D2098
:100A900000F05AF860730E2000F056F8A0730F2093
:100AA00000F052F8E073102000F04EF8207411208E
:100AB00000F04AF86074122000F046F8A074132089
:100AC00000F042F8E074142000F03EF82075152084
:100AD00000F03AF86075162000F036F8A07517207F
:100AE00000F032F8E075182000F02EF8207619207A
:100AF00000F02AF860761A2000F026F8A0761B2075
:100B000000F022F8E0761C2000F01EF820771D206F
:100B100000F01AF8034604F1200021461E226377F4
:100B2000BDE8704001F0FABDE1781D2988BF70BDB5
:100B3000A07849B2BDE8704001F0A4BEBDE87040A5
:100B400001F060BE70470000B0B51D2828D8DFE86E
:100B500010F02B004F0057005F006F007F00A300D4
:100B6000C700EB000F0117011F01430167011F00C0
:100B70008901AD01B501BD01C501E901F101150210
:100B800039024102970249026D021F00750200BF3F
:100B900040F20004C2F200046179E27E54E200BF38
:100BA000002460B2B0BD00BF40F20004C2F20004F5
:100BB0006179627C94F90A30206A8D1899B200221A
:100BC00000F00EFC68B2FFF757FD0020FFF754FD60
:100BD000FFF74AFC226A94F90A10044689B21046CB
:100BE000012200F0FDFBC4F3011460B2B0BD00BFF0
:100BF00040F20004C2F200046179627C74E100BF3B
:100C000040F20004C2F200046179627C3EE200BF5F
:100C100040F20C1040F20004C2F20000C2F20004E4
:100C200001786279206A94F90A30551802E100BF10
:100C300040F20C1040F20004C2F20000C2F20004C4
:100C400001786279206A94F90A305518D4E100BF1E
:100C500040F20004C2F200046179E27B94F90A30A8
:100C6000206A8D1899B2002200F0BAFB68B2FFF733
:100C700003FD0020FFF700FDFFF7F6FB226A94F961
:100C80000A10044689B21046012200F0A9FBC4F301
:100C9000400460B2B0BD00BF40F20004C2F20004E4
:100CA0006179627C94F90A30206A8D1899B2002229
:100CB00000F096FB68B2FFF7DFFC0020FFF7DCFCDA
:100CC000FFF7D2FB226A94F90A10044689B2104653
:100CD000012200F085FB04F0010460B2B0BD00BF4A
:100CE00040F20004C2F200046179227C94F90A30D7
:100CF000206A8D1899B2002200F072FB68B2FFF7EB
:100D0000BBFC0020FFF7B8FCFFF7AEFB226A94F9AA
:100D10000A10044689B21046012200F061FB04F07B
:100D2000030460B2B0BD00BF40F20004C2F2000490
:100D30006179227C94F90A30206A8D1899B20022D8
:100D400000F04EFB68B2FFF797FC0020FFF794FC21
:100D5000FFF78AFB226A94F90A10044689B210460A
:100D6000012200F03DFBC4F3800460B2B0BD00BFBF
:100D700040F20004C2F200046179227C0EE000BF60
:100D800040F20004C2F200046179A27CD8E000BF06
:100D900040F20004C2F200046179A27C94F90A30A6
:100DA000206A8D1899B2002200F01AFB68B2FFF792
:100DB00063FC0020FFF760FCFFF756FB226A94F902
:100DC0000A10044689B21046012200F009FBC4F360
:100DD000C00460B2B0BD00BF40F20004C2F2000423
:100DE0006179A27C94F90A30206A8D1899B20022A8
:100DF00000F0F6FA68B2FFF73FFC0020FFF73CFC7A
:100E0000FFF732FB226A94F90A10044689B21046B1
:100E1000012200F0E5FAC4F3001460B2B0BD00BFD7
:100E200040F20004C2F200046179A27C206A94F9C5
:100E30000A308D1899B2002200F0D2FA68B2FFF79A
:100E40001BFC0020FFF718FCFFF70EFB226A94F949
:100E50000A10044689B21046012200F0C1FA640962
:100E600060B2B0BD40F20004C2F200046179E27CDD
:100E700094F90A30206A8D1899B2002200F0B0FA75
:100E800068B2FFF7F9FB0020FFF7F6FBFFF7ECFA7B
:100E9000226A94F90A10044689B21046012200F031
:100EA0009FFAC4F3021460B2B0BD00BF40F2000468
:100EB000C2F200046179E27CE8E000BF40F2000485
:100EC000C2F200046179627D0EE000BF40F20004CE
:100ED000C2F200046179627DD8E000BF40F20004F4
:100EE000C2F200046179A27D94F90A30206A8D185B
:100EF00099B2002200F074FA68B2FFF7BDFB00203F
:100F0000FFF7BAFBFFF7B0FA226A94F90A10044619
:100F100089B21046012200F063FA04F00F0460B2B7
:100F2000B0BD00BF40F20004C2F200046179A27DAE
:100F3000ACE000BF40F20004C2F200046179E27D3F
:100F400094F90A30206A8D1899B2002200F048FA0C
:100F500068B2FFF791FB0020FFF78EFBFFF784FAE2
:100F6000226A94F90A10044689B21046012200F060
:100F700037FA04F0070460B2B0BD00BF40F20004CD
:100F8000C2F200046179E27D94F90A30206A8D187A
:100F900099B2002200F024FA68B2FFF76DFB00203E
:100FA000FFF76AFBFFF760FA226A94F90A10044619
:100FB00089B21046012200F013FAC4F3C20460B2F1
:100FC000B0BD00BF40F20004C2F200046179227E8D
:100FD0005CE000BF40F20004C2F200046179227EAE
:100FE00006E000BF40F20004C2F200046179627EB4
:100FF000206A94F90A308D1899B2002200F0F0F9B5
:1010000068B2FFF739FB0020FFF736FBFFF72CFA39
:10101000226A94F90A10044689B21046012200F0AF
:10102000DFF904F01F0460B2B0BD00BF40F200045D
:10103000C2F200046179A27E06E000BF40F2000423
:10104000C2F200046179227F94F90A30206A8D1877
:1010500099B2002200F0C4F968B2FFF70DFB00203E
:10106000FFF70AFBFFF700FA226A94F90A10044618
:1010700089B21046012200F0B3F960B2B0BD00BFE2
:1010800040F20004C2F200046179627E94F90A30F1
:10109000206A8D1899B2002200F0A2F968B2FFF719
:1010A000EBFA0020FFF7E8FAFFF7DEF9226A94F97D
:1010B0000A10044689B21046012200F091F9E409B1
:1010C00060B2B0BD014690F82100022816D1086830
:1010D000D1E90FC3026822F00E020260026822F01A
:1010E00001020260012000FA03F2CCF8042081F82A
:1010F00021000020002281F820207047042088630E
:101100000120002281F820207047000080B590F86F
:101110002110022924D10268116821F00E0111600A
:101120002F211368C4F202018A4240F20401C4F282
:10113000020123F00103136016DD3023C4F2020321
:101140009A421DD04423C4F202039A421CD0582371
:10115000C4F202039A421DD14FF4803322E000BF53
:1011600004218163012080BD0823C4F202039A4256
:101170000ED01C23C4F202039A420BD1102311E0BB
:101180004FF480730EE000BF4FF480530AE000BFBD
:10119000012307E001F1680C4FF08073624508BF3E
:1011A0004FF480130B60416B4FF48072028401B1E5
:1011B0008847002080BD00002DE9F04F82B00E6806
:1011C000002E00F0038140F20C4C41F200424FF639
:1011D000FF7EC4F2010CC4F20102042700240123A3
:1011E000C1F2100E4FF0000A4FF00009904208BF04
:1011F0000327009745E000BF012704F00C030F22EE
:101200009A402BEA020207FA03F34FEA9A051A43BF
:1012100046F82520D1F804B040F20045C4F201059B
:101220005FEACB322A6854BF22EA080242EA080287
:101230002A606A685FEA8B3354BF22EA080242EAF6
:1012400008026A605FEACB23AA6854BF22EA080258
:1012500042EA08025FEA8B23AA60DCF800204FF024
:10126000010354BF22EA080242EA0802CCF8002037
:101270000E680AF1010A36FA0AF204F1040400F0D9
:10128000A58003FA0AF816EA080FF1D04E687645F1
:1012900012DC122E56D8DFE806F0350B45495555BD
:1012A00055555555555555555555554D510000BF3A
:1012B000D1F80C9046E000BF4FF6FF72C1F2210258
:1012C00096420FDC0022C1F2110296421AD000228F
:1012D000C1F21202964215D00022C1F221029642BA
:1012E00010D02FE00022C1F2220296420AD0002242
:1012F000C1F23102964205D00022C1F2320296427A
:1013000020D100BF8A684AB1012A14BFC0F81480F6
:10131000C0F810804FF0080914E000BF4FF0040936
:1013200010E000BFCA6802F108090BE04FF00009A5
:1013300008E000BFCA6802F1040903E0CA6802F1CC
:101340000C0900BF22460646BAF1080F24BF203A16
:10135000043637680F25954027EA050509FA02F299
:101360002A433260CA79D2067FF582AF41F2180370
:10137000C4F202031A6842F001021A601A6802F00D
:1013800001020192019A40F20042C4F20102A2F568
:101390007E762AF0030256F802B040F60002C4F24C
:1013A0000102904210D040F60042C4F20102904285
:1013B0003FF422AF41F20002C4F20102009F9042CA
:1013C00008BF022719E700BF002716E702B0BDE8F3
:1013D000F08F00008068084018BF012070470000AF
:1013E000002A08BF090401617047000040F2A01004
:1013F000C2F200000068704740F2280040F2A011DD
:10140000C2F20000C2F2000100780A6810440860CD
:101410007047000080B542F20000C4F2020001688B
:1014200041F010010160032000F08EF80F2000F061
:1014300005F800F027F8002080BD000070B540F2EC
:101440002806C2F2000640F230013278C2F20001F2
:101450004FF47A730968B3FBF2F20446B1FBF2F180
:10146000084600F063FB0F2C4FF0010508D838B98F
:101470004FF0FF3021460022002500F039F874605B
:10148000284670BD82B041F21800C4F20200016823
:10149000022241F001010160016801F001010191A6
:1014A0000199416841F080514160406800F08050EE
:1014B000009000980420C4F20100016862F31A61F0
:1014C000016002B070470000002848BF7047C1B2F9
:1014D00000F01F00012202FA00F04EF20012CEF2DC
:1014E000000242EAD10121F00301086070470000C8
:1014F00010B54EF60C5CCEF2000CDCF80030C3F3F5
:10150000022E8EF00704042C28BF0424BEF103032E
:101510004FF0FF3E0EFA04F438BF0023A143994078
:101520000EFA03F39A43114300F00F0200F16043F7
:101530000901043A03F564436244002848BF02F1FC
:101540000C03197010BD00004EF60C51CEF20001D4
:101550000A684FF6FF031A4060F30A2242F08060E7
:1015600040F0FD70086070472DE9F04381B000281D
:1015700000F0858042F20008C4F202080446D8F860
:1015800000000D4600F0070088420CD2D8F8000099
:1015900020F007002843C8F80000D8F8000000F049
:1015A0000700A8426BD1206841F204098107C4F208
:1015B000020917D5410705D5D9F8001041F4E061BB
:1015C000C9F80010010705D5D9F8001041F46051A1
:1015D000C9F80010D9F80010A26821F0F0011143F9
:1015E000C9F80010C00741D1D8F8000000F007008A
:1015F000A8420CD9D8F8000020F007002843C8F80A
:101600000000D8F8000000F00700A84237D1206899
:10161000410707D5D9F80010E26821F4E0611143D1
:10162000C9F80010000708D5D9F80000216920F496
:10163000605040EAC100C9F80000D9F8002002F06B
:101640000C00082841F20020C0F27A0050D142F686
:101650005453C2F38341C0F60003595CD2033BD418
:1016600040F60010C0F23D00484341E060680228A7
:101670000AD001282AD159F8041C890308D4012072
:1016800001B0BDE8F08300BF59F8041C8901F6D50C
:10169000D9F8001021F003010843C9F80000FFF752
:1016A000A5FE064641F28837D9F80000616800F0CF
:1016B0000C00B0EB810F97D0FFF798FE801BB8426B
:1016C000F2D9032001B0BDE8F08300BF59F8041C33
:1016D0008907D4D5DCE700BFD9F8002042F63A5399
:1016E000C2F34042C0F600039A5C4843B0FBF2F0FC
:1016F000D9F8001042F63C52C1F30311C0F60002C3
:10170000515C40F2300220FA01F140F22C00C2F2AA
:1017100000000068C2F200021160FFF78FFE002097
:1017200001B0BDE8F083000040F2300041F2040156
:10173000C2F20000C4F202010068096842F64C528D
:10174000C1F30221C0F60002515CC840704700009E
:1017500040F2300041F20401C2F20000C4F2020182
:101760000068096842F64C52C1F3C221C0F600027B
:10177000515CC840704700002DE9F04182B000285C
:1017800068D00446007841F20006C007C4F20206A1
:1017900025D0706800F00C0004281BD0706800F0A1
:1017A0000C00082802D17068C00313D460680028B8
:1017B00000F06881B0F5A02F00F07C81B0F5803F8B
:1017C00000F07C81306820F480303060306820F494
:1017D000802076E13068800301D56068D0B320783E
:1017E000800718D5706810F00C0F07D0706800F0F3
:1017F0000C0008286ED17068C0036BD43068800775
:1018000002D52069012825D13068616920F0F800EF
:1018100040EAC1003060207800071FD420784007DC
:1018200032D4E56995B1706800F00C00082840F0EA
:101830008F80012D0ED07068216A00F480328A42B8
:1018400008D1616A00F47010884203D1002002B010
:10185000BDE8F081012002B0BDE8F081A069002858
:1018600062D00020C4F242200121C0F88014FFF7AA
:10187000BDFD0546706A800700F18C80FFF7B6FD5C
:10188000401B0228F6D92AE1F06910F0805808D1EF
:10189000F06940F08050F061F06900F080500090F5
:1018A000009847F20007C4F200073868C00529D441
:1018B000386840F480703860FFF798FD054600BF37
:1018C0003868C0051ED4FFF791FD401B6428F7D986
:1018D00005E100BF2069002840F20000C4F2422068
:1018E00000F0828001210160FFF780FD054600BF06
:1018F000306880073FF588AFFFF778FD401B02286E
:10190000F6D9ECE0E068002800F08080052800F0BF
:101910009780012800F09880306A20F00100306242
:10192000306A20F0040092E00020C4F2422000213E
:10193000C0F88014FFF75AFD054600BF706A8007A3
:101940007FF56CAFFFF752FD401B0228F6D9C6E0C9
:101950000027C4F2422700203866FFF747FD022D1A
:1019600005460BD13068800140F1BE80FFF73EFD97
:10197000401B02284FF00300F4D968E7306880016B
:101980007FF564AFFFF732FD401B02284FF00300E4
:10199000F4D95CE740F23000C2F20000006844F67F
:1019A000D351C1F26201A0FB0101480A019000BFBE
:1019B00000BF0198411E002801913FF42FAF00BFE6
:1019C0000198411E002801913FF428AF00BF019803
:1019D000411E002801913FF421AF00BF0198411E34
:1019E00000280191E4D119E700210160FFF7FEFC16
:1019F000054600BF306880077FF50DAFFFF7F6FCA6
:101A0000401B02284FF00300F4D920E7306A20F091
:101A100001003062306A20F004003062FFF7E6FC1B
:101A2000054641F2883700BF306A800720D5FFF7AE
:101A3000DDFC401BB8424FF00300F5D907E700BFBB
:101A4000306A40F004003062306A40F001003062D9
:101A5000FFF7CCFC054641F2883700BF306A8007AB
:101A600006D4FFF7C3FC401BB842F7D937E000BFEC
:101A7000B8F1000F7FF4D5AEF06920F08050F0612E
:101A8000CFE600BF306820F480303060306820F44A
:101A900080203060FFF7AAFC054600BF3068800355
:101AA0007FF59DAEFFF7A2FC401B64284FF00300BA
:101AB000F4D9CCE6306840F480203060306840F4DF
:101AC00080303060FFF792FC054600BF306880032D
:101AD0003FF585AEFFF78AFC401B6428F6D903204A
:101AE00002B0BDE8F08100BF206AB0F5803F05D1AB
:101AF0007168A26821F40031114371607168626AF3
:101B000021F4741111430843706001203866FFF717
:101B10006DFC0446306880013FF598AEFFF766FC27
:101B2000001B02284FF00300F4D990E6411E00206C
:101B3000B0EB116F1CBF012070474EF21002CEF2C5
:101B4000000251604EF62351CEF20001F0230B70DB
:101B500007219060116070477047000070470000D7
:101B600010B590F83C20012A4FF0020233D080F8E3
:101B70003D200268D2F804E0D2F808C00C682EF0CC
:101B80007003234340F2FF74C4F20004A242536086
:101B90000ADCB2F1804F13D040F20043C4F20003DC
:101BA0009A420DD011E000BF42F60043C4F2010397
:101BB0009A4205D040F60003C4F200039A4204D1D1
:101BC00049682CF08003194391600121002280F8BC
:101BD0003D1080F83C20104610BD0000002804BFD6
:101BE0000120704710B5044690F83D0028B9002048
:101BF00084F83C00204600F067F8022084F83D009D
:101C0000206840F2FF730268C4F2000342F6004C01
:101C10009842C4F2010C15DCB0F1804F1AD040F2AA
:101C20000041C4F20001884214D0984218DCB0F19F
:101C3000804F1DD040F20041C4F20001884217D00D
:101C40001AE000BF604505D040F60001C4F2000173
:101C50008842EAD1A16822F070020A439842E6DD88
:101C6000604505D040F60001C4F20001884203D16E
:101C7000216922F440720A43A36922F08001D4F85A
:101C800004E0E268194360450160C262C0F828E0E0
:101C900002D16169CCF8301001214161002084F843
:101CA000461084F83E1084F83F1084F8401084F801
:101CB000411084F8421084F8431084F8441084F8EA
:101CC000451084F83D1010BD80B582B0006840F228
:101CD0000041C4F2000188421AD0B0F1804F24D1F3
:101CE00041F21C00C4F202000168002241F001012F
:101CF00001600068002100F00100019001981C20A3
:101D0000FFF7F6FB1C2002B0BDE88040FFF7DCBB0C
:101D100041F21C00C4F20200016841F002010160BE
:101D2000006800F002000090009802B080BD000042
:101D300090F83D1001291CBF01207047022180F856
:101D40003D10006840F2FF72C168C4F20002904288
:101D500041F00101C16009DCB0F1804F12D040F2C6
:101D60000041C4F2000188420CD012E042F600416A
:101D7000C4F20101884205D040F60001C4F200011E
:101D8000884206D1816801F00701062904BF0020BE
:101D90007047016841F001010160002070470000B8
:101DA0000146006841F21113C26822F00102C260CC
:101DB000026A1A4204D00122002081F83D207047B7
:101DC000026A40F244431A42F5D1026822F001024D
:101DD00002600122002081F83D20704780B590F814
:101DE0003C20012A4FF0020200F0BF8080F83D2025
:101DF000D0F800C04FF67772DCF8083023EA020210
:101E0000CCF808200B683F2B1CDD5F2B20DD602BFE
:101E100050D0B3F5005F6DD0702B40F0A080D1E9B9
:101E200001E3C968DCF8082043EA0E0322F47F428C
:101E300043EA01211143CCF80810DCF8081041F006
:101E400077018AE01F2B29DC63B3102B2AD086E0B0
:101E5000402B63D0502B40F08280D1F804E0C96859
:101E6000DCF82030DCF8202022F00102CCF8202021
:101E7000DCF8182022F0F00242EA011123F00A02F5
:101E800042EA0E02CCF81810CCF82020DCF808103A
:101E900041F0570121F020015FE000BF202B01D06D
:101EA000302B5CD1DCF8081021F07001194341F0AF
:101EB000070152E0D1F804E0C968DCF8203023F0D3
:101EC0001003CCF82030DCF81830DCF8202023F4A4
:101ED000704322F0A00243EA013142EA0E12CCF82C
:101EE0001810CCF82020DCF8081041F0670121F030
:101EF000100132E0D1E901E3C968DCF8082043EAC7
:101F00000E0322F47F4243EA01211143CCF808106A
:101F1000DCF8081041F480411FE000BFD1F804E074
:101F2000C968DCF82030DCF8202022F00102CCF86F
:101F30002020DCF8182022F0F00242EA011123F000
:101F40000A0242EA0E02CCF81810CCF82020DCF885
:101F5000081041F0470121F03001CCF808100121B0
:101F6000002280F83D1080F83C20104680BD000023
:101F70007047000010B5016804460869800744BF37
:101F8000C8685FEA807039D40869400744BFC868F0
:101F90005FEA40703ED40869000744BFC8685FEA42
:101FA000007045D40869C00644BFC8685FEAC060D5
:101FB0004AD40869C0071CBFC8685FEAC07051D125
:101FC0000869000644BFC8685FEA006052D4086927
:101FD000400644BFC8685FEA406053D40869800681
:101FE00046BFC8685FEA806010BD6FF020022046DF
:101FF0000A61BDE81040FFF7B1BD00BF6FF00200FD
:102000000861012020778869800743D02046FFF7C8
:10201000AFFF45E06FF00400086102202077886977
:1020200010F4407F40D02046FFF7A2FF42E000BFFF
:102030006FF00800086104202077C86980073DD050
:102040002046FFF795FF3FE06FF010000861082081
:102050002077C86910F4407F3AD02046FFF788FF08
:102060003CE000BF6FF001000861204600F03EF840
:102070002168A5E76FF0800008612046FFF76CFD3E
:102080002168A4E76FF040000861204600F03EF8A8
:102090002168A3E7204600F025F8204600F024F848
:1020A0002168002020776FE7204600F01BF82046CB
:1020B00000F01AF82168002020776CE7204600F035
:1020C00011F8204600F010F821680020207769E719
:1020D000204600F007F8204600F006F821680020AE
:1020E000207766E7704700007047000040F210114B
:1020F000C2F20001884218BF704740F29800C2F255
:1021000000004168013141607047000070470000E5
:102110007047000070470000B0B582B00268054605
:102120001068D368546900F02F01202903F02001C2
:1021300006D129B1284602B0BDE8B04000F06CBC21
:102140005FEA007C1EBF04F0010E03F4907414EBF0
:102150000E0453D1296B012905D110F0100118BFCD
:1021600013F0100136D1010622D513F080011FD0E3
:1021700095F83D0021283FD1A868B0F5805F03D1D4
:102180002869002800F0F880286A411C296200783C
:102190005060E88C01380104E8842DD1D06820F02B
:1021A0008000D060D06840F04000D06002B0B0BD88
:1021B000400621D513F040001ED0D068202120F029
:1021C0004000D060284685F83D1002B0BDE8B04020
:1021D00000F0C6BA0020019010680190506801908C
:1021E00001985069400611D4A88DE98DEB8D002B24
:1021F00018BF884240F0A68002B0B0BDC40718BF27
:1022000013F480732CD1430730D436E0A86B0168F7
:102210004B689CB2002CEFD0A98D8C42ECD2EB85A0
:102220008369202B17D0D16821F48071D160516966
:1022300021F001015161516921F0400151612021DA
:1022400085F83E1000212963D16821F01001D1608A
:10225000FEF738FFA98DE88D081A81B2284685E07F
:102260002B6C43F001032B64430706D5BEF1000F2E
:1022700003D02B6C43F002032B64830706D5BEF119
:10228000000F03D02B6C43F004032B64BCF1000F50
:1022900009D541EA0E03B3FA83F35B0903D12B6C32
:1022A00043F008032B642B6C002BA5D010F020000A
:1022B00018BF002903D0284600F0AEFB2A685069F9
:1022C000296C00F0400001F0080140182CD0D068C3
:1022D00020F49070D060506920F001005061286BAC
:1022E000012803D1D06820F01000D060202085F8AC
:1022F0003E0000202863506940061DD5506920F03B
:1023000040005061A86BB8B142F60D21C0F6000143
:102310004163FEF7FBFE00283FF46EAFA86B416BF4
:1023200002B0BDE8B04008472846FFF7F3FE0020A2
:10233000286402B0B0BD00BF284602B0BDE8B0407E
:10234000FFF7E8BED368401A23F49073D360536953
:1023500081B223F001035361202385F83E3000232E
:102360002B63D368284623F01003D36002B0BDE886
:10237000B040FFF7CDBE00BF286A30F8021B6FF3F4
:102380005F215160286204E7002804BF01207047E4
:1023900010B5044690F83D0028B9002084F83C00B0
:1023A000204600F061F8242084F83D002068D4E93C
:1023B0000212C36823F40053C360036923F440533B
:1023C0001A430261D4E904231143C268194341F25C
:1023D0000C639A431143C1604169A26921F44071C1
:1023E000114343F60002C4F201029042416103D05E
:1023F000FFF79AF902E000BFFFF7AAF96268192116
:1024000048439100B0FBF1F048F21F51C5F2EB11C7
:10241000A0FB01235A094FF69C73C0F6FF7302FB21
:102420000300322303EB0010A0FB0101F02303EAB9
:102430005113206803EB0212C1F343111144816070
:10244000016921F490410161416921F02A01416152
:10245000C16841F40051C16000202021206484F84B
:102460003D1084F83E1010BD70B586B040F60004F3
:10247000C4F20104006804F5405100268842049625
:1024800002D006B070BD00BF41F21800C4F20200D5
:10249000016802AD41F480410160016801F48041AE
:1024A00001910199016841F0040101600068294629
:1024B00000F00400019001984FF400700290022097
:1024C0000390032005902046FEF776FE4FF48060CF
:1024D000CDE90206204629460496FEF76DFE25202A
:1024E00000210022FFF704F82520FEF7EDFF06B0DB
:1024F00070BD0000034690F83E0020280AD1002954
:102500004FF0010018BF002A00D1704793F83C003B
:10251000012801D10220704700201863996222210E
:102520009A85DA85186483F83E10196883F83C00B0
:10253000CA6842F48072CA604A6942F001024A6184
:10254000CA6842F02002CA6070470000B0B540F28D
:102550009804C2F200040120254605F8080B28461D
:10256000FEF7A0F9002004F8300B2046294604228B
:10257000BDE8B040FFF7BEBF2DE9F041044690F83A
:102580003D0020280ED10D4600294FF0010000F03B
:102590008E801646002A08BFBDE8F08194F83C0002
:1025A000012803D10220BDE8F08100BF012084F89A
:1025B0003C00002020642120984684F83D00FEF76E
:1025C00015FFA684E684A1680646B1F5805F03D1B5
:1025D0002069002800F0A0802F460025002084F804
:1025E0003C00E08CE0B118F101001BD0B8F1000F05
:1025F00060D120680BE000BF35F8021B00276FF3A5
:102600005F214160E18C0139E184E18C51B30168C3
:1026100009066DD5002FEFD017F8011BF1E700BFB9
:1026200020681FE0206802E00168090609D40168FB
:10263000090606D4016809065CBF01685FEA01610A
:10264000F2D51FB117F8011B05E000BF35F8021BDA
:1026500000276FF35F214160E18C0139E184E18C57
:102660000029E4D1016849061DD4B8F1000F3FD01C
:1026700018F101010ED10168490614D40168490618
:102680005CBF01685FEA41610DD401684906F2D57B
:1026900009E000BFFEF7AAFE811B2068414527D84C
:1026A00000684006F6D5202084F83D000020BDE8F3
:1026B000F08100BF206800BF0168090606D4FEF75C
:1026C00095FE811B20684145F6D911E017B117F836
:1026D000011B04E035F8021B00276FF35F21416006
:1026E000E18C0139E184E18C0029E5D1BAE700BF32
:1026F000C16821F4D071C160416921F001014161DB
:10270000202084F83D0084F83E00002084F83C003E
:102710000320BDE8F08100BF00275FE7034690F883
:102720003D0020280AD100294FF0010018BF002ADF
:1027300000D1704793F83C00012801D10220704776
:102740001962002021219A84DA84186483F83D10EC
:10275000196883F83C00CA6842F08002CA6070477A
:1027600040F20000C2F200000121417770470000F2
:10277000FEE70000FEE70000FEE7000070470000F3
:10278000F0B581B02420C4F20000002440F200061D
:102790000460C2F2000640F2980596F90E10C2F2EB
:1027A0000005706A6F6889B200226C60FEF718FE3F
:1027B000317B727B706A114349B289B20122FEF704
:1027C0000FFE40F21010C2F20000FFF7B1FA686885
:1027D000874203D2287808B1FEE700BF317B727BC5
:1027E000B37B11431943706A49B289B20022FEF7E4
:1027F000F7FD40F21010C2F20000FFF7D1FA6C6052
:1028000001B0F0BDB0B52420C4F20000002140F2B8
:1028100000040160C2F2000440F2980594F90E2011
:10282000C2F20005606A696091B20022FEF7D8FD2D
:10283000217B627B606A114349B289B20122FEF7B3
:10284000CFFD40F21010C2F20000FFF771FA2878B5
:1028500010B100BFFEE700BF217B627BA37B114369
:102860001943606A49B289B20022FEF7B9FD40F20D
:102870001010C2F20000BDE8B040FFF791BA0000AE
:1028800070470000B0B51D2888BFB0BD0C4640F2AF
:102890000005C2F20005DFE800F00F151AADAD200B
:1028A000262B30363C41474D53585E64696F747A2D
:1028B0007F858B90969BA0A52101687CCAB23021B0
:1028C000FDF7C0FC687CE2B20F21FDF7BBFCE10123
:1028D000687CCAB28021FDF7B5FC6100687CCAB291
:1028E0000221FDF7AFFC687CE2B20121FDF7AAFCF2
:1028F000287CE2B20321FDF7A5FCA100287CCAB226
:102900000421FDF79FFCE100287CCAB20821FDF7F5
:1029100099FCA87CE2B20721FDF794FCE100A87CB9
:10292000CAB20821FDF78EFC2101A87CCAB2102191
:10293000FDF788FC6101A87CCAB2E021FDF782FCAA
:10294000E87EE2B2FF21FDF77DFC2101E87CCAB2FE
:102950007021FDF777FCE101E87CCAB28021FDF728
:1029600071FC687DE2B20F21FDF76CFC2101687DEE
:10297000CAB2F021FDF766FCA87DE2B20F21FDF797
:1029800061FC2101A87DCAB2F021FDF75BFCE87D66
:10299000E2B20721FDF756FCE100E87DCAB238211A
:1029A000FDF750FCE101287ECAB28021FDF74AFC08
:1029B000287EE2B21F21FDF745FCE101687ECAB224
:1029C0008021FDF73FFC687EE2B21F21FDF73AFC53
:1029D000A87EE2B2FF21FDF735FCE87EE2B2FF21DE
:1029E000FDF730FC287FE2B2FF21BDE8B040FDF7E3
:1029F00029BC00BFB0BD0000FEF7FEBC7047000060
:102A000040F21010C2F20000FFF7B4BA406A002191
:102A1000C185C184FFF77EBB81B090F83E102229AA
:102A200021D183680246B3F5805F09D152F8281F8F
:102A300052F8183C002B3FD003685B680AE000BFE7
:102A400052F8281F13B90369002BF5D003685B689F
:102A500003F07F030B70116801311160C18D0139E2
:102A60000A04C18502D001B0704700BF0168CA687E
:102A700022F02002CA60CA6822F48072CA604A69E1
:102A800022F001024A61202280F83E20026B012AD6
:102A90001AD100220263CB6823F01003CB600B68CD
:102AA000DB0605D500920A680092496800910099FA
:102AB000818D01B0FFF72CBB026852686FF35F2273
:102AC00021F8022B8162C9E701B0FFF73FBD00008A
:102AD00040F2C800C2F20000FFF71EBBFEE7000094
:102AE00090B0FEF797FC00240120CDE90B44CDE91E
:102AF00009440A9010200B904FF4601002250F90AB
:102B000006A8CDE907440695CDE90D54FEF734FE3D
:102B100020B1EFF3108072B6FEE700BF0F20CDE9C1
:102B200000054FF4E060CDE90304684602210294F9
:102B3000FEF71AFD20B1EFF3108072B6FEE700BF7A
:102B4000002741F218000997C4F20200016840F61C
:102B5000000841F0040101600168C4F2010801F0BD
:102B60000401009100990168002241F00801016010
:102B70000068AC2100F00800009000984046FEF785
:102B80002FFC4046502101220124FEF729FC08F5C4
:102B900080652846382100224FF03809FEF720FCD6
:102BA00006AE4FF0030B4FF0020A40463146CDE926
:102BB00006B7CDF820A0FEF7FFFA0C2006A981E8A1
:102BC000910840463146FEF7F7FAB02006A981E8A1
:102BD000910440463146FEF7EFFA4020CDE9060465
:102BE00040463146CDE9084BFEF7E6FA2846314625
:102BF000CDE90694CDE9087AFEF7DEFA40F210102E
:102C0000C2F200004FF080414FF6FF720997CDE904
:102C10000777CDE90077C0E90017C0E902720761C4
:102C20008761FEF7DBFF28B1EFF3108072B600BFBB
:102C3000FEE700BF4FF48050069040F21010C2F241
:102C4000000006A9FFF7CAF820B1EFF3108072B6B2
:102C5000FEE700BF40F21010C2F200006946FEF726
:102C60007FFF28B1EFF3108072B600BFFEE700BF10
:102C700040F29805C2F2000508F54051284640F898
:102C8000301F4FF4E13100240C22C0E90114C0E9E7
:102C90000344C0E90524C461FFF776FB20B1EFF3DC
:102CA000108072B6FEE700BF40F25810A8F58231DE
:102CB000C2F200004FF6FF720994CDE90744CDE956
:102CC0000044C0E90014C0E9024204618461FEF7D7
:102CD00085FF28B1EFF3108072B600BFFEE700BF9A
:102CE0004FF48050069040F25810C2F2000006A93E
:102CF000FFF774F820B1EFF3108072B6FEE700BF63
:102D000040F25810C2F200006946FEF729FF28B1D0
:102D1000EFF3108072B600BFFEE700BF05F130048C
:102D20000835204629460422FFF7E4FB20462946C1
:102D30000422FFF7F3FC00BFFEE7010200000000E1
:102D4000000000000102030406070809000000005B
:102D50000102030402030405060708090A0B0C0D0F
:102D60000E0F1010882D0008000000203800000011
:102D700028010008C02D000838000020700700005E
:102D8000440100080000000006080A17192001028B
:102D9000040810202010080102030405060D0E0F80
:102DA000101112131401000000080140000C014032
:102DB00001000000100000000024F40000000000EA
:04000005080000ED02
:00000001FF
