:020000040800F2
:10000000A0070020890100082131000819310008EB
:100010001D31000801140008B93400080000000078
:10002000000000000000000000000000693200082D
:10003000B11600080000000025310008E133000877
:10004000A3010008A3010008A3010008A301000800
:10005000A3010008A3010008A3010008A3010008F0
:10006000A3010008A3010008A3010008A3010008E0
:10007000A3010008A3010008A3010008A3010008D0
:10008000A3010008A3010008A3010008A3010008C0
:10009000A3010008A3010008A3010008A3010008B0
:1000A000A3010008A3010008A3010008A3010008A0
:1000B000A3010008A3010008A3010008A301000890
:1000C000A3010008A3010008A3010008A301000880
:1000D000A3010008AD340008A3010008A301000833
:1000E000A3010008A3010008A301000800F002F822
:1000F00000F03AF80AA090E8000C82448344AAF188
:100100000107DA4501D100F02FF8AFF2090EBAE885
:100110000F0013F0010F18BFFB1A43F0010318473B
:100120002036000040360000103A24BF78C878C15D
:10013000FAD8520724BF30C830C144BF04680C60ED
:10014000704700000023002400250026103A28BF35
:1001500078C1FBD8520728BF30C148BF0B60704739
:100160001FB51FBD10B510BD00F031F81146FFF7E7
:10017000F7FF03F0A3F900F04FF803B4FFF7F2FF25
:1001800003BC00F057F800000948804709480047C1
:10019000FEE7FEE7FEE7FEE7FEE7FEE7FEE7FEE737
:1001A000FEE7FEE704480549054A064B7047000094
:1001B000E5330008ED000008A0010020A0070020A2
:1001C000A0030020A00300207047704770477546C9
:1001D00000F02CF8AE4605006946534620F00700B3
:1001E000854618B020B5FFF7DDFFBDE820404FF091
:1001F00000064FF000074FF000084FF0000BAC4630
:10020000ACE8C009ACE8C009ACE8C009ACE8C0097A
:1002100021F007018D46704710B50446AFF300800A
:100220002046BDE81040FFF7A8BF00000048704717
:100230003800002001491820ABBEFEE7260002006E
:1002400070470000F0B581B040F20007C2F200072D
:1002500015460C4679793A6A97F90A300E1899B220
:100260001046002201F072FE70B200F0B5FF0020CF
:1002700000F0B2FF00F0A8FE3A6A97F90A100646AD
:1002800089B21046012201F061FE97F90A3005EAB1
:10029000040126EA0402386A541899B2002201F0D7
:1002A00055FE002000F098FF002000F095FF60B29E
:1002B00000F092FF97F90A10386A89B2012201B062
:1002C000BDE8F04001F042BE2DE9F04F85B040F2AC
:1002D0000008C2F20008064698F81100009140F2AA
:1002E000244540210022C4F200054FF00009FFF729
:1002F000A9FF4FF6004A40F2980440F20C10CFF6E6
:10030000FF7AC2F20004C2F2000045F80A90C4F875
:10031000089084F8019002F0B3FA98F90E10D8F81A
:10032000240089B2002201F011FE98F80C1098F810
:100330000D20D8F82400114349B289B2012201F0FE
:1003400005FE00F0A7FF002E3046019600F08285E2
:10035000207840F2541BC2F2000B002206E000BFDE
:10036000029A019901328A4200F0758555F80A1007
:100370000292FE290DD9F3E798F90A10D8F8200067
:1003800089B2012201F0E2FD55F80A102078FE2919
:10039000E6D80028E4D198F90610D8F8200089B2F0
:1003A00001F0CEFD0028EFD198F90A10D8F820000E
:1003B00089B2002201F0CAFD98F90910D8F820008E
:1003C00089B2012201F0C2FD98F90710D8F8200087
:1003D00089B201F0B5FD5846C5F8009002F050FA18
:1003E0002868012808D82868012805D82868012825
:1003F00002D828680228F3D3584602F079FA98F90F
:100400000910D8F8200089B2002201F09FFD58465B
:10041000C5F8009002F034FA2868012808D8286846
:10042000012805D82868012802D828680228F3D3B3
:10043000584602F05DFA98F90910D8F8200089B200
:10044000012201F083FD98F90710D8F8200089B245
:1004500001F076FD5846C5F8009002F011FA00BF91
:100460002868012808D82868012805D828680128A4
:1004700002D828680228F3D3584602F039FA98F9CE
:100480000910D8F8200089B2002201F05FFD58461B
:10049000C5F8009002F0F4F92868012808D8286807
:1004A000012805D82868012802D828680228F3D333
:1004B000584602F01DFA98F90910D8F8200089B2C0
:1004C000012201F043FD98F90710D8F8200089B205
:1004D00001F036FD5846C5F8009002F0D1F900BF92
:1004E0002868012808D82868012805D82868012824
:1004F00002D828680228F3D3584602F0F9F998F98F
:100500000910D8F8200089B2002201F01FFD5846DA
:10051000C5F8009002F0B4F92868012808D82868C6
:10052000012805D82868012802D828680228F3D3B2
:10053000584602F0DDF998F90910D8F8200089B280
:10054000012201F003FD98F90710D8F8200089B2C4
:1005500001F0F6FC5846C5F8009002F091F900BF92
:100560002868012808D82868012805D828680128A3
:1005700002D828680228F3D3584602F0B9F998F94E
:100580000910D8F8200089B2002201F0DFFC58469B
:10059000C5F8009002F074F92868012808D8286886
:1005A000012805D82868012802D828680228F3D332
:1005B000584602F09DF998F90910D8F8200089B240
:1005C000012201F0C3FC98F90710D8F8200089B285
:1005D00001F0B6FC5846C5F8009002F051F900BF92
:1005E0002868012808D82868012805D82868012823
:1005F00002D828680228F3D3584602F079F998F90E
:100600000910D8F8200089B2002201F09FFC58465A
:10061000C5F8009002F034F92868012808D8286845
:10062000012805D82868012802D828680228F3D3B1
:10063000584602F05DF998F90910D8F8200089B2FF
:10064000012201F083FC98F90710D8F8200089B244
:1006500001F076FC5846C5F8009002F011F900BF91
:100660002868012808D82868012805D828680128A2
:1006700002D828680228F3D3584602F039F998F9CD
:100680000910D8F8200089B2002201F05FFC58461A
:10069000C5F8009002F0F4F82868012808D8286806
:1006A000012805D82868012802D828680228F3D331
:1006B000584602F01DF998F90910D8F8200089B2BF
:1006C000012201F043FC98F90710D8F8200089B204
:1006D00001F036FC5846C5F8009002F0D1F800BF92
:1006E0002868012808D82868012805D82868012822
:1006F00002D828680228F3D3584602F0F9F898F98E
:100700000910D8F8200089B2002201F01FFC5846D9
:10071000C5F8009002F0B4F82868012808D82868C5
:10072000012805D82868012802D828680228F3D3B0
:10073000584602F0DDF898F90910D8F8200089B27F
:10074000012201F003FC98F90710D8F8200089B2C3
:1007500001F0F6FB5846C5F8009002F091F800BF92
:100760002868012808D82868012805D828680128A1
:1007700002D828680228F3D3584602F0B9F898F94D
:100780000910D8F8200089B2002201F0DFFB58469A
:10079000C5F8009002F074F82868012808D8286885
:1007A000012805D82868012802D828680228F3D330
:1007B000584602F09DF80026002708E004FA07F0EA
:1007C0000643584602F094F80137082F3ED098F9B6
:1007D0000910D8F8200089B2012201F0B7FB98F97E
:1007E0000710D8F8200089B201F0AAFB0446584649
:1007F000C5F8009002F044F82868012808D8286855
:10080000012805D82868012802D828680228F3D3CF
:10081000584602F06DF898F90910D8F8200089B20E
:10082000002201F093FB5846C5F8009002F028F82A
:1008300028680128C2D828680128BFD8286801285C
:10084000BCD828680228F3D3B8E700BF8DF8106041
:100850000026002709E000BF04FA07F006435846C7
:1008600002F046F80137082F3ED098F90910D8F861
:10087000200089B2012201F069FB98F90710D8F82D
:10088000200089B201F05CFB04465846C5F8009090
:1008900001F0F6FF2868012808D82868012805D843
:1008A0002868012802D828680228F3D3584602F0A5
:1008B0001FF898F90910D8F8200089B2002201F039
:1008C00045FB5846C5F8009001F0DAFF286801287A
:1008D000C2D828680128BFD828680128BCD8286851
:1008E0000228F3D3B8E700BF8DF811600026002777
:1008F00009E000BF04FA07F00643584601F0F8FF8C
:100900000137082F3ED098F90910D8F8200089B295
:10091000012201F01BFB98F90710D8F8200089B2DA
:1009200001F00EFB04465846C5F8009001F0A8FF00
:100930002868012808D82868012805D828680128CF
:1009400002D828680228F3D3584601F0D1FF98F95D
:100950000910D8F8200089B2002201F0F7FA5846B1
:10096000C5F8009001F08CFF28680128C2D82868DB
:100970000128BFD828680128BCD828680228F3D3EA
:10098000B8E700BF57468DF812604FF0000A002606
:100990000AE000BF04FA06F04AEA000A584601F0ED
:1009A000A7FF0136082E3FD098F90910D8F820008B
:1009B00089B2012201F0CAFA98F90710D8F820008C
:1009C00089B201F0BDFA04465846C5F8009001F01E
:1009D00057FF00BF2868012808D82868012805D8D3
:1009E0002868012802D828680228F3D3584601F065
:1009F0007FFF98F90910D8F8200089B2002201F091
:100A0000A5FA5846C5F8009001F03AFF2868012879
:100A1000C0D828680128BDD828680128BAD8286815
:100A20000228F3D3B6E700BF98F90910D8F82000E0
:100A300089B201228DF813A001F088FA98F9071005
:100A4000D8F8200089B201F07BFA5846C5F800902A
:100A500001F016FF2868012808D82868012805D861
:100A60002868012802D828680228F3D3584601F0E4
:100A70003FFF98F90910D8F8200089B2002201F050
:100A800065FA5846C5F8009001F0FAFE40F2980465
:100A9000BA46C2F2000400BF2868012808D82868B6
:100AA000012805D82868012802D828680228F3D32D
:100AB000584601F01DFF98F90910D8F8200089B2B6
:100AC000012201F043FA98F90710D8F8200089B202
:100AD00001F036FA5846C5F8009001F0D1FE00BF8B
:100AE0002868012808D82868012805D8286801281E
:100AF00002D828680228F3D3584601F0F9FE98F985
:100B00000910D8F8200089B2002201F01FFA5846D7
:100B1000C5F8009001F0B4FE2868012808D82868BC
:100B2000012805D82868012802D828680228F3D3AC
:100B3000584601F0DDFE98F90910D8F8200089B276
:100B4000012201F003FA98F90710D8F8200089B2C1
:100B500001F0F6F95846C5F8009001F091FE00BF8B
:100B60002868012808D82868012805D8286801289D
:100B700002D828680228F3D3584601F0B9FE98F944
:100B80000910D8F8200089B2002201F0DFF9584698
:100B9000C5F8009001F074FE2868012808D828687C
:100BA000012805D82868012802D828680228F3D32C
:100BB000584601F09DFE98F90910D8F8200089B236
:100BC000012201F0C3F998F90710D8F8200089B282
:100BD00001F0B6F95846C5F8009001F051FE00BF8B
:100BE0002868012808D82868012805D8286801281D
:100BF00002D828680228F3D3584601F079FE98F904
:100C00000910D8F8200089B2002201F09FF9584657
:100C1000C5F8009001F034FE2868012808D828683B
:100C2000012805D82868012802D828680228F3D3AB
:100C3000584601F05DFE98F90910D8F8200089B2F5
:100C4000012201F083F998F90710D8F8200089B241
:100C500001F076F95846C5F8009001F011FE00BF8A
:100C60002868012808D82868012805D8286801289C
:100C700002D828680228F3D3584601F039FE98F9C3
:100C80000910D8F8200089B2002201F05FF9584617
:100C9000C5F8009001F0F4FD2868012808D82868FC
:100CA000012805D82868012802D828680228F3D32B
:100CB000584601F01DFE98F90910D8F8200089B2B5
:100CC000012201F043F998F90710D8F8200089B201
:100CD00001F036F95846C5F8009001F0D1FD00BF8B
:100CE0002868012808D82868012805D8286801281C
:100CF00002D828680228F3D3584601F0F9FD98F984
:100D00000910D8F8200089B2002201F01FF95846D6
:100D1000C5F8009001F0B4FD2868012808D82868BB
:100D2000012805D82868012802D828680228F3D3AA
:100D3000584601F0DDFD98F90910D8F8200089B275
:100D4000012201F003F998F90710D8F8200089B2C0
:100D500001F0F6F85846C5F8009001F091FD00BF8B
:100D60002868012808D82868012805D8286801289B
:100D700002D828680228F3D3584601F0B9FD98F943
:100D80000910D8F8200089B2002201F0DFF8584697
:100D9000C5F8009001F074FD2868012808D828687B
:100DA000012805D82868012802D828680228F3D32A
:100DB000584601F09DFD98F90910D8F8200089B235
:100DC000012201F0C3F898F90710D8F8200089B281
:100DD00001F0B6F85846C5F8009001F051FD00BF8B
:100DE0002868012808D82868012805D8286801281B
:100DF00002D828680228F3D3584601F079FD98F903
:100E00000910D8F8200089B2002201F09FF8584656
:100E1000C5F8009001F034FD2868012808D828683A
:100E2000012805D82868012802D828680228F3D3A9
:100E3000584601F05DFD98F81D0000283FF49CAA7B
:100E400004F12C0004A9042288F81D9002F03AF95C
:100E5000FFF792BA207855F80A10009FB9424CD299
:100E600000284AD140F29800C2F200004FF0000979
:100E700000F12C0403AE00BF98F90610D8F820004A
:100E800089B201F05DF868BB98F90A10D8F8200023
:100E900089B2002201F05AF800F096F800F094F8B8
:100EA0008DF80C0000F090F88DF80D0000F08CF833
:100EB0008DF80E0000F088F88DF80F0000F084F82F
:100EC00098F81D0030B120463146042288F81D9064
:100ED00002F0F8F898F90A10D8F8200089B2012237
:100EE00001F034F855F80A00B84206D240F29800F2
:100EF000C2F2000000780028BED040F20C10C2F20E
:100F0000000001F0F5FC98F90B10D8F8200089B228
:100F1000002201F01BF898F80C1098F80D2098F8B2
:100F20000E3011431943D8F8240049B289B2002287
:100F300001F00CF805B0BDE8F08F000010B582B0EC
:100F400040F20004C2F20004607C40214022FFF71E
:100F500079F900F09FF900BF94F90610206A89B270
:100F600000F0EEFF0028F7D194F90A10206A89B248
:100F7000002200F0EBFF00F027F800F025F88DF8D4
:100F8000040000F021F88DF8050000F01DF88DF840
:100F9000060000F019F88DF8070000F015F840F28F
:100FA0009800C2F200002C3001A904224FF6FF7312
:100FB00001F0B6FF94F90A10206A89B2012200F00C
:100FC000C5FF02B010BD00002DE9F04740F22447F4
:100FD00040F2000A40F254194FF00008C4F2000732
:100FE000C2F2000AC2F200090024002607E000BF96
:100FF00048462C4301F07CFC0136082E40D09AF97B
:101000000910DAF8200089B2012200F09FFF9AF956
:101010000710DAF8200089B200F092FF0546484632
:10102000C7F8008001F02CFC3868012808D838681F
:10103000012805D83868012802D838680228F3D377
:101040004846B54001F054FC9AF90910DAF820003E
:1010500089B2002200F07AFF4846C7F8008001F00C
:101060000FFC00BF38680128C2D838680128BFD8F3
:1010700038680128BCD838680228F3D3B8E700BF25
:10108000E0B2BDE8F0870000B0B540F20004C2F263
:1010900000046179227D94F90A30206A8D1899B292
:1010A000002200F053FF68B200F096F8002000F034
:1010B00093F8FFF789FF94F90A10206A89B2012298
:1010C00000F044FF6179627C94F90A30206A8D183F
:1010D00099B2002200F03AFF68B200F07DF80020DB
:1010E00000F07AF8FFF770FF94F90A10206A89B2CD
:1010F000012200F02BFF94F90A10206A89B2002225
:1011000000F024FF002000F067F8002000F064F8F1
:101110004FF0FF3000F060F894F90A10206A89B2AD
:10112000012200F013FF94F90A10206A89B200220C
:1011300000F00CFF002000F04FF8002000F04CF809
:10114000002000F049F894F90A10206A89B20122BF
:1011500000F0FCFE94F90A10206A89B2002200F027
:10116000F5FE94F9040000F037F894F90A10206AAB
:1011700089B2012200F0EAFE94F90A10206A89B2CD
:10118000002200F0E3FE002000F026F8002000F02E
:1011900023F8002000F020F894F90A10206A89B2A0
:1011A000012200F0D3FE94F90A10206A89B20022CD
:1011B00000F0CCFE002000F00FF8002000F00CF84A
:1011C000002000F009F894F90A10206A89B201227F
:1011D000BDE8B04000F0BABE2DE9F04381B040F266
:1011E000244640F2000740F254158146C4F200063E
:1011F0004FF00008C2F20007C2F2000500240CE024
:10120000284601F075FB97F90910386A89B2002267
:1012100000F09CFE0134082C38D097F9083029FAE8
:1012200004F1386A01F0010299B200F08FFE2846FD
:10123000C6F8008001F024FB3068012808D8306827
:10124000012805D83068012802D830680228F3D375
:10125000284601F04DFB97F90910386A89B201223E
:1012600000F074FE2846C6F8008001F009FB00BFBC
:1012700030680128C4D830680128C1D830680128F6
:10128000BED830680228F3D3BAE700BF01B0BDE88A
:10129000F0830000F0B581B040F20005C2F2000515
:1012A00095F90B10286A40F2244689B20122C4F253
:1012B000000600F04BFE0020306040F25410C2F2F5
:1012C000000001F0DDFA00BF3068042808D830685B
:1012D000042805D83068042802D830680528F3D3DC
:1012E00040F25414C2F20004204601F001FB95F9CB
:1012F0000B10286A89B20022002700F027FE204642
:10130000376001F0BDFA00BF3068042808D83068A3
:10131000042805D83068042802D830680528F3D39B
:1013200040F25410C2F2000001F0E2FA95F90B10FD
:10133000286A89B2012201B0BDE8F04000F006BE83
:10134000B0B540F20004C2F200046179227D94F944
:101350000A30206A8D1899B2002200F0F7FD68B2B9
:10136000FFF73AFF0020FFF737FFFFF72DFE94F954
:101370000A10206A89B2012200F0E8FD94F90A10EF
:10138000206A89B2002200F0E1FD0020FFF724FF6F
:101390000020FFF721FF0A20FFF71EFF94F90A1033
:1013A000206A89B2012200F0D1FD94F90A10206A66
:1013B00089B2002200F0CAFD94F90300FFF70CFF88
:1013C00094F90A10206A89B2012200F0BFFD94F955
:1013D0000A10206A89B2002200F0B8FD0020FFF751
:1013E000FBFE0020FFF7F8FE0020FFF7F5FE94F962
:1013F0000A10206A89B20122BDE8B04000F0A6BD03
:10140000FEE7000070B5044600780D283AD8DFE802
:1014100010F00F00410077007D001B008100970055
:101420009900B9001F003F0133003B00490100BF94
:1014300040F29801C2F2000101F12C0004310422B3
:10144000BDE8704001F03EBEBDE87040FFF71CBE35
:10145000E0781D2816D800F02DF940F298060346D2
:10146000C2F2000606F10C0106F12C000122737392
:10147000BDE8704001F026BE40F29800C2F20000C4
:101480000121017070BD00BFB4F90200BDE87040D9
:1014900001F04ABE40F20005C2F2000595F90A10BB
:1014A000286A40F2244489B20022C4F200040026D3
:1014B00000F04CFD95F90000FFF78EFE95F90A103B
:1014C000286A89B2012200F041FD40F25410C2F2B4
:1014D0000000266001F0D4F92068082808D82068A8
:1014E000082805D82068082802D820680928F3D3DE
:1014F00040F25410C2F20000BDE8704001F0F8B9AB
:10150000A078E178BDE87040FEF7DEBEBDE870402F
:10151000FFF714BD40F20005C2F2000595F90A106C
:10152000286A89B2002200F011FD95F90300FFF747
:1015300053FE95F90A10286A89B2012200F006FDCF
:10154000FFF7FEFE40F20005C2F2000595F90A1011
:10155000286AE47889B2002200F0F8FC0020FFF746
:101560003BFE0020FFF738FEE0074FF0070008BF02
:101570000320FFF731FE95F90A10286A89B201228B
:1015800000F0E4FC002000F095F840F29804C2F26C
:10159000000404F80C0F012000F08CF860700220A9
:1015A00000F088F8A070032000F084F8E0700420B8
:1015B00000F080F82071052000F07CF860710620B2
:1015C00000F078F8A071072000F074F8E0710820AE
:1015D00000F070F82072092000F06CF860720A20A8
:1015E00000F068F8A0720B2000F064F8E0720C20A4
:1015F00000F060F820730D2000F05CF860730E209E
:1016000000F058F8A0730F2000F054F8E073102099
:1016100000F050F82074112000F04CF86074122093
:1016200000F048F8A074132000F044F8E07414208F
:1016300000F040F82075152000F03CF86075162089
:1016400000F038F8A075172000F034F8E075182085
:1016500000F030F82076192000F02CF860761A207F
:1016600000F028F8A0761B2000F024F8E0761C207B
:1016700000F020F820771D2000F01CF8034604F14C
:10168000200021461E226377BDE8704001F01ABD9C
:10169000E1781D2988BF70BDA07849B2BDE87040CF
:1016A00001F0E4BD6088BDE8704001F08DBD000030
:1016B00070470000B0B51D2828D8DFE810F02B00D7
:1016C0004F0057005F006F007F00A300C700EB00D2
:1016D0000F0117011F01430167011F008901AD01BF
:1016E000B501BD01C501E901F1011502390241024F
:1016F000970249026D021F00750200BF40F200040C
:10170000C2F200046179E27E54E200BF002460B2BC
:10171000B0BD00BF40F20004C2F200046179627CF7
:1017200094F90A30206A8D1899B2002200F00EFC5C
:1017300068B2FFF751FD0020FFF74EFDFFF744FCB4
:10174000226A94F90A10044689B21046012200F078
:10175000FDFBC4F3011460B2B0BD00BF40F2000451
:10176000C2F200046179627C74E100BF40F20004BF
:10177000C2F200046179627C3EE200BF40F20810D0
:1017800040F20004C2F20000C2F200040178627963
:10179000206A94F90A30551802E100BF40F208109F
:1017A00040F20004C2F20000C2F200040178627943
:1017B000206A94F90A305518D4E100BF40F20004C1
:1017C000C2F200046179E27B94F90A30206A8D1834
:1017D00099B2002200F0BAFB68B2FFF7FDFC0020CE
:1017E000FFF7FAFCFFF7F0FB226A94F90A100446AF
:1017F00089B21046012200F0A9FBC4F3400460B294
:10180000B0BD00BF40F20004C2F200046179627C06
:1018100094F90A30206A8D1899B2002200F096FBE4
:1018200068B2FFF7D9FC0020FFF7D6FCFFF7CCFB2E
:10183000226A94F90A10044689B21046012200F087
:1018400085FB04F0010460B2B0BD00BF40F20004AB
:10185000C2F200046179227C94F90A30206A8D1862
:1018600099B2002200F072FB68B2FFF7B5FC0020CD
:10187000FFF7B2FCFFF7A8FB226A94F90A100446AE
:1018800089B21046012200F061FB04F0030460B24B
:10189000B0BD00BF40F20004C2F200046179227CB6
:1018A00094F90A30206A8D1899B2002200F04EFB9C
:1018B00068B2FFF791FC0020FFF78EFCFFF784FB76
:1018C000226A94F90A10044689B21046012200F0F7
:1018D0003DFBC4F3800460B2B0BD00BF40F2000421
:1018E000C2F200046179227C0EE000BF40F20004E5
:1018F000C2F200046179A27CD8E000BF40F200048B
:10190000C2F200046179A27C94F90A30206A8D1831
:1019100099B2002200F01AFB68B2FFF75DFC0020CC
:10192000FFF75AFCFFF750FB226A94F90A100446AD
:1019300089B21046012200F009FBC4F3C00460B272
:10194000B0BD00BF40F20004C2F200046179A27C85
:1019500094F90A30206A8D1899B2002200F0F6FA44
:1019600068B2FFF739FC0020FFF736FCFFF72CFBCD
:10197000226A94F90A10044689B21046012200F046
:10198000E5FAC4F3001460B2B0BD00BF40F2000439
:10199000C2F200046179A27C206A94F90A308D18A1
:1019A00099B2002200F0D2FA68B2FFF715FC0020CD
:1019B000FFF712FCFFF708FB226A94F90A100446AD
:1019C00089B21046012200F0C1FA640960B2B0BDCC
:1019D00040F20004C2F200046179E27C94F90A301A
:1019E000206A8D1899B2002200F0B0FA68B2FFF7B1
:1019F000F3FB0020FFF7F0FBFFF7E6FA226A94F909
:101A00000A10044689B21046012200F09FFAC4F37E
:101A1000021460B2B0BD00BF40F20004C2F2000484
:101A20006179E27CE8E000BF40F20004C2F2000409
:101A30006179627D0EE000BF40F20004C2F2000452
:101A40006179627DD8E000BF40F20004C2F2000478
:101A50006179A27D94F90A30206A8D1899B200222A
:101A600000F074FA68B2FFF7B7FB0020FFF7B4FB91
:101A7000FFF7AAFA226A94F90A10044689B21046BE
:101A8000012200F063FA04F00F0460B2B0BD00BFA1
:101A900040F20004C2F200046179A27DACE000BF14
:101AA00040F20004C2F200046179E27D94F90A3048
:101AB000206A8D1899B2002200F048FA68B2FFF748
:101AC0008BFB0020FFF788FBFFF77EFA226A94F970
:101AD0000A10044689B21046012200F037FA04F0D9
:101AE000070460B2B0BD00BF40F20004C2F20004BF
:101AF0006179E27D94F90A30206A8D1899B200224A
:101B000000F024FA68B2FFF767FB0020FFF764FBE0
:101B1000FFF75AFA226A94F90A10044689B210466D
:101B2000012200F013FAC4F3C20460B2B0BD00BFDA
:101B300040F20004C2F200046179227E5CE000BF42
:101B400040F20004C2F200046179227E06E000BF88
:101B500040F20004C2F200046179627E206A94F9C6
:101B60000A308D1899B2002200F0F0F968B2FFF740
:101B700033FB0020FFF730FBFFF726FA226A94F9C7
:101B80000A10044689B21046012200F0DFF904F081
:101B90001F0460B2B0BD00BF40F20004C2F20004F6
:101BA0006179A27E06E000BF40F20004C2F20004A8
:101BB0006179227F94F90A30206A8D1899B2002247
:101BC00000F0C4F968B2FFF707FB0020FFF704FB41
:101BD000FFF7FAF9226A94F90A10044689B210460E
:101BE000012200F0B3F960B2B0BD00BF40F20004C2
:101BF000C2F200046179627E94F90A30206A8D187D
:101C000099B2002200F0A2F968B2FFF7E5FA0020CD
:101C1000FFF7E2FAFFF7D8F9226A94F90A100446AE
:101C200089B21046012200F091F9E40960B2B0BD1A
:101C3000014690F82100022816D10868D1E90FC3A7
:101C4000026822F00E020260026822F001020260C5
:101C5000012000FA03F2CCF8042081F821000020D2
:101C6000002281F820207047042088630120002290
:101C700081F820207047000080B590F821100229DB
:101C800024D10268116821F00E0111602F21136820
:101C9000C4F202018A4240F20401C4F2020123F0BC
:101CA0000103136016DD3023C4F202039A421DD0F3
:101CB0004423C4F202039A421CD05823C4F2020304
:101CC0009A421DD14FF4803322E000BF042181638A
:101CD000012080BD0823C4F202039A420ED01C23C7
:101CE000C4F202039A420BD1102311E04FF4807327
:101CF0000EE000BF4FF480530AE000BF012307E06D
:101D000001F1680C4FF08073624508BF4FF48013F7
:101D10000B60416B4FF48072028401B18847002050
:101D200080BD00002DE9F04F82B00E68002E00F05B
:101D3000038140F20C4C41F200424FF6FF7EC4F2A8
:101D4000010CC4F20102042700240123C1F2100E89
:101D50004FF0000A4FF00009904208BF0327009798
:101D600045E000BF012704F00C030F229A402BEA44
:101D7000020207FA03F34FEA9A051A4346F82520B0
:101D8000D1F804B040F20045C4F201055FEACB325D
:101D90002A6854BF22EA080242EA08022A606A68F6
:101DA0005FEA8B3354BF22EA080242EA08026A6003
:101DB0005FEACB23AA6854BF22EA080242EA08027B
:101DC0005FEA8B23AA60DCF800204FF0010354BFC8
:101DD00022EA080242EA0802CCF800200E680AF162
:101DE000010A36FA0AF204F1040400F0A58003FAAD
:101DF0000AF816EA080FF1D04E68764512DC122E6A
:101E000056D8DFE806F0350B45495555555555551B
:101E1000555555555555554D510000BFD1F80C90AD
:101E200046E000BF4FF6FF72C1F2210296420FDC7E
:101E30000022C1F2110296421AD00022C1F212020F
:101E4000964215D00022C1F22102964210D02FE016
:101E50000022C1F2220296420AD00022C1F23102CF
:101E6000964205D00022C1F23202964220D100BF34
:101E70008A684AB1012A14BFC0F81480C0F81080E3
:101E80004FF0080914E000BF4FF0040910E000BF54
:101E9000CA6802F108090BE04FF0000908E000BF32
:101EA000CA6802F1040903E0CA6802F10C0900BF24
:101EB00022460646BAF1080F24BF203A0436376896
:101EC0000F25954027EA050509FA02F22A433260F8
:101ED000CA79D2067FF582AF41F21803C4F2020339
:101EE0001A6842F001021A601A6802F001020192B7
:101EF000019A40F20042C4F20102A2F57E762AF075
:101F0000030256F802B040F60002C4F20102904209
:101F100010D040F60042C4F2010290423FF422AFDA
:101F200041F20002C4F20102009F904208BF022762
:101F300019E700BF002716E702B0BDE8F08F0000E8
:101F40008068084018BF012070470000002A08BFC1
:101F5000090401617047000040F29C10C2F20000C9
:101F60000068704740F2280040F29C11C2F2000065
:101F7000C2F2000100780A6810440860704700004F
:101F800080B542F20000C4F20200016841F0100185
:101F90000160032000F08EF80F2000F005F800F03B
:101FA00027F8002080BD000070B540F22806C2F27C
:101FB000000640F230013278C2F200014FF47A7329
:101FC0000968B3FBF2F20446B1FBF2F1084600F0F7
:101FD00063FB0F2C4FF0010508D838B94FF0FF30E4
:101FE00021460022002500F039F87460284670BDB3
:101FF00082B041F21800C4F202000168022241F0EE
:1020000001010160016801F001010191019941683C
:1020100041F080514160406800F08050009000988D
:102020000420C4F20100016862F31A61016002B089
:1020300070470000002848BF7047C1B200F01F0081
:10204000012202FA00F04EF20012CEF2000242EA41
:10205000D10121F0030108607047000010B54EF671
:102060000C5CCEF2000CDCF80030C3F3022E8EF0D4
:102070000704042C28BF0424BEF103034FF0FF3EE5
:102080000EFA04F438BF0023A14399400EFA03F37B
:102090009A43114300F00F0200F160430901043A32
:1020A00003F564436244002848BF02F10C03197031
:1020B00010BD00004EF60C51CEF200010A684FF63A
:1020C000FF031A4060F30A2242F0806040F0FD7086
:1020D000086070472DE9F04381B0002800F085804A
:1020E00042F20008C4F202080446D8F800000D4687
:1020F00000F0070088420CD2D8F8000020F007005A
:102100002843C8F80000D8F8000000F00700A842F3
:102110006BD1206841F204098107C4F2020917D586
:10212000410705D5D9F8001041F4E061C9F8001065
:10213000010705D5D9F8001041F46051C9F8001025
:10214000D9F80010A26821F0F0011143C9F800107D
:10215000C00741D1D8F8000000F00700A8420CD910
:10216000D8F8000020F007002843C8F80000D8F88D
:10217000000000F00700A84237D12068410707D5CA
:10218000D9F80010E26821F4E0611143C9F80010A9
:10219000000708D5D9F80000216920F4605040EA12
:1021A000C100C9F80000D9F8002002F00C0008288E
:1021B00041F20020C0F27A0050D143F23073C2F3F2
:1021C0008341C0F60003595CD2033BD440F60010B3
:1021D000C0F23D00484341E0606802280AD001286F
:1021E0002AD159F8041C890308D4012001B0BDE8A4
:1021F000F08300BF59F8041C8901F6D5D9F8001006
:1022000021F003010843C9F80000FFF7A5FE0646C8
:1022100041F28837D9F80000616800F00C00B0EB9B
:10222000810F97D0FFF798FE801BB842F2D90320A8
:1022300001B0BDE8F08300BF59F8041C8907D4D56C
:10224000DCE700BFD9F8002043F21673C2F3404226
:10225000C0F600039A5C4843B0FBF2F0D9F80010D6
:1022600043F21872C1F30311C0F60002515C40F250
:10227000300220FA01F140F22C00C2F200000068A6
:10228000C2F200021160FFF78FFE002001B0BDE82E
:10229000F083000040F2300041F20401C2F200007D
:1022A000C4F202010068096843F22872C1F30221F6
:1022B000C0F60002515CC8407047000040F2300098
:1022C00041F20401C2F20000C4F202010068096890
:1022D00043F22872C1F3C221C0F60002515CC8402B
:1022E000704700002DE9F04182B0002868D0044614
:1022F000007841F20006C007C4F2020625D07068DB
:1023000000F00C0004281BD0706800F00C000828B6
:1023100002D17068C00313D46068002800F068819F
:10232000B0F5A02F00F07C81B0F5803F00F07C81FB
:10233000306820F480303060306820F4802076E10E
:102340003068800301D56068D0B32078800718D545
:10235000706810F00C0F07D0706800F00C000828AF
:102360006ED17068C0036BD43068800702D52069D5
:10237000012825D13068616920F0F80040EAC100E9
:102380003060207800071FD42078400732D4E569F8
:1023900095B1706800F00C00082840F08F80012D86
:1023A0000ED07068216A00F480328A4208D1616AD6
:1023B00000F47010884203D1002002B0BDE8F08123
:1023C000012002B0BDE8F081A069002862D00020A1
:1023D000C4F242200121C0F88014FFF7BDFD05467C
:1023E000706A800700F18C80FFF7B6FD401B022861
:1023F000F6D92AE1F06910F0805808D1F06940F070
:102400008050F061F06900F080500090009847F231
:102410000007C4F200073868C00529D4386840F4C2
:1024200080703860FFF798FD054600BF3868C0052A
:102430001ED4FFF791FD401B6428F7D905E100BFCA
:102440002069002840F20000C4F2422000F082809F
:1024500001210160FFF780FD054600BF306880075D
:102460003FF588AFFFF778FD401B0228F6D9ECE076
:10247000E068002800F08080052800F0978001289F
:1024800000F09880306A20F001003062306A20F05D
:10249000040092E00020C4F242200021C0F8801421
:1024A000FFF75AFD054600BF706A80077FF56CAFE5
:1024B000FFF752FD401B0228F6D9C6E00027C4F200
:1024C000422700203866FFF747FD022D05460BD155
:1024D0003068800140F1BE80FFF73EFD401B0228BE
:1024E0004FF00300F4D968E7306880017FF564AFEE
:1024F000FFF732FD401B02284FF00300F4D95CE7E0
:1025000040F23000C2F20000006844F6D351C1F23C
:102510006201A0FB0101480A019000BF00BF0198C1
:10252000411E002801913FF42FAF00BF0198411ECA
:10253000002801913FF428AF00BF0198411E0028F8
:1025400001913FF421AF00BF0198411E0028019185
:10255000E4D119E700210160FFF7FEFC054600BF4A
:10256000306880077FF50DAFFFF7F6FC401B0228AF
:102570004FF00300F4D920E7306A20F00100306208
:10258000306A20F004003062FFF7E6FC054641F2B5
:10259000883700BF306A800720D5FFF7DDFC401B7D
:1025A000B8424FF00300F5D907E700BF306A40F0AA
:1025B00004003062306A40F001003062FFF7CCFC6A
:1025C000054641F2883700BF306A800706D4FFF71E
:1025D000C3FC401BB842F7D937E000BFB8F1000F89
:1025E0007FF4D5AEF06920F08050F061CFE600BFF7
:1025F000306820F480303060306820F48020306013
:10260000FFF7AAFC054600BF306880037FF59DAE4A
:10261000FFF7A2FC401B64284FF00300F4D9CCE67E
:10262000306840F480203060306840F480303060A2
:10263000FFF792FC054600BF306880033FF585AE8A
:10264000FFF78AFC401B6428F6D9032002B0BDE8DE
:10265000F08100BF206AB0F5803F05D17168A268A3
:1026600021F40031114371607168626A21F47411C0
:1026700011430843706001203866FFF76DFC044683
:10268000306880013FF598AEFFF766FC001B02281A
:102690004FF00300F4D990E6411E0020B0EB116F1B
:1026A0001CBF012070474EF21002CEF200025160B2
:1026B0004EF62351CEF20001F0230B7007219060FB
:1026C0001160704710B590F83C20012A4FF00202CB
:1026D00033D080F83D200268D2F804E0D2F808C078
:1026E0000C682EF07003234340F2FF74C4F2000420
:1026F000A24253600ADCB2F1804F13D040F2004393
:10270000C4F200039A420DD011E000BF42F600432C
:10271000C4F201039A4205D040F60003C4F200035C
:102720009A4204D149682CF0800319439160012139
:10273000002280F83D1080F83C20104610BD0000BB
:10274000002804BF0120704710B5044690F83D00F2
:1027500028B9002084F83C00204600F067F80220E9
:1027600084F83D00206840F2FF730268C4F2000361
:1027700042F6004C9842C4F2010C15DCB0F1804FD7
:102780001AD040F20041C4F20001884214D09842AD
:1027900018DCB0F1804F1DD040F20041C4F20001BE
:1027A000884217D01AE000BF604505D040F600010E
:1027B000C4F200018842EAD1A16822F070020A4303
:1027C0009842E6DD604505D040F60001C4F2000104
:1027D000884203D1216922F440720A43A36922F09E
:1027E0008001D4F804E0E268194360450160C262E8
:1027F000C0F828E002D16169CCF8301001214161B4
:10280000002084F8461084F83E1084F83F1084F8C5
:10281000401084F8411084F8421084F8431084F882
:10282000441084F8451084F83D1010BD82B0006853
:1028300040F20041C4F20001884211D0B0F1804F53
:102840001BD141F21C00C4F20200016841F00101F9
:102850000160006800F001000190019802B070472B
:1028600041F21C00C4F20200016841F00201016063
:10287000006800F002000090009802B0704700006D
:1028800090F83D1001291CBF01207047022180F8FB
:102890003D10006840F2FF72C168C4F2000290422D
:1028A00041F00101C16009DCB0F1804F12D040F26B
:1028B0000041C4F2000188420CD012E042F600410F
:1028C000C4F20101884205D040F60001C4F20001C3
:1028D000884206D1816801F00701062904BF002063
:1028E0007047016841F0010101600020704700005D
:1028F0000146006841F21113C26822F00102C26071
:10290000026A1A4204D00122002081F83D2070475B
:10291000026A40F244431A42F5D1026822F00102F1
:1029200002600122002081F83D20704780B590F8B8
:102930003C20012A4FF0020200F0BF8080F83D20C9
:10294000D0F800C04FF67772DCF8083023EA0202B4
:10295000CCF808200B683F2B1CDD5F2B20DD602BA3
:1029600050D0B3F5005F6DD0702B40F0A080D1E95E
:1029700001E3C968DCF8082043EA0E0322F47F4231
:1029800043EA01211143CCF80810DCF8081041F0AB
:1029900077018AE01F2B29DC63B3102B2AD086E055
:1029A000402B63D0502B40F08280D1F804E0C968FE
:1029B000DCF82030DCF8202022F00102CCF82020C6
:1029C000DCF8182022F0F00242EA011123F00A029A
:1029D00042EA0E02CCF81810CCF82020DCF80810DF
:1029E00041F0570121F020015FE000BF202B01D012
:1029F000302B5CD1DCF8081021F07001194341F054
:102A0000070152E0D1F804E0C968DCF8203023F077
:102A10001003CCF82030DCF81830DCF8202023F448
:102A2000704322F0A00243EA013142EA0E12CCF8D0
:102A30001810CCF82020DCF8081041F0670121F0D4
:102A4000100132E0D1E901E3C968DCF8082043EA6B
:102A50000E0322F47F4243EA01211143CCF808100F
:102A6000DCF8081041F480411FE000BFD1F804E019
:102A7000C968DCF82030DCF8202022F00102CCF814
:102A80002020DCF8182022F0F00242EA011123F0A5
:102A90000A0242EA0E02CCF81810CCF82020DCF82A
:102AA000081041F0470121F03001CCF80810012155
:102AB000002280F83D1080F83C20104680BD0000C8
:102AC0007047000070470000B0B582B0026805464C
:102AD0001068D368546900F02F01202903F0200109
:102AE00006D129B1284602B0BDE8B04000F082BC52
:102AF0005FEA007C1EBF04F0010E03F4907414EB37
:102B00000E0453D1296B012905D110F0100118BF13
:102B100013F0100136D1010622D513F080011FD029
:102B200095F83D0021283FD1A868B0F5805F03D11A
:102B30002869002800F0F880286A411C2962007882
:102B40005060E88C01380104E8842DD1D06820F071
:102B50008000D060D06840F04000D06002B0B0BDCE
:102B6000400621D513F040001ED0D068202120F06F
:102B70004000D060284685F83D1002B0BDE8B04066
:102B800000F0C2BA002001901068019050680190D6
:102B900001985069400611D4A88DE98DEB8D002B6A
:102BA00018BF884240F0A68002B0B0BDC40718BF6D
:102BB00013F480732CD1430730D436E0A86B01683E
:102BC0004B689CB2002CEFD0A98D8C42ECD2EB85E7
:102BD0008369202B17D0D16821F48071D1605169AD
:102BE00021F001015161516921F040015161202121
:102BF00085F83E1000212963D16821F01001D160D1
:102C0000FFF716F8A98DE88D081A81B2284685E0ED
:102C10002B6C43F001032B64430706D5BEF1000F74
:102C200003D02B6C43F002032B64830706D5BEF15F
:102C3000000F03D02B6C43F004032B64BCF1000F96
:102C400009D541EA0E03B3FA83F35B0903D12B6C78
:102C500043F008032B642B6C002BA5D010F0200050
:102C600018BF002903D0284600F0C4FB2A68506929
:102C7000296C00F0400001F0080140182CD0D06809
:102C800020F49070D060506920F001005061286BF2
:102C9000012803D1D06820F01000D060202085F8F2
:102CA0003E0000202863506940061DD5506920F081
:102CB00040005061A86BB8B143F2E931C0F60001A1
:102CC0004163FEF7D9FF00283FF46EAFA86B416B5C
:102CD00002B0BDE8B04008472846FFF7F3FE0020E9
:102CE000286402B0B0BD00BF284602B0BDE8B040C5
:102CF000FFF7E8BED368401A23F49073D36053699A
:102D000081B223F001035361202385F83E30002374
:102D10002B63D368284623F01003D36002B0BDE8CC
:102D2000B040FFF7CDBE00BF286A30F8021B6FF33A
:102D30005F215160286204E7002804BF012070472A
:102D400010B5044690F83D0028B9002084F83C00F6
:102D5000204600F061F8242084F83D002068D4E982
:102D60000212C36823F40053C360036923F4405381
:102D70001A430261D4E904231143C268194341F2A2
:102D80000C639A431143C1604169A26921F4407107
:102D9000114343F60002C4F201029042416103D0A4
:102DA000FFF778FA02E000BFFFF788FA626819219E
:102DB00048439100B0FBF1F048F21F51C5F2EB110E
:102DC000A0FB01235A094FF69C73C0F6FF7302FB68
:102DD0000300322303EB0010A0FB0101F02303EA00
:102DE0005113206803EB0212C1F3431111448160B7
:102DF000016921F490410161416921F02A01416199
:102E0000C16841F40051C16000202021206484F891
:102E10003D1084F83E1010BD70B586B040F6000439
:102E2000C4F20104006804F540510026884204966B
:102E300002D006B070BD00BF41F21800C4F202001B
:102E4000016802AD41F480410160016801F48041F4
:102E500001910199016841F004010160006829466F
:102E600000F00400019001984FF4007002900220DD
:102E70000390032005902046FEF754FF4FF4806036
:102E8000CDE90206204629460496FEF74BFF252091
:102E900000210022FFF7E2F82520FFF7CBF806B06B
:102EA00070BD0000034690F83E0020280AD100299A
:102EB0004FF0010018BF002A00D1704793F83C0082
:102EC000012801D102207047002018639962222155
:102ED0009A85DA85186483F83E10196883F83C00F7
:102EE000CA6842F48072CA604A6942F001024A61CB
:102EF000CA6842F02002CA6070470000B0B540F2D4
:102F00009805C2F200052C1D2046FEF77BFA05F15C
:102F10002C0021460422BDE8B040FFF7C3BF0000EB
:102F20002DE9F041044690F83D0020280ED10D46D1
:102F300000294FF0010000F08E801646002A08BFDD
:102F4000BDE8F08194F83C00012803D10220BDE8DF
:102F5000F08100BF012084F83C0000202064212083
:102F6000984684F83D00FEF7F7FFA684E684A16842
:102F70000646B1F5805F03D12069002800F0A080EB
:102F80002F460025002084F83C00E08CE0B118F1C9
:102F900001001BD0B8F1000F60D120680BE000BF2A
:102FA00035F8021B00276FF35F214160E18C013986
:102FB000E184E18C51B3016809066DD5002FEFD093
:102FC00017F8011BF1E700BF20681FE0206802E04E
:102FD0000168090609D40168090606D401680906D2
:102FE0005CBF01685FEA0161F2D51FB117F8011BF0
:102FF00005E000BF35F8021B00276FF35F21416039
:10300000E18C0139E184E18C0029E4D101684906B1
:103010001DD4B8F1000F3FD018F101010ED10168A5
:10302000490614D4016849065CBF01685FEA416142
:103030000DD401684906F2D509E000BFFEF78CFF08
:10304000811B2068414527D800684006F6D520201E
:1030500084F83D000020BDE8F08100BF206800BF7B
:103060000168090606D4FEF777FF811B20684145F9
:10307000F6D911E017B117F8011B04E035F8021B6F
:1030800000276FF35F214160E18C0139E184E18C1D
:103090000029E5D1BAE700BFC16821F4D071C16051
:1030A000416921F001014161202084F83D0084F84C
:1030B0003E00002084F83C000320BDE8F08100BF02
:1030C00000275FE7034690F83D0020280AD1002939
:1030D0004FF0010018BF002A00D1704793F83C0060
:1030E000012801D1022070471962002021219A8411
:1030F000DA84186483F83D10196883F83C00CA68C4
:1031000042F08002CA60704740F20000C2F2000044
:103110000121417770470000FEE70000FEE7000054
:10312000FEE7000070470000F0B581B0242640F2B1
:103130000C150446C4F200060020C2F200053060FF
:103140002846FFF79DFB40F20007C2F2000797F9FF
:103150000C10786A89B20022FEF7F8FE797BBA7B00
:10316000786A114349B289B20122FEF7EFFE284680
:10317000FFF786FB40F29805C2F200052878A8B157
:10318000306840F20C10C2F20000FFF7B1FB397B4F
:103190007A7BBB7B11431943786A49B289B200221A
:1031A000FEF7D4FE3068688001B0F0BD3068A04200
:1031B000E7D23068A042E4D23068A042E1D2306861
:1031C000A042F3D3DDE70000F0B581B0242640F241
:1031D0000C150446C4F200060020C2F2000530605F
:1031E0002846FFF74DFB40F20007C2F2000797F9AF
:1031F0000E10786A89B20022FEF7A8FE397B7A7B2E
:10320000786A114349B289B20122FEF79FFE28462F
:10321000FFF736FB40F29805C2F200052878A8B106
:10322000306840F20C10C2F20000FFF761FB397BFE
:103230007A7BBB7B11431943786A49B289B2002279
:10324000FEF784FE3068688001B0F0BD3068A042AF
:10325000E7D23068A042E4D23068A042E1D23068C0
:10326000A042F3D3DDE7000070470000B0B51D2891
:1032700088BFB0BD0C4640F20005C2F20005DFE891
:1032800000F00F151AADAD20262B30363C41474DCE
:1032900053585E64696F747A7F858B90969BA0A566
:1032A0002101687CCAB23021FCF7CCFF687CE2B215
:1032B0000F21FCF7C7FFE101687CCAB28021FCF74F
:1032C000C1FF6100687CCAB20221FCF7BBFF687CC9
:1032D000E2B20121FCF7B6FF287CE2B20321FCF741
:1032E000B1FFA100287CCAB20421FCF7ABFFE100CA
:1032F000287CCAB20821FCF7A5FFA87CE2B207210E
:10330000FCF7A0FFE100A87CCAB20821FCF79AFFF5
:103310002101A87CCAB21021FCF794FF6101A87CAE
:10332000CAB2E021FCF78EFFE87EE2B2FF21FCF793
:1033300089FF2101E87CCAB27021FCF783FFE1011B
:10334000E87CCAB28021FCF77DFF687DE2B20F21E4
:10335000FCF778FF2101687DCAB2F021FCF772FF0B
:10336000A87DE2B20F21FCF76DFF2101A87DCAB252
:10337000F021FCF767FFE87DE2B20721FCF762FF6E
:10338000E100E87DCAB23821FCF75CFFE101287E4C
:10339000CAB28021FCF756FF287EE2B21F21FCF75B
:1033A00051FFE101687ECAB28021FCF74BFF687EC5
:1033B000E2B21F21FCF746FFA87EE2B2FF21FCF734
:1033C00041FFE87EE2B2FF21FCF73CFF287FE2B23A
:1033D000FF21BDE8B040FCF735BF00BFB0BD000025
:1033E000FEF7C0BD70470000406A0021C185C1845E
:1033F000FFF768BB81B090F83E10222921D1836885
:103400000246B3F5805F09D152F8281F52F8183CE4
:10341000002B3FD003685B680AE000BF52F8281F0A
:1034200013B90369002BF5D003685B6803F07F03D1
:103430000B70116801311160C18D01390A04C18519
:1034400002D001B0704700BF0168CA6822F02002B4
:10345000CA60CA6822F48072CA604A6922F0010216
:103460004A61202280F83E20026B012A1AD10022F4
:103470000263CB6823F01003CB600B68DB0605D535
:1034800000920A680092496800910099818D01B00C
:10349000FFF716BB026852686FF35F2221F8022B18
:1034A0008162C9E701B0FFF729BD000040F2C40006
:1034B000C2F20000FFF708BBFEE7000090B0FEF785
:1034C0005FFD00240120CDE90B44CDE909440A90B9
:1034D00010200B904FF4601002250F9006A8CDE944
:1034E00007440695CDE90D54FEF7FCFE20B1EFF33D
:1034F000108072B6FEE700BF0F20CDE900054FF443
:10350000E060CDE90304684602210294FEF7E2FD83
:1035100020B1EFF3108072B6FEE700BF002741F242
:1035200018000997C4F20200016840F6000841F053
:10353000040101600168C4F2010801F00401009176
:1035400000990168002241F0080101600068AC2187
:1035500000F00800009000984046FEF7F7FC404657
:10356000502101220124FEF7F1FC08F58065284670
:10357000382100224FF03809FEF7E8FC06AE4FF084
:10358000030B4FF0020A40463146CDE906B7CDF8AD
:1035900020A0FEF7C7FB0C2006A981E89108404651
:1035A0003146FEF7BFFBB02006A981E891044046F2
:1035B0003146FEF7B7FB4020CDE9060440463146D0
:1035C000CDE9084BFEF7AEFB28463146CDE906941F
:1035D000CDE9087AFEF7A6FB40F20C10C2F200001B
:1035E0004FF080414FF6FF730997CDE90777CDE99A
:1035F000007741F63F7280E88600C0E903378761B3
:10360000FFF79EF820B1EFF3108072B6FEE700BF1F
:103610004FF48050069040F20C10C2F2000006A950
:10362000FFF784F920B1EFF3108072B6FEE700BF18
:1036300040F20C10C2F200006946FFF743F828B1CF
:10364000EFF3108072B600BFFEE700BF40F29805AE
:10365000C2F2000508F54051284640F82C1F4FF4EF
:10366000E13100240C22C0E90114C0E90344C0E99F
:103670000524C461FFF760FB20B1EFF3108072B640
:10368000FEE700BF40F25410A8F58231C2F20000FC
:103690004FF6FF720994CDE90744CDE90044C0E933
:1036A0000014C0E9024204618461FFF749F828B1BF
:1036B000EFF3108072B600BFFEE700BF4FF48050FA
:1036C000069040F25410C2F2000006A9FFF72EF94E
:1036D00020B1EFF3108072B6FEE700BF40F2541045
:1036E000C2F200006946FEF7EDFF28B1EFF310804B
:1036F00072B600BFFEE700BF05F12C04043520467A
:1037000029460422FFF7CEFB204629460422FFF774
:10371000D9FC00BFFEE7010200000000000000002D
:103720000102030406070809000000000102030467
:1037300002030405060708090A0B0C0D0E0F1010F2
:103740006037000800000020380000002801000851
:10375000983700083800002068070000440100087E
:1037600006080A1719200102040810202010080179
:1037700002030405060D0E0F1011121314010000B0
:1037800000080140000C0140010000001000000092
:083790000024F4000000000019
:04000005080000ED02
:00000001FF
